:020000040800F2
:100000003805002045010008350500085F05000897
:1000100063050008670500086B0500080000000084
:100020000000000000000000000000007105000852
:100030006F05000800000000730500087505000842
:1000400077050008790500087B0500087D05000894
:10005000AD050008AF050008EB050008070600081D
:1000600023060008250600082706000843060008A6
:100070004506000847060008490600084B06000828
:100080004D0600084F0600085106000853060008F8
:100090005506000857060008590600085B060008C8
:1000A00077060008790600087B0600087D06000830
:1000B0007F0600089F060008A1060008A3060008A6
:1000C000A5060008A7060008A9060008AB06000858
:1000D000AD060008AF060008B10600087B0700085F
:1000E0007D0700087F0700088107000883070008D4
:1000F0008507000887070008890700088B070008A4
:100100008D0700088F070008910700089307000873
:100110009507000897070008990700089B07000843
:100120009D0700089F070008A1070008A307000813
:10013000DFF80CD001F010FE00480047570400081B
:1001400038050020004800473101000808B50021AB
:100150004FF0006002F0ECF84FF4E06002F0DEF8DF
:1001600026208DF8000000208DF801008DF8020097
:1001700001208DF80300684602F096F808BD1CB512
:100180000621084601F0A4FF01F018FE402000906F
:1001900000208DF8040008208DF8050001208DF85E
:1001A0000600684601F026FE102001F001FE1CBD8D
:1001B0000EB54FF0804002F0D3FA4FF0804002F0CD
:1001C0003DFB0A20ADF8040048F69F40ADF8000062
:1001D0000020ADF80600ADF8020069464FF08040FF
:1001E00002F032FB0121880702F0A9FA00214FF04A
:1001F000804002F099FA01224121880702F016FBA3
:100200000121880702F0A1FA0EBD00B587B00020D9
:10021000ADF80400ADF806004FF40070ADF808002A
:100220000020ADF80A0001A9BA4802F031FB4FF4F2
:10023000165003900020ADF81000ADF81200ADF894
:100240001400ADF818000C20ADF8160003A9B14851
:1002500002F076FB012240F22551AE4802F057FB36
:100260000121AC4802F023FB07B000BD1FB5AA482E
:1002700001F0A8FF0020ADF800004BF6FF70ADF8CC
:1002800002003020ADF804004FF48060ADF80600A5
:100290000001ADF80800A148039001219E4801F03B
:1002A00087FF69469C4801F0A5FF01219A4801F0AB
:1002B00075FF1FBD08B54FF47040ADF80000102069
:1002C0008DF8030003208DF802006946944801F080
:1002D00013FF4FF40041924801F05EFF4FF480415C
:1002E0008F4801F059FF4FF400518D4801F054FF41
:1002F0004FF480518A4801F04FFF4FF4E070ADF8A1
:10030000000004208DF8030003208DF802006946E8
:10031000844801F0F1FE4FF48070ADF80000042035
:100320008DF8030003208DF8020069467E4801F035
:10033000E3FE4FF4A060ADF8000010208DF803003C
:1003400003208DF802006946784801F0D5FE0420AC
:10035000ADF8000018208DF8030003208DF802008E
:100360006946714801F0C8FE0820ADF8000003207E
:100370008DF8020004208DF8030069466A4801F0F8
:10038000BBFE2020ADF8000004208DF80300694674
:10039000644801F0B1FE0820ADF8000004208DF89B
:1003A000030069465F4801F0A7FE4020ADF8000059
:1003B00004208DF8030003208DF802006946594897
:1003C00001F09AFE08BD10B502F012F84FF480302B
:1003D00002F0AAF802F01AF90446012C24D10020F8
:1003E00002F098F8002002F0DFF8A00202F0D2F844
:1003F000022001F0D1FD102001F084FD4FF4E01146
:10040000200402F0E1F8012002F0D8F800BF392002
:1004100002F056F80028FAD0022002F0EDF800BFF2
:1004200002F070F80828FBD1012140F2ED1001F034
:10043000B3FF0121480401F097FF0121080201F0F8
:1004400087FF0121084601F08FFF01214FF0C050C6
:1004500001F08AFF10BD40F225512E4802F012FA39
:10046000FFF7B1FFFFF726FFFFF700FF00F0AAF943
:10047000FFF7CBFEFFF79CFEFFF781FEFFF766FE5E
:10048000042001F085FCA0F52541A53909D000F034
:1004900061FB00F0F3FB4AF2A551042001F080FC5F
:1004A0000EE07B2002F00CF810B97A2002F008F878
:1004B00002F02AF90121084602F0F0F802F01AF9D8
:1004C00001F088FF06E01A48B0F86600012801D163
:1004D00001F09EFBF7E770B504460D46E1B20D480A
:1004E00002F076FA00BF40210A4802F0EAF900283B
:1004F000F9D0204670BD002106E0782100BF0A0037
:10050000A1F1010399B2FAD10200A0F1010398B25E
:10051000F3D170470044004000580040A08601001D
:10052000000C01400020014000080140001C014077
:100530006000002010B5802001F0DAFF70B14FF4A8
:10054000803001F0F1FF0121082002F007F80121BD
:10055000102002F003F8802001F044FF10BD00BF1E
:10056000FEE700BFFEE700BFFEE700BFFEE7704703
:1005700070477047704770477047704710B501204B
:1005800002F07EF888B1012002F05AF80120854976
:10059000087002F0AFF802F06BF88349884204D18A
:1005A000002002F089F802F0A5F810BD704710B5E0
:1005B000082001F09DFF48B1082001F013FF312011
:1005C00001F07EFF10B1012001F0F8FF102001F0D2
:1005D0008FFF48B1102001F005FF392001F070FFB6
:1005E00010B1022002F008F810BD10B5012001F092
:1005F000F3FB38B16D480088401C6C49088001202D
:1006000001F0D6FB10BD10B5022001F0E5FB38B1BA
:1006100067480068401C66490860022001F0C8FB7A
:1006200010BD7047704710B5102001F0D5FB38B1F0
:100630005E480088401C5D490880102001F0B8FB2E
:1006400010BD7047704770477047704770477047DC
:100650007047704770477047704710B5402001F0F1
:10066000BBFB38B153480088401C524908804020E9
:1006700001F09EFB10BD704770477047704710B582
:100680000121880702F0C6F840B10121880702F075
:1006900059F800F046F900204549086010BD704740
:1006A0007047704770477047704770477047704792
:1006B00010B5002440F225513F4802F009F9012805
:1006C0004FD13D4802F080F9C4B2EE2C07D1012091
:1006D0003A49A1F868000020A1F866000880374870
:1006E00001880088401C354A1080901C44543448CE
:1006F000007830B101280ED0022816D003282ED160
:100700001DE0FF2C03D101202D49087002E00020DC
:100710002B49087024E0FC2C03D1022028490870E2
:1007200002E00020264908701AE0FF2C03D10320C4
:100730002349087002E000202149087010E0FF2CD6
:1007400009D100201E4908701C49A1F86800012049
:10075000A1F8660002E000201949087000E000BF1F
:1007600000BF40F22551144802F0B2F820B140F227
:100770002551114802F086F810BD70477047704748
:1007800070477047704770477047704770477047B1
:1007900070477047704770477047704770477047A1
:1007A000704770471C0000208051010000000020AD
:1007B00018000020020000200044004060000020DB
:1007C0000400002000B597B001214FF4F47001F04F
:1007D000E3FD4CF20370ADF8000018208DF8030023
:1007E00003208DF8020069463E4801F085FC4FF673
:1007F0008070ADF8000069463B4801F07DFC4FF287
:100800003F00ADF800006946384801F075FC3F2014
:10081000ADF800006946364801F06EFC4FF46050B8
:10082000ADF8000069462F4801F066FC7C20ADF869
:10083000000069462C4801F05FFC4FF4C040ADF861
:10084000000069462A4801F057FC3020ADF800004E
:100850006946244801F050FC8020ADF8000069464C
:10086000204801F049FC00200190029002200390F2
:1008700000200490059006900790089009900A9037
:1008800010200B9000200C900D900E900F904FF4C4
:10089000805010900020119012901390149001A895
:1008A0001590169008A801F0B3FB0121002001F07B
:1008B0009FFB17B000BD10B506E030F8024B4FF0BB
:1008C000C0435C52891C521E002AF6D110BD06E0BE
:1008D0004FF0C0435B5A20F8023B891C521E002A8D
:1008E000F6D170470014014000180140001C01407F
:1008F0000020014070B5044600F0D4F95848046067
:1009000058490A68426049688160054629460020C6
:1009100000F0F3F870BD54480088401C524908802C
:10092000704710B551480068002869D04F480068EA
:100930000A281BD3FFF7EFFF4C480068FFF7DAFFE8
:1009400000204B4908700AE000214A48484A1278C2
:1009500040F8221046480078401C45490870444839
:1009600000780528F0D30020434908703F4801680B
:10097000414802780078401C3F4B18703D4840F8D1
:10098000221018460078052802DB0020194608705E
:100990000020374908700EE036483549097850F88C
:1009A0002100364909680844344908603048007815
:1009B000401C2F4908702E4800780528ECDB2F4892
:1009C0000068142835D3FFF7A6FF2C480068FFF70E
:1009D00091FF0020264908700AE000212548244A9A
:1009E000127840F8221022480078401C20490870F4
:1009F0001F4800780528F0D300201F49087018E030
:100A00001A480068A8B90020194908700AE00020B7
:100A10001849174A127841F8220015480078401CFE
:100A200013490870124800780528F0D300201249B5
:100A3000087010BD70B50446114E601E00EB4000FA
:100A4000800045080C223146284600F02BF870BD86
:100A500010B504220B49504200F016F810BD0000FA
:100A600048000020200000201E0000201800002068
:100A70000800002034000020100000200C0000209E
:100A8000540000201400002010B50B4600212F4C0C
:100A9000204404E050F8014B43F82140491C9142A6
:100AA000F8D310BD30B50023284C204404E050F8A2
:100AB000015B0D705B1C491C9342F8D330BD70B5CF
:100AC00004460D4601F074FA352001F0D9F91F48AB
:100AD00001F0DCF91E49087008460078042806D1A8
:100AE0001A496018294601F035FA1949087035206D
:100AF00001F0C6F901F0FEF970BD2DE9F0410446A0
:100B00000D460026062701F053FA352001F0B8F90A
:100B10000E4801F0BBF90E49087008460078042819
:100B20000DD10AE02988094AA01801F0F7F908490F
:100B30000870A41CAD1C701CC6B2BE42F2DB35208E
:100B400001F09EF901F0D6F9BDE8F08100F8070840
:100B50002800002010B501214FF0C05001F004FC26
:100B6000012001F0EFFB01F009F9012001F002FD85
:100B700000BF412001F0A4FC0028FAD04FF480709F
:100B800001F032FD012001F029FD01F0BDFD01F071
:100B9000B1FD0121084601F081FD01F0ABFD47F6F2
:100BA000FF7001F097FD01F0A5FD10BD0146CA17C9
:100BB00001EB92729210B1EB820205D1642291FB9B
:100BC000F2F302FB131232B94FF4C87291FBF2F345
:100BD00002FB13120AB9012070470020FCE72DE93F
:100BE000F04F06460F4690469946DDE909AB0024D2
:100BF00040F2B270864203DB40F63300864202DDEB
:100C00000120BDE8F08F40F2B2750AE02846FFF7F8
:100C1000CDFF10B17B48044401E07B480444681CCC
:100C200085B2B542F2DB781EC7B2002510E07748E6
:100C3000405D40F2A321484304EBC0143046FFF767
:100C4000B5FF18B1012D01D171480444681C85B26B
:100C5000BD42ECDBA8F1010040F2A321484304EBC4
:100C6000C014C9EB4910C0EB092004EB0014CAEB17
:100C70000A1004EB80045C442046C2E71CB501F076
:100C800039FD00230B22CDE9002315230222042184
:100C90004FF4FC60FFF7A3FF044601F00DFD01F0E7
:100CA00029FD1CBD70B500260024002501F0E0FCE4
:100CB00006465748B6FBF0F456480088A0423AD0A2
:100CC00054490C8040F2B2750EE02846FFF76EFFE3
:100CD00030B1B4F5B77F02D3A4F5B77402E006E0F3
:100CE000A4F26D14681C85B2B4F5B67FEDD800BFD0
:100CF00049480580002516E047490888FFF756FF58
:100D000030B1012D04D11D2C01D31D3C09E00CE0B4
:100D10003E48405DA04203D83C48405D241A00E0B4
:100D200003E0681C85B21C2CE6D200BF681C3A495F
:100D30008870601CC8703648B6FBF0F100FB116487
:100D40004FF46160B4FBF0F0334908714FF4616017
:100D5000B4FBF0F100FB11403C21B0FBF1F02E4957
:100D6000487148F6A040B4FBF0F100FB11403C2173
:100D7000B0FBF1F201FB120027498871002070BD21
:100D800010B5FF21FF22FF2003460EE00BE008E034
:100D90004FF461604843C2EB021400EB8400184436
:100DA00010BDFF2BF4D0FF2AF1D0FF29EED000BFF9
:100DB000F6E770B50021002200234FF46164B0FB18
:100DC000F4F1B0FBF4F504FB15043C25B4FBF5F19C
:100DD0004FF46164B0FBF4F504FB15043C25B4FB4F
:100DE000F5F605FB164170BD0BE00C4800780128B4
:100DF00004D101F03DFC0446FFF7DBFF002007496A
:100E00000870F2E70085E2018033E101F62900086D
:100E1000805101002A000020200000201C0000203A
:100E200010B504462146FF4801F0D2FD00BF402125
:100E3000FC4801F046FD0028F9D010BD10B504466D
:100E400003E02078FFF7ECFF641C20780028F8D13D
:100E500010BD10B5EE20FFF7E3FF10BD10B5FF2069
:100E6000FFF7DEFFFC20FFF7DBFFFF20FFF7D8FFD7
:100E7000FF20FFF7D5FF10BD10B5FFF7EAFF0020F8
:100E8000FFF7CEFFFFF7EAFF10BD10B50446FFF7EE
:100E9000E0FF4120FFF7C4FF200AFFF7C1FFE0B2E7
:100EA000FFF7BEFFFFF7DAFF10BD10B50446FFF7EE
:100EB000D0FF4220FFF7B4FF200AFFF7B1FFE0B2F6
:100EC000FFF7AEFFFFF7CAFF10BD70B506460C4630
:100ED0001546FFF7BEFFA320FFF7A2FF3046FFF73E
:100EE0009FFF200AFFF79CFFE0B2FFF799FF280A57
:100EF000FFF796FFE8B2FFF793FFFFF7AFFF70BD74
:100F000010B5FFF7A6FF0120FFF78AFFFFF7A6FF46
:100F100010BD70B505460C46FFF79BFF4320FFF759
:100F20007FFF2846FFF77CFF2046FFF779FFFFF79A
:100F300095FF70BD70B506460C461546FFF789FF54
:100F40004520FFF76DFF3046FFF76AFF200AFFF7E5
:100F500067FFE0B2FFF764FF280AFFF761FFE8B21E
:100F6000FFF75EFFFFF77AFF70BD70B504460D46D0
:100F7000FFF76FFF4420FFF753FF200AFFF750FFF2
:100F8000E0B2FFF74DFF280AFFF74AFFE8B2FFF78C
:100F900047FFFFF763FF70BD2DE9F04104460D46A2
:100FA00016461F46DDF81880FFF753FF2020FFF795
:100FB00037FF200AFFF734FFE0B2FFF731FF280ABE
:100FC000FFF72EFFE8B2FFF72BFF3046FFF728FFB1
:100FD0003846FFF725FF4046FFF730FFFFF73EFF9B
:100FE000BDE8F0812DE9F04104460D4616461F4646
:100FF000DDF81880FFF72DFF2020FFF711FF200AF2
:10100000FFF70EFFE0B2FFF70BFF280AFFF708FF1C
:10101000E8B2FFF705FF3046FFF702FF3846FFF75B
:10102000FFFE4046FFF7FCFEFFF718FFBDE8F0812A
:101030002DE9F04180460D4616461C46069FFFF7F7
:1010400008FF2120FFF7ECFE4046FFF7E9FE280AE3
:10105000FFF7E6FEE8B2FFF7E3FE300AFFF7E0FE37
:10106000F0B2FFF7DDFE2046FFF7DAFE3846FFF765
:10107000D7FEFFF7F3FEBDE8F08170B504460D46DC
:10108000FFF7E7FE3120FFF7CBFE200AFFF7C8FE8F
:10109000E0B2FFF7C5FE2846FFF7C2FEFFF7DEFE0F
:1010A00070BD2DE9F04104460D4616461F46FFF778
:1010B000D0FE3220FFF7B4FE200AFFF7B1FEE0B207
:1010C000FFF7AEFE280AFFF7ABFEE8B2FFF7A8FE77
:1010D000300AFFF7A5FEF0B2FFF7A2FE3846FFF791
:1010E0009FFEFFF7BBFEBDE8F0812DE9F05F0446EF
:1010F0000D4616461F46DDE90CABDDE90A89FFF710
:10110000A8FE3320FFF78CFE200AFFF789FEE0B22D
:10111000FFF786FE280AFFF783FEE8B2FFF780FE9E
:10112000300AFFF77DFEF0B2FFF77AFE380AFFF7CC
:1011300077FEF8B2FFF774FE4FEA1820FFF770FE53
:1011400008F0FF00FFF76CFE4FEA1920FFF768FE7A
:1011500009F0FF00FFF764FE4FEA1A20FFF760FE78
:101160000AF0FF00FFF75CFE5846FFF759FEFFF755
:1011700075FEBDE8F09F2DE9F04104460D46164688
:101180001F46DDF81880FFF764FE8020FFF748FE59
:10119000200AFFF745FEE0B2FFF742FE280AFFF7FC
:1011A0003FFEE8B2FFF73CFE300AFFF739FEF0B22F
:1011B000FFF736FE3846FFF733FE4046FFF730FEB6
:1011C000FFF74CFEBDE8F08170B504460D46FFF711
:1011D00040FE5020FFF724FE200AFFF721FEE0B278
:1011E000FFF71EFE280AFFF71BFEE8B2FFF718FE06
:1011F000FFF734FE70BD2DE9F04104460D4616465A
:101200001F46FFF726FE5120FFF70AFE200AFFF7D0
:1012100007FEE0B2FFF704FE280AFFF701FEE8B27E
:1012200002E0000000440040FFF7FAFD300AFFF73B
:10123000F7FDF0B2FFF7F4FD380AFFF7F1FDF8B261
:10124000FFF7EEFDFFF70AFEBDE8F08170B5054639
:101250000C46FFF7FEFD6320FFF7E2FD2846FFF78F
:10126000DFFD2046FFF7EAFDFFF7F8FD70BD70B522
:1012700004460D461646FFF7ECFD5220FFF7D0FD61
:10128000200AFFF7CDFDE0B2FFF7CAFD280AFFF7FD
:10129000C7FDE8B2FFF7C4FD300AFFF7C1FDF0B2A9
:1012A000FFF7BEFDFFF7DAFD70BD70B504460D46D1
:1012B0001646FFF7CEFD5320FFF7B2FD200AFFF7D9
:1012C000AFFDE0B2FFF7ACFD280AFFF7A9FDE8B2D9
:1012D000FFF7A6FD300AFFF7A3FDF0B2FFF7A0FD70
:1012E000FFF7BCFD70BD2DE9F04104460D461646E2
:1012F0001F46DDF81880FFF7ACFD6720FFF790FD73
:10130000200AFFF78DFDE0B2FFF78AFD280AFFF7FC
:1013100087FDE8B2FFF784FD300AFFF781FDF0B2E8
:10132000FFF77EFD380AFFF77BFDF8B2FFF778FD87
:101330004FEA1820FFF774FD08F0FF00FFF770FD7B
:10134000FFF78CFDBDE8F0812DE9F04104460D4624
:1013500016461F46FFF77DFD5420FFF761FD200A6A
:10136000FFF75EFDE0B2FFF75BFD280AFFF758FDCF
:10137000E8B2FFF755FD300AFFF752FDF0B2FFF774
:101380004FFD380AFFF74CFDF8B2FFF749FDFFF7B4
:1013900065FDBDE8F0812DE9F04104460D46164695
:1013A0001F46FFF756FD5520FFF73AFD200AFFF7CD
:1013B00037FDE0B2FFF734FD280AFFF731FDE8B250
:1013C000FFF72EFD300AFFF72BFDF0B2FFF728FDE7
:1013D000380AFFF725FDF8B2FFF722FDFFF73EFDC3
:1013E000BDE8F0812DE9F04104460D4616461F4642
:1013F000FFF72FFD6520FFF713FD200AFFF710FD13
:10140000E0B2FFF70DFD280AFFF70AFDE8B2FFF78B
:1014100007FD300AFFF704FDF0B2FFF701FD380ABF
:10142000FFF7FEFCF8B2FFF7FBFCFFF717FDBDE886
:10143000F0812DE9F04104460D4616461F46FFF7A0
:1014400008FD5620FFF7ECFC200AFFF7E9FCE0B2AC
:10145000FFF7E6FC280AFFF7E3FCE8B2FFF7E0FC41
:10146000300AFFF7DDFCF0B2FFF7DAFC380AFFF7CD
:10147000D7FCF8B2FFF7D4FCFFF7F0FCBDE8F08131
:101480002DE9F04104460D4616461F46FFF7E1FCE4
:101490005720FFF7C5FC200AFFF7C2FCE0B2FFF7B8
:1014A000BFFC280AFFF7BCFCE8B2FFF7B9FC300A22
:1014B000FFF7B6FCF0B2FFF7B3FC380AFFF7B0FC59
:1014C000F8B2FFF7ADFCFFF7C9FCBDE8F08170B5DD
:1014D00004460D461646FFF7BCFC6420FFF7A0FC4F
:1014E000200AFFF79DFCE0B2FFF79AFC280AFFF7FD
:1014F00097FCE8B2FFF794FC300AFFF791FCF0B2DA
:10150000FFF78EFCFFF7AAFC70BD10B50446FFF78D
:10151000A0FC6020FFF784FC2046FFF781FCFFF76A
:101520009DFC10BD10B50446FFF793FC6120FFF74A
:1015300077FC2046FFF774FCFFF790FC10BD10B558
:101540000446FFF786FCA020FFF76AFC2046FFF761
:1015500067FCFFF783FC10BD10B50446FFF779FC6C
:101560007020FFF75DFC2046FFF75AFCFFF776FC82
:1015700010BD10B5FFF76DFC7220FFF751FCFFF7AF
:101580006DFC10BD10B5FFF764FC7320FFF748FC3D
:10159000FFF764FC10BD10B50446FFF75AFCA1200C
:1015A000FFF73EFC2046FFF73BFCFFF757FC10BD62
:1015B00010B50446FFF74DFCA220FFF731FC204692
:1015C000FFF72EFCFFF74AFC10BD10B50446FFF7ED
:1015D00040FCB120FFF724FC0020FFF721FC201283
:1015E000FFF71EFCE0B2FFF71BFCFFF737FC10BD56
:1015F00010B5FFF72EFCB120FFF712FC0120FFF71A
:101600000FFCFFF72BFC10BD70B504460D461646C7
:10161000FFF71FFCB120FFF703FC1020FFF700FCD1
:101620002012FFF7FDFBE0B2FFF7FAFB2812FFF7ED
:10163000F7FBE8B2FFF7F4FB3046FFF7F1FBFFF7EB
:101640000DFC70BD70B504460D46FFF702FCB120DD
:10165000FFF7E6FB1120FFF7E3FB2012FFF7E0FBAB
:10166000E0B2FFF7DDFB2812FFF7DAFBE8B2FFF785
:10167000D7FBFFF7F3FB70BD70B505460E46144669
:10168000FFF7E7FBB120FFF7CBFB1020FFF7C8FB0C
:101690002812FFF7C5FBE8B2FFF7C2FB3012FFF7D5
:1016A000BFFBF0B2FFF7BCFB00BF2078FFF7B8FB31
:1016B00014F8011B0029F8D1FFF7D0FB70BD70B5FD
:1016C00004460D46FFF7C5FBB120FFF7A9FB11202B
:1016D000FFF7A6FB2012FFF7A3FBE0B2FFF7A0FB8A
:1016E0002812FFF79DFBE8B2FFF79AFBFFF7B6FB66
:1016F00070BD70B504460D461646FFF7AAFBB12033
:10170000FFF78EFB0220FFF78BFB2012FFF788FB11
:10171000E0B2FFF785FB2812FFF782FBE8B2FFF784
:101720007FFB3046FFF77CFBFFF798FB70BD70B581
:1017300005460E461446FFF78CFBB120FFF770FB01
:101740001020FFF76DFB2812FFF76AFBE8B2FFF7E6
:1017500067FB3012FFF764FBF0B2FFF761FB200E6E
:10176000FFF75EFBC4F30740FFF75AFBC4F3072003
:10177000FFF756FBE0B2FFF753FBFFF76FFB70BDBF
:1017800070B504460D46FFF764FBB120FFF748FB38
:101790001120FFF745FB2012FFF742FBE0B2FFF7F5
:1017A0003FFB2812FFF73CFBE8B2FFF739FBFFF7DE
:1017B00055FB70BD70B505460E461446FFF749FB54
:1017C000B120FFF72DFB1020FFF72AFB2812FFF7AF
:1017D00027FBE8B2FFF724FB3012FFF721FBF0B242
:1017E000FFF71EFB200EFFF71BFBC4F30740FFF7BC
:1017F00017FBC4F30720FFF713FBE0B2FFF710FB62
:10180000FFF72CFB70BD70B504460D46FFF721FBBA
:10181000B120FFF705FB1120FFF702FB2012FFF7B5
:10182000FFFAE0B2FFF7FCFA2812FFF7F9FAE8B284
:10183000FFF7F6FAFFF712FB70BD70B505460E46CE
:101840001446FFF706FBB120FFF7EAFA1020FFF776
:10185000E7FA2812FFF7E4FAE8B2FFF7E1FA3012EC
:10186000FFF7DEFAF0B2FFF7DBFA200EFFF7D8FA47
:10187000C4F30740FFF7D4FAC4F30720FFF7D0FA08
:10188000E0B2FFF7CDFAFFF7E9FA70BD70B5044694
:101890000D46FFF7DEFAB120FFF7C2FA1120FFF77D
:1018A000BFFA2012FFF7BCFAE0B2FFF7B9FA28122C
:1018B000FFF7B6FAE8B2FFF7B3FAFFF7CFFA70BD59
:1018C00070B506460C461546FFF7C3FAB120FFF780
:1018D000A7FA3046FFF7A4FA2012FFF7A1FAE0B208
:1018E000FFF79EFA2812FFF79BFAE8B2FFF798FA83
:1018F000FFF7B4FA70BD70B504460D461646FFF703
:10190000A8FAB120FFF78CFA2320FFF789FA2012FA
:10191000FFF786FAE0B2FFF783FA2812FFF780FAA2
:10192000E8B2FFF77DFA3046FFF77AFAFFF796FA4A
:1019300070BD2DE9F04104460D4617461E46FFF7DF
:1019400088FAB120FFF76CFA3020FFF769FA20120D
:10195000FFF766FAE0B2FFF763FA2812FFF760FAC2
:10196000E8B2FFF75DFA3846FFF75AFA3012FFF790
:1019700057FAF0B2FFF754FAFFF770FABDE8F081BA
:1019800070B504460D461646FFF763FAB120FFF71F
:1019900047FA3120FFF744FA2012FFF741FAE0B28C
:1019A000FFF73EFA2812FFF73BFAE8B2FFF738FAE2
:1019B0003046FFF735FAFFF751FA70BD2DE9F041D7
:1019C00004460D4617461E46DDF81880FFF741FA1B
:1019D000B120FFF725FA3220FFF722FA2012FFF795
:1019E0001FFAE0B2FFF71CFA2812FFF719FAE8B263
:1019F000FFF716FA3846FFF713FA3012FFF710FA1E
:101A0000F0B2FFF70DFA4046FFF70AFAFFF726FAA1
:101A1000BDE8F08170B504460D461646FFF719FA89
:101A2000B120FFF7FDF93320FFF7FAF92012FFF795
:101A3000F7F9E0B2FFF7F4F92812FFF7F1F9E8B28D
:101A4000FFF7EEF93046FFF7EBF9FFF707FA70BD45
:101A50002DE9F04704460D4616461F46DDE9088984
:101A6000FFF7F7F9B120FFF7DBF93420FFF7D8F9DA
:101A70002012FFF7D5F9E0B2FFF7D2F92812FFF7ED
:101A8000CFF9E8B2FFF7CCF93012FFF7C9F9F0B29D
:101A9000FFF7C6F93812FFF7C3F9F8B2FFF7C0F93C
:101AA0004FEA2820FFF7BCF908F0FF00FFF7B8F96C
:101AB0004FEA2920FFF7B4F909F0FF00FFF7B0F96A
:101AC000FFF7CCF9BDE8F0872DE9F04100240025AF
:101AD00000260027A0466B488179407941EA00251D
:101AE0006848017AC07941EA00266649887A00F0A0
:101AF000F5F80446BDE8F0812DE9F0410024002509
:101B0000002700265F488179407941EA00245D483A
:101B1000017AC07941EA00255A4800880E2864D12C
:101B20005848877AC67A012F65D1BCB9052D15D1E1
:101B3000012E13D154A201210020FFF79DFD55A2D3
:101B400003210020FFF798FD54A206210020FFF793
:101B500093FD54A207210020FFF78EFDB4B9052D97
:101B600014D19EB94AA201210020FFF785FD48A2A9
:101B700003210020FFF780FD45A206210020FFF78A
:101B80007BFD43A207210020FFF776FDACB90A2DAB
:101B900013D146A201210020FFF76EFD46A20321CA
:101BA0000020FFF769FD46A206210020FFF764FD33
:101BB00045A207210020FFF75FFDACB90B2D1AD11C
:101BC00043A201210020FFF757FD31A2032100208D
:101BD000FFF752FD2EA206210020FFF74DFD2CA29B
:101BE00007210020FFF748FD05E0264800880D2862
:101BF00001D12448867ABDE8F08110B503E011F8E0
:101C0000013B00F8013B1300A2F10102F7D110BD26
:101C100070B5002500246A222F491A48FFF7EDFF0E
:101C200000202D490880A1F86800A1F86600154839
:101C3000B0F86600012817D108468078EE2813D145
:101C400010480179C07841EA00250E48447AA5F58C
:101C50003140113808D1102C02D1FFF74DFF03E0BD
:101C6000112C01D1FFF730FF00200649A1F86600D2
:101C700070BD10B5002302E020F8021B5B1C9342EC
:101C8000FAD310BDCA000020CFB5CDB3C9E8D6C382
:101C900000000000CFEEC4BF41000000CFEEC4BF83
:101CA00042000000CFEEC4BF43000000BEAFB1A8A9
:101CB000CAC2BCFE00000000CAC2BCFE3100000067
:101CC000CAC2BCFE32000000CAC2BCFE3300000023
:101CD000D6F7BDE7C3E6000060000020962300228F
:101CE000114600F009B80029A8BF7047401C490000
:101CF00008BF20F00100704710B4B0FA80FC00FA71
:101D00000CF050EA010404BF10BC704749B1CCF19B
:101D1000200421FA04F411FA0CF118BF0121214327
:101D20000843A3EB0C01CB1D4FEA00614FEA1020E2
:101D300048BF0020BCBF10BC704700EBC35010442C
:101D40000029A4BF10BC7047401C490008BF20F008
:101D5000010010BC70470000064C074D06E0E0682B
:101D600040F0010394E8070098471034AC42F6D3E2
:101D7000FEF7E2F9182A0008382A000810B50120F9
:101D800000F022FBBDE81040002000F01DBB000069
:101D900002490844B0F8000C7047000000600040A1
:101DA000024A1044A0F8001C704700000060004088
:101DB00001490860704700001404014004480021F4
:101DC000016041608160C16002494161704700006B
:101DD00000040140FFFF0700054B01461A68002080
:101DE0005B690A400B4202D0002A00D001207047F4
:101DF0000004014010B5837920490268A3B3D1F8EB
:101E000000349343C1F80034D1F8042403689A43A2
:101E1000C1F80424027904680A44D2F80034234348
:101E2000C2F80034D1F8082403689A43C1F80824A2
:101E3000D1F80C2403689A43C1F80C244279102A83
:101E40000AD101F581610A6803681A430A604A6889
:101E5000006802434A6010BD1144D1F800240068B4
:101E60000243C1F8002410BDFFE700790844D0F810
:101E700000149143C0F80014F5E700000000014091
:101E80000149C860704700000020024070B5054657
:101E900040F6FF76304600F097F8042813D10A4C3C
:101EA000206940F0020020616561206940F0400037
:101EB0002061304600F088F8012804D0216941F6FD
:101EC000FD721140216170BD0020024008490420CC
:101ED000CA68D20701D001207047CA68520701D5ED
:101EE00002207047C968C906FBD50320704700006F
:101EF000002002400248016941F080010161704701
:101F00000020024004490A6822F010020A600A68B0
:101F100002430A60704700000020024070B5064688
:101F20000D460F2000F050F804280FD1084C20690E
:101F300040F00100206135800F2000F045F80128B5
:101F400004D0216941F6FE721140216170BD00008C
:101F500000200240F0B505460E460F2000F034F890
:101F6000042816D10B4C206940F0010020612E801E
:101F70000F2000F029F841F6FE77042804D1300C38
:101F800068800F2000F020F8012802D02169394034
:101F90002161F0BD0020024004490A6802F03802C5
:101FA0000A600A6802430A6070470000002002408D
:101FB0000348024941600349416070472301674576
:101FC00000200240AB89EFCD00B50346FFF77EFF4E
:101FD00005E0FF20401EFDD1FFF778FF5B1E0128C2
:101FE00002D1002BF5D101E0002B00D1052000BD6E
:101FF0004FF0204202EB80000029016802D041F03E
:10200000010101E0014A114001607047FEFF0F002D
:10201000F0B5D0E9023241681943D0E904432243C4
:1020200011431943D0E9062311431943D0E908238A
:1020300011431943D0E90A2311431943026B036882
:1020400011434FF0204242F823108168082906D13D
:10205000016802EB81010B6843F040030B60416BA8
:10206000D1E90134D1E903560F68240247EA03138A
:1020700044EA05442343D1E9057443EA065343EA9D
:1020800007610368214302EB83035960816AB1F55C
:10209000804F14D1816B0068D1E90134D1E9035636
:1020A0000F68240247EA031344EA05442343D1E9B5
:1020B000057443EA065343EA0761214302E00068DE
:1020C0006FF0704102EB8000C0F80411F0BD000019
:1020D00010B58A0721F003040649120F21440F238B
:1020E0008C6893409C438C608B68904003438B606A
:1020F00010BD000000000140F0B5CB780022DC06E6
:1021000003F00F0301D58C7823430C880F2714F0BC
:10211000FF0F4FF0010C1CD0D0F800500E880CFAC5
:1021200002F42640A64210D1960007FA06FE25EAE0
:102130000E0E03FA06F5CE7845EA0E05282E00D1DC
:102140004461CE78482E00D10461521C082AE5D3A0
:1021500005600A88FF2A1ED94568002202F1080698
:102160000CFA06F40E882640A64210D1960007FA13
:1021700006FE25EA0E0E03FA06F5CE7845EA0E05B0
:10218000282E00D14461CE78482E00D10461521C23
:10219000082AE3D34560F0BD01617047002901883A
:1021A00002D041F4806101E021F480610180704738
:1021B0000029018802D041F0010101E021F0010174
:1021C000018070470A4910B540180DD0B0F5806FF6
:1021D0000DD101218C05204600F0D2F82046BDE843
:1021E0001040002100F0CCB801214C05F3E710BDF0
:1021F00000ACFFBF70B50446808886B00D4620F065
:102200003F0601A800F012F925490398B0FBF1F14F
:1022100089B20E43A680228822F001022280214B3F
:10222000EA689A421CD85200B0FBF2F080B204284F
:1022300000D20420491C2184A083208840F00100A2
:10224000208020884FF6F53108402988EA8811431C
:10225000014321802889A9880843208106B070BDE8
:102260006B88A3F53F46FF3E05D102EB4202B0FB6F
:10227000F2F080B206E019235A43B0FBF2F080B2CC
:1022800040F48040020501D140F001004FF4967205
:1022900051434FF47A72B1FBF2F140F40040C9E7C8
:1022A00040420F00A0860100F0B50F23C2780178EC
:1022B0004FF0E024012742B3D4F80C2D467802F405
:1022C000E062C2F5E062120AC2F10405D3408278EE
:1022D000AE401A40324315018A07D20E954021F0D4
:1022E00003010B19D3F80064FF2191408E430D4088
:1022F0002E43C3F800640078410900F01F0004EB8E
:1023000081018740C1F80071F0BD01F01F008740D6
:10231000480904EB8000C0F88071F0BD0249084311
:1023200002490860704700000000FA050CED00E06B
:10233000024A1140014302480160704780FFFF1FBD
:1023400008ED00E0014908627047000000000E42FD
:10235000044A0029516901D0014300E081435161E1
:102360007047000000100240044A0029D16901D0E2
:10237000014300E08143D16170470000001002403A
:10238000044A0029116901D0014300E08143116131
:102390007047000000100240044A0029916901D0F2
:1023A000014300E08143916170470000001002404A
:1023B000044A0029D16801D0014300E08143D16083
:1023C000704700000010024001490860704700009B
:1023D000400442420248416A41F0807141627047C4
:1023E000001002400149887270470000001002404E
:1023F0000B48016841F0010101604168094A114040
:1024000041600168084A11400160016821F480219F
:1024100001604268002122F4FE0242608160704740
:10242000001002400000FFF8FFFFF6FE30B5204A22
:102430005168204B11F00C0103D0042901D0082968
:1024400001D0036011E05168022401F4701104EB23
:1024500091415468184D14F4803F02D05468A4038D
:1024600001D5694300E0594301605168134B01F005
:10247000F00109095C5C0168E1404160546804F4C2
:10248000E064240A1C5D21FA04F48460546804F4B6
:102490006054E40A1B5DD940C1605268074B02F4E6
:1024A0004042920B1B1F9A5CB1FBF2F1016130BDFF
:1024B0000010024000127A0000093D00062A0008C0
:1024C000034600205909094A012901D1116804E095
:1024D000022901D1116A00E0516A03F01F020123B1
:1024E00093400B4200D001207047000000100240D2
:1024F0000349024689680020114200D0012070473C
:10250000001002400248406800F00C0070470000D4
:1025100000100240034A516821F0F001014351606C
:1025200070470000001002400B490A6822F4803214
:102530000A600A68B0F5803F22F480220A6007D062
:10254000B0F5802F03D1086840F4A02008607047E0
:10255000086840F48030F9E700100240044A00297E
:10256000517A01D0014300E081435172704700006D
:1025700000100240064900220A7001F820290128B3
:1025800002D0042802D1052081F820007047000005
:1025900020100240034A516821F4E0610143516078
:1025A0007047000000100240034A516821F4605156
:1025B00041EAC000506070470010024001490866BF
:1025C0007047000000004242034B5A68084322F45F
:1025D0007C121043586070470010024001490860A7
:1025E000704700003C04424202490A6A02430A6200
:1025F0007047000000100240034A516821F00301B7
:1026000001435160704700000010024030B50B4C90
:1026100040F2FF153120FFF753FF20706068401C27
:102620006060207810B96068A842F3D13120FFF7CC
:1026300047FF002800D0012030BD00002C00002002
:10264000024A11888143118070470000042800402D
:102650000248018841F010010180704704280040C1
:102660000248018821F010010180704704280040D1
:1026700002498888098840EA0140704718280040CC
:10268000054A918812880140C9B2024202D009B1BC
:10269000012070470020704700280040054A0029AB
:1026A000B2F8001801D0014300E08143A2F80018FD
:1026B000704700000020004000B50246FFF7C8FF49
:1026C0000348110C018082805DF804EBFFF7C8BF5E
:1026D0001828004000B50246FFF7BAFF0448C2F3CD
:1026E0000341018082805DF804EBFFF7B9BF000071
:1026F00008280040034800BFB0F804188906FBD53D
:1027000070470000002000400648B0F8041821F08F
:102710000801A0F8041800BFB0F804180907FBD599
:1027200070470000002000400029018802D041F0DD
:10273000800102E040F27F32114001807047C943BE
:1027400001827047C943018270470029018802D085
:1027500041F0010102E040F2FE3211400180704779
:102760002A4A10B5811A1315D41490423BD010DCBC
:10277000B0F1804F22D02649401826D098422BD065
:10278000A04241D101210820FFF7FAFD00210820D5
:1027900036E099422ED0B1F58E3F0DD0B1F5923F83
:1027A00032D101214C032046FFF702FE2046BDE84E
:1027B00010400021FFF7FCBD0121F4E7012108468C
:1027C000FFF7DEFD002101201AE001210220FFF7C2
:1027D000D7FD0021022013E001210420FFF7D0FDE6
:1027E000002104200CE001211020FFF7C9FD002189
:1027F000102005E001212020FFF7C2FD002120204C
:10280000BDE81040FFF7BCBD10BD00000010004047
:1028100000FCFFBF0246138A002092890B4202EAA5
:10282000010202D0002A00D001207047002A8289CC
:1028300001D00A4300E08A4382817047018921F078
:10284000070101817047000010B5028802F08F0275
:102850000280CA884B8804881A43224302808A88EF
:10286000064C012382850A88A0420285838202D019
:10287000034A904201D1097A018610BD002C014023
:10288000003401400A0A01219140C9430180704788
:1028900030B5028A4FF2FF031A400B884D888C88AE
:1028A000C9882B430C4323431343038230BD0029C3
:1028B000818902D041F4005101E021F4005181816D
:1028C00070470246128800200A4200D0012070475B
:1028D00070B501F01F0501260024C1F3421306FA6A
:1028E00005F2012B01D1838904E0022B01D1038A77
:1028F00000E0838A4FEA11210088134206FA01F6AC
:1029000000EA060001D000B10124204670BD10B5D8
:10291000C1F3421301F01F040121A140012B01D199
:102920000C3004E0022B01D1103000E01430002AFA
:10293000026801D00A4300E08A43026010BD000033
:1029400030B50446008A85B00D464CF6FF7108404C
:10295000E98801432182A0894EF6F3110840A98835
:102960002A8911436A8902431143A181A08A4FF643
:10297000FF410840A9890143A1826846FFF756FD3F
:102980001048844201D1039800E00298192148437D
:10299000296864228900B0FBF1F0B0FBF2F1090173
:1029A0000B096FF018056B43322500EB830005EB34
:1029B0000010B0FBF2F000F00F000843208105B0DA
:1029C00030BD0000003801408088C0F30800704727
:1029D000C1F308018180704702E008C8121F08C1D6
:1029E000002AFAD170477047002001E001C1121F90
:1029F000002AFBD170471F1C1F1E1F1E1F1E1F1EFB
:102A00001F1E020406080000000001020304010268
:102A10000304060708090000382A00080000002007
:102A200034000000D82900086C2A00083400002077
:102A300004050000E8290008000000000000000074
:102A40000000000000000000000000000000000086
:102A50000000000000000000000000000000000076
:0C2A600004000000000000000000000066
:0400000508000145A9
:00000001FF
