:020000040800F2
:10000000080C002045010008CD6F0008F76F0008BC
:10001000FB6F0008FF6F000803700008000000007D
:10002000000000000000000000000000097000084F
:1000300007700008000000000B7000080D70000839
:100040000F70000811700008137000081570000888
:1000500031700008337000086F700008717000087C
:1000600073700008757000087770000879700008D8
:100070007B7000087D7000087F70000881700008A8
:100080008370000885700008877000088970000878
:100090008B7000088D7000088F7000089170000848
:1000A0009370000895700008977000089970000818
:1000B0009B700008397100081D7200081F7200084B
:1000C00021720008237200082572000827720008B8
:1000D000297200082B7200082D720008F7720008C0
:1000E000F9720008FB720008FD720008FF72000838
:1000F0000173000803730008057300080773000804
:10010000097300080B7300080D7300080F730008D3
:1001100011730008137300081573000817730008A3
:10012000197300081B7300081D7300081F73000873
:10013000DFF80CD009F094F9004800477F0500086B
:10014000080C0020004800473101000870B598B045
:1001500007F086FFFF48007801284BD1FE49087858
:1001600010A901F0D5FBFC4948780CA901F032F840
:10017000F949887808A901F02DF8F8A110A809F02C
:1001800042F906460CA909F03EF90546F3A109F02B
:100190003AF9044608A909F036F9EF49C87804A9E4
:1001A00001F018F8EC490879694601F013F8EA49BA
:1001B000487914A901F00EF8E9A104A809F023F97F
:1001C0000646694609F01FF90546E5A109F01BF945
:1001D000044614A909F017F910AA0321012008F018
:1001E00078FE04AA1E21012008F073FE0020D949E0
:1001F000087050E0D848407948BBD748007930BBF8
:10020000D548C07818BBD449087810A901F080FB04
:10021000D14948780CA900F0DDFFCF49887808A9BA
:1002200000F0D8FFCDA110A809F0EDF806460CA902
:1002300009F0E9F80546C9A109F0E5F8044608A95E
:1002400009F0E1F810AA0321012008F042FEC2499A
:10025000C87804A900F0BEFFBF490879694600F0DC
:10026000B9FFBD49487914A900F0B4FFBCA104A8A6
:1002700009F0C9F80646694609F0C5F80546B8A16F
:1002800009F0C1F8044614A909F0BDF804AA1E211A
:10029000012008F01EFE18B070BD002106E0782194
:1002A00000BF0A00A1F1010399B2FAD10200A0F146
:1002B000010398B2F3D1704708B500214FF00060F8
:1002C00009F040FA4FF4A06009F032FA26208DF8C8
:1002D000000003208DF8010000208DF802000120AD
:1002E0008DF80300684609F0E8F91C208DF800003D
:1002F00000208DF801008DF8020001208DF8030028
:10030000684609F0DAF91D208DF8000001208DF80B
:10031000010000208DF8020001208DF803006846DE
:1003200009F0CBF903208DF8000002208DF80100C0
:1003300000208DF8020001208DF80300684609F0C6
:10034000BCF908BD70470EB5864809F0F5FB854835
:1003500009F060FCC820ADF8040048F69F40ADF8F5
:1003600000000020ADF80600ADF8020069467D48A7
:1003700009F056FC01217B4809F0CDFB00217948AA
:1003800009F0BEFB01224121764809F03BFC002127
:10039000744809F0C6FB0EBD0EB54FF0804009F061
:1003A000CBFB4FF0804009F035FC4FF47A70ADF88C
:1003B000040048F69F40ADF800000020ADF80600AC
:1003C000ADF8020069464FF0804009F029FC012198
:1003D000880709F0A0FB00214FF0804009F090FB56
:1003E00001224121880709F00DFC00214FF08040D7
:1003F00009F097FB0EBD00B587B00020ADF80400F2
:10040000ADF806004FF40070ADF808000020ADF81C
:100410000A0001A9544809F027FC4FF4E130039089
:100420000020ADF81000ADF81200ADF81400ADF8E2
:1004300018000C20ADF8160003A94B4809F06CFC1D
:10044000012240F22551484809F04DFC012146485F
:1004500009F019FC07B000BD08B54FF4A060ADF875
:10046000000010208DF8030003208DF8020069467B
:100470003E4809F0C7F80420ADF8000018208DF8B8
:10048000030003208DF802006946394809F0BAF8E4
:100490000820ADF8000003208DF8020004208DF83C
:1004A00003006946324809F0ADF82020ADF800009D
:1004B00004208DF8030003208DF8020069462D48C2
:1004C00009F0A0F808BD10B509F094F94FF4803098
:1004D00009F02CFA09F09CFA0446012C24D10020E2
:1004E00009F01AFA002009F061FAA00209F054FAA2
:1004F000022009F00BF8102008F0FCFF4FF4E01187
:10050000200409F063FA012009F05AFA00BF3920EB
:1005100009F0D8F90028FAD0022009F06FFA00BFDC
:1005200009F0F2F90828FBD1012140F2ED1009F0A1
:100530003DF90121480409F021F90121080209F0DF
:1005400011F90121032009F019F901214FF0C050E0
:1005500012E00000B7000020B90000202E000000CB
:100560003A0000000004004000440040001C01402C
:10057000000801400020014009F000F910BD40F2E0
:100580002551384809F06AFBFFF79DFFFFF764FF2C
:1005900006F0EEFE06F06CFFFFF72DFFFFF7FCFE06
:1005A000FFF7D1FEFFF7CEFEFFF786FE07F08AF9D0
:1005B00007F092FA07F090FC4FF6FF70FFF76DFE20
:1005C000012008F02FFC05F0A6FE3021002007F0E6
:1005D00041FB05F0B5FE05F0F2FE2CE02248007864
:1005E000012804D106F08DFA00201F4908701F4829
:1005F0000078012818D1FFF7A9FD00201B490870D9
:100600001B48007880B91B480078401C19490870C5
:1006100008460078032807D10020174908701549BB
:1006200008700120124908701448B0F866000128CB
:1006300001D105F03FFED1E770B504460D46E1B2A9
:10064000084809F0B1FB00BF4021064809F025FB2E
:100650000028F9D0204670BD00BF0100A0F10100C4
:10066000FBD17047004400408C000020B600002001
:100670008D0000208E000020B400002030070020F4
:1006800010B5002809DB092807DC30220A704A70FF
:1006900000F130028A700022CA700A2811DB632838
:1006A0000FDC30220A700A2290FBF2F230324A70DC
:1006B0000A2290FBF2F302FB130230328A7000220E
:1006C000CA7064281ADBB0F57A7F17DA642290FBCF
:1006D000F2F230320A700A2290FBF2F20A2392FB05
:1006E000F3F403FB142230324A700A2290FBF2F337
:1006F00002FB130230328A700022CA7010BD2DE94D
:10070000F04FA1B00026002700200E900D904FF072
:10071000080A804683460C9081460B900A90099007
:100720000025FF488179407941EA0026FC48017A9A
:10073000C07941EA002700BFF948801C10F80A0080
:1007400014A901F808000AF1010000F0FF0A08F1FD
:10075000010000F0FF08F2480088401F5045EBDC24
:10076000002001F80800012E7ED1202FFCD1ED4899
:1007700000680028F8D1202007F03AFBEA49087009
:100780005820FFF78AFDE848027810210FA807F0EB
:1007900074FB00200FA9E44A12788854E3490978D1
:1007A000C1F1030008F0F9FAE148007810B101281E
:1007B0007DD19BE014A90FA808F03BFE002867D16B
:1007C0004FF6FF7007F063FF40F21F1340F2DF1295
:1007D000E521B52008F0E1F94FF4B4734FF4FA7253
:1007E0004FF49671C82008F0D8F9002007F04FFFA9
:1007F000D0480078C0EB0010CF4901EB4010D0F892
:1008000054310093062300224FF49671C82007F05C
:10081000C5FFC8480078C0EB0010C74901EB401085
:10082000D0F85831009305230022F021C82007F0AA
:10083000B5FFC248007880B9BE480078C0EB001010
:10084000BD4901EB4010D0F85C3100930523002234
:100850004FF48771C82007F0A1FFB848007801283D
:1008600012D1B448007800E0BBE0C0EB0010B24900
:1008700001EB4010D0F860310093052300224FF4C3
:100880008771C82007F08AFF0120A94908702CE071
:100890004FF6FF7007F0FBFE40F21F1340F2DF122D
:1008A000E521B52008F079F94FF4B47300E088E051
:1008B0004FF4FA724FF49671C82008F06EF90020D8
:1008C00007F0E5FE9B480078C0EB00109A4901EB69
:1008D0004010D0F86431009306230022E621C8209E
:1008E00007F05CFF0020924908706BE09DF8510012
:1008F000002865D14FF6FF7007F0C9FE40F21F13C4
:1009000040F2DF12E521B52008F047F94FF4B47347
:100910004FF4FA724FF49671C82008F03EF948235C
:1009200040F26B22002140F2F51008F036F9002069
:1009300007F0ADFE8148007810B101283BD11DE0E1
:100940007C480078C0EB00107B4901EB4010D0F8E8
:100950006831009306230022E621C82007F01EFF1D
:1009600000231A460C2140F2162007F09CFF0120BC
:10097000724908700420724908701DE06D480078C3
:10098000C0EB00106C4901EB4010D0F86C310093C3
:1009900006230022E621C82007F000FF00230122E1
:1009A0000C2140F2162007F07EFF002063490870FA
:1009B0006349087000E000BF00BF00205C49087078
:1009C00000E000BF00BF59490978C1F1030008F0F9
:1009D000F1F956490978C1F103005449097808F042
:1009E000F6F9012E7ED1202F7CD14E4800683D289B
:1009F00078D19DF851109DF85000303800EB800000
:100A000001EB40003038C0B209909DF854109DF8B9
:100A10005300303800EB800001EB4000303800F02C
:100A2000FF0B9DF857109DF85600303800EB800002
:100A300001EB40003038C0B20C909DF850002E28D9
:100A400055D09DF851002E2851D09DF852002E28E7
:100A50004DD19DF853002E2849D09DF854002E28E2
:100A600045D09DF855002E2841D19DF856002E28DE
:100A70003DD09DF857002E2839D09DF8580090BBE6
:100A80000998002833DBB9F1640F30DABBF1000FAD
:100A90002DDDBBF10D0F2ADA0C98002827DD0C980C
:100AA000202824DA59460C9A099807F041FA0120C7
:100AB00024490870FFF74AFB4FF6FF7007F0E7FD87
:100AC00040F21F1340F2DF12E521B52008F065F86F
:100AD000002007F0DCFD14AB009309230022E6217F
:100AE000C82001E037E002E007F058FE33E04FF69F
:100AF000FF7007F0CCFD40F21F1340F2DF12E5213A
:100B0000B52008F04AF8002007F0C1FD0948007838
:100B1000C0EB0010084901EB4010D0F8703113E031
:100B20009A070020200000201C0000201D0000204B
:100B300018000020C0000020C40000201B0000207E
:100B400019000020B7000020009306230022E621B0
:100B5000C82007F023FE012E7ED1202F7CD1FF4834
:100B600000683E2878D19DF851109DF8500030382B
:100B700000EB800001EB4000303800F0FF099DF8E9
:100B800054109DF85300303800EB800001EB40001A
:100B90003038C0B20B909DF857109DF85600303891
:100BA00000EB800001EB40003038C0B20A909DF8A5
:100BB00050002E2857D09DF851002E2853D09DF874
:100BC00052002E284FD19DF853002E284BD09DF86F
:100BD00054002E2847D09DF855002E2843D19DF86B
:100BE00056002E283FD09DF857002E283BD09DF868
:100BF000580090BBB9F1000F35DBB9F1180F32DAAC
:100C00000B9800282FDB0B983C282CDA0A98002838
:100C100029DB0A983C2826DA3A208DF852008DF814
:100C200055004846DDE90A2107F0CEF9FFF78EFAB4
:100C30004FF6FF7007F02BFD40F21F1340F2DF125A
:100C4000E521B52007F0A9FF002007F020FD14AB37
:100C500000930923002201E024E004E0E621C820FB
:100C600007F09CFD1EE04FF6FF7007F010FD40F20C
:100C70001F1340F2DF12E521B52007F08EFF0020A0
:100C800007F005FDB6480078C0EB0010B54901EB50
:100C90004010D0F87031009306230022E621C820CE
:100CA00007F07CFD012E74D1202FFCD1AB480068E9
:100CB0003F28F8D1AC48007820B101286AD002283A
:100CC00069D1EBE0202007F093F8A849087058207C
:100CD000FFF7E3FAA548027810210FA807F0CDF836
:100CE00000210FA8A14A1278815414A908F0A1FB91
:100CF000F0BB4FF6FF7007F0CAFC40F21F1340F242
:100D0000DF12E521B52007F048FF4FF4B4734FF42C
:100D1000FA724FF49671C82007F03FFF002007F0E9
:100D2000B6FC8F480078C0EB00108E4901EB4010F4
:100D3000D0F854310093062300224FF49671C82056
:100D400007F02CFD86480078C0EB0010854901EBC8
:100D50004010D0F85831009305230022F021C8201C
:100D600007F01CFD7E480078C0EB00107D4900E0D4
:100D700012E001EB4010D0F87431009305230022FB
:100D80004FF48771C82007F009FD012076490870EB
:100D90002DE0CDE02CE0C9E04FF6FF7007F077FCC6
:100DA00040F21F1340F2DF12E521B52007F0F5FEF7
:100DB0004FF4B4734FF4FA724FF49671C82007F0F1
:100DC000ECFE002007F063FC65480078C0EB0010E3
:100DD000644901EB4010D0F86431009306230022EF
:100DE000E621C82007F0DAFC00205F4908709EE089
:100DF00014215F4808F0FBFA14A95D4808F027FBAE
:100E00004FF6FF7007F043FC40F21F1340F2DF1271
:100E1000E521B52007F0C1FE4FF4B4734FF4FA7228
:100E20004FF49671C82007F0B8FE002007F02FFCA1
:100E30004B480078C0EB00104A4901EB4010D0F855
:100E400078310093062300224FF49671C82007F0F2
:100E5000A5FC43480078C0EB0010424901EB40106C
:100E6000D0F85831009305230022F021C82007F064
:100E700095FC3B480078C0EB00103A4901EB40106C
:100E8000D0F87C310093052300224FF48771C820ED
:100E900007F084FC02203449087048E09DF85000B7
:100EA000E8BB334808F0BDFA3049087020212F48CC
:100EB000007806F083FF5820FFF7EFF92B480278FF
:100EC00010212B4806F0B5FF4FF6FF7007F0DFFB4F
:100ED00040F21F1340F2DF12E521B52007F05DFE5E
:100EE0004FF4B4734FF4FA724FF49671C82007F0C0
:100EF00054FE002007F0CBFB19480078C0EB00102F
:100F0000184901EB4010D0F88031009306230022ED
:100F1000E621C82007F042FC1421154800E004E057
:100F200008F065FA00201049087000E000BF00BF1B
:100F3000012E7ED1202FFCD108480068B0F5FA7F41
:100F400077DB06480068B0F5FC7F72DC00240020E7
:100F500003900290CDF80C800CE0000020000020EF
:100F6000C0000020C40000201A0000201C00002047
:100F70008C0400209DF8500008B900252CE00024C6
:100F800028E00398401EC0B203900398029014A872
:100F9000005D303814A9085514A8005D04A921F893
:100FA00014000DE004A830F8140000EB80004004A9
:100FB000000C04A921F814000298401EC0B202904F
:100FC00002980028EEDC04A830F81400284485B20A
:100FD000601CC4B24445D4DB4FF6FF7007F057FBEA
:100FE00040F21F1340F2DF12E521B52007F0D5FDD6
:100FF000002007F04CFBFD480068A0F5FA700528BA
:1010000076D2DFE800F0031A2F475F00F84805802A
:10101000F8490088FFF734FBF64B009309230022C0
:10102000E6214FF48C7007F0B9FB0221F0480088EC
:1010300000E060E006F00EFE5BE0EF480580ED4961
:101040000088FFF71DFBEB4B009309230022E621EC
:101050004FF48C7007F0A2FB0421E748008806F0EB
:10106000F9FD46E0E5480580E2490088FFF708FB06
:10107000E04B009309230022E6214FF48C7007F027
:101080008DFBDE49098801EB81014800062106F04D
:10109000E1FD2EE0DA480580D6490088FFF7F0FA36
:1010A000D44B009309230022E6214FF48C7007F003
:1010B00075FBD349098801EB81014800082106F03E
:1010C000C9FD16E0CF480580CA490088FFF7D8FA65
:1010D000C84B009309230022E6214FF48C7007F0DF
:1010E0005DFB0A21C748008806F0B4FD01E0FFE778
:1010F00000BF00BF00BF21B0BDE8F08F10B50028D1
:101100000ADB092808DC30220A704A708A7000F174
:101110003002CA7000220A710A2812DB632810DC30
:1011200030220A704A700A2290FBF2F230328A7042
:101130000A2290FBF2F302FB13023032CA70002243
:101140000A7164281CDBB0F57A7F19DA30220A7044
:10115000642290FBF2F230324A700A2290FBF2F2E3
:101160000A2392FBF3F403FB142230328A700A2222
:1011700090FBF2F302FB13023032CA7000220A71B4
:10118000B0F57A7F25DB42F20F72904221DC4FF4FA
:101190007A7290FBF2F230320A70642290FBF2F223
:1011A0000A2392FBF3F403FB142230324A700A2222
:1011B00090FBF2F292FBF3F403FB142230328A70BC
:1011C0000A2290FBF2F302FB13023032CA700022B3
:1011D0000A7110BD002808DB092806DC30220A70DD
:1011E00000F130024A7000228A700A280FDB63285F
:1011F0000DDC0A2290FBF2F230320A700A2290FBD8
:10120000F2F302FB130230324A7000228A707047F8
:10121000F8B50446002C7EDD204607F0B2F97A4985
:1012200008797A49FFF7D6FF774948797849FFF777
:10123000D1FF754988797749FFF7CCFF7249C879A2
:101240007549FFF7C7FF7049087A7449FFF7C2FF75
:101250006D49487A7249FFF7BDFF72A16E4808F0E8
:10126000D2F807466D4908F0CEF806466DA108F0A1
:10127000CAF805466A4908F0C6F86BA1634808F049
:10128000C2F80746624908F0BEF8064666A108F0B3
:10129000BAF805465F4908F0B6F84FF6FF7007F058
:1012A000F6F94FF4AF7340F262227821012007F083
:1012B00074FC002007F0EBF9574B00930223002247
:1012C0007A210F2007F06AFA504B00930223002284
:1012D00093210F2007F062FA54A300930923002200
:1012E0007321912007F05AFA51A300930923002299
:1012F0007321EB2007F052FA47490020FFF76AFFFD
:1013000046490020FFF766FF45490020FFF762FFCE
:101310003E49002000E067E0FFF75CFF3C49002009
:10132000FFF758FF3B490020FFF754FF3DA13A4823
:1013300008F069F80746394908F065F8064639A10A
:1013400008F061F80546364908F05DF836A12F48E7
:1013500008F059F807462E4908F055F8064632A11C
:1013600008F051F805462B4908F04DF82649488900
:101370003049FFF7C3FE284B0093022300227A2155
:101380004FF4AA7007F00AFA204B009302230022C0
:1013900093214FF4AA7007F001FA264B009309231A
:1013A000002273214FF4EB7007F0F8F9224800781F
:1013B000C0EB0010214901EB401043690093032367
:1013C0000022AF210F2007F0E9F91B480078C0EB9D
:1013D00000101A4901EB4010836B00930223002296
:1013E000CD210F2007F0DAF9F8BD00002000002021
:1013F000A00000200E050020A2000020A400002074
:10140000A6000020A80000200C070020A004002057
:101410003E00002043000020AF04002048000020D0
:10142000390000203A0000002E0000004447000070
:101430003030310066000020C0000020C4000020D1
:10144000F8B50446002C7DDD204607F020F8FF4962
:101450000879FF49FFF7BEFEFC494879FD49FFF7CF
:10146000B9FEFA498879FC49FFF7B4FEF749C87913
:10147000FA49FFF7AFFEF549087AF949FFF7AAFEE6
:10148000F249487AF749FFF7A5FEAFF26801F34841
:1014900007F0B9FF0746F24907F0B5FF0646AFF27D
:1014A0007C0107F0B0FF0546EE4907F0ACFFAFF254
:1014B0008801E74807F0A7FF0746E64907F0A3FFC2
:1014C0000646AFF29C0107F09EFF0546E24907F091
:1014D0009AFF4FF6FF7007F0DAF84FF4A57340F269
:1014E0006222F121012007F058FB002007F0CFF81D
:1014F000DA4B009302230022F2210F2007F04EF96D
:10150000D34B00930223002240F20B110F2007F06F
:1015100045F9AFF2E803009309230022EB21912063
:1015200007F03CF9AFF2F803009309230022EB2106
:10153000084607F033F9204606F0ECFFCA4908795F
:10154000C34900E09DE0FFF745FEC7494879C1491E
:10155000FFF740FEC4498879BF49FFF73BFEC24907
:10156000C879BE49FFF736FEBF49087ABC49FFF784
:1015700031FEBD49487ABB49FFF72CFEAFF25C1142
:10158000B64807F040FF0746B54907F03CFF06465E
:10159000AFF2701107F037FF0546B24907F033FF8D
:1015A000AFF27C11AA4807F02EFF0746A94907F0C1
:1015B0002AFF0646AFF2901107F025FF0546A6491F
:1015C00007F021FFA8494889A849FFF797FDA34BD9
:1015D000009302230022F2214FF4AA7007F0DEF8F4
:1015E0009B4B00930223002240F20B114FF4AA7090
:1015F00007F0D4F89D4B009309230022EB2148000B
:1016000007F0CCF89A480078C0EB0010994901EB3C
:10161000401043690093032300224FF491710F207F
:1016200007F0BCF8894908689349FFF729F8904802
:101630000078C0EB00108F4A02EB4010D0F8481140
:101640008E4807F0E0FE06468B4907F0DCFE0546B3
:1016500087480078C0EB0010864A02EB4010D0F8B3
:10166000C011284607F0CFFE844B009302230022CE
:101670004FF4A0710F2007F091F832217F4807F056
:10168000B6FEF8BDF8B50446002C7EDD204606F017
:10169000FEFE6E4908797A49FFF79CFD6B4948794F
:1016A0007849FFF797FD694988797749FFF792FDF7
:1016B0006649C8797549FFF78DFD6449087A744910
:1016C000FFF788FD6149487A7249FFF783FDAFF261
:1016D000AC216E4807F097FE07466D4907F093FE70
:1016E0000646AFF2C02107F08EFE0546694907F0B5
:1016F0008AFEAFF2CC21624807F085FE07466149B9
:1017000007F081FE0646AFF2E02107F07CFE0546B9
:101710005D4907F078FE4FF6FF7006F0B8FF4FF412
:10172000AF7340F262227821012007F036FA0020E0
:1017300006F0ADFF554B0093022300227A210F20C3
:1017400007F02CF84E4B00930223002293210F2028
:1017500007F024F8AFF22C33009309230022732101
:10176000912007F01BF8AFF23833009309230022D1
:101770007321EB2007F012F8204606F0CBFE3A4921
:1017800008793F49FFF726FD00E0C0E03649487977
:101790003C49FFF71FFD344988793B49FFF71AFDA3
:1017A0003149C8793949FFF715FD2F49087A384979
:1017B000FFF710FD2C49487A3649FFF70BFDAFF2D1
:1017C0009C31324807F01FFE0746314907F01BFEE7
:1017D0000646AFF2B03107F016FE05462D4907F078
:1017E00012FEAFF2BC31264807F00DFE0746254930
:1017F00007F009FE0646AFF2D03107F004FE0546B9
:10180000214907F000FE184948891849FFF776FC7E
:101810001E4B0093022300227A214FF4AA7006F097
:10182000BDFF174B00930223002293214FF4AA70AF
:1018300006F0B4FF0D4B00930923002273214FF4EF
:10184000EB7006F0ABFF0A48007825E0DC060020CC
:10185000BE0400205200002057000020CD040020CC
:101860005C0000204D000020F406002066000020EF
:10187000C0000020C400002061000020DC04002023
:10188000A00400203E00002043000020AF04002000
:101890004800002039000020C0EB0010FF4901EB98
:1018A00040104369009303230022AF210F2006F06C
:1018B00075FFFB490868FB49FEF7E2FEFA4800782D
:1018C000C0EB0010F54A02EB4010D0F84811F74881
:1018D00007F099FD0646F34907F095FD0546F248E5
:1018E0000078C0EB0010ED4A02EB4010D0F8C011B8
:1018F000284607F088FDED4B009302230022CD21FE
:101900000F2006F04BFF3221E84807F070FDF8BDCC
:10191000FEB50246144600200023002C00DA524295
:1019200000BF0A2592FBF5F605FB16253035EDB212
:101930000DF800500A2592FBF5F2401C002AF0DC5D
:10194000002C04DA2D270546401C0DF805700025F3
:101950000DF80050401E04E01DF80050CD545B1CF3
:10196000401E0028F8DA0025CD54FEBDF8B5044627
:10197000002C7EDD204606F03EFECD490879CD499B
:10198000FFF728FCCA494879CB49FFF723FCC8492F
:101990008879CA49FFF71EFCC549C879C849FFF7CD
:1019A00019FCC349087AC749FFF714FCC049487AB3
:1019B000C549FFF70FFCAFF29451C14807F023FD72
:1019C0000746C04907F01FFD0646AFF2A85107F0D1
:1019D0001AFD0546BC4907F016FDAFF2B451B548F3
:1019E00007F011FD0746B44907F00DFD0646AFF2BA
:1019F000C85107F008FD0546B04907F004FD4FF651
:101A0000FF7006F044FE4FF4AF7340F2622278217B
:101A1000012007F0C2F8002006F039FEA84B009321
:101A2000022300227A210F2006F0B8FEA14B00937A
:101A30000223002293210F2006F0B0FEAFF21463C0
:101A40000093092300227321912006F0A7FEAFF234
:101A500020630093092300227321EB2006F09EFEF1
:101A600097490020FFF7B6FB96490020FFF7B2FB2D
:101A700000E072E094490020FFF7ACFB8D490020A4
:101A8000FFF7A8FB8C490020FFF7A4FB8B4900203F
:101A9000FFF7A0FBAFF27461894807F0B4FC07467A
:101AA000884907F0B0FC0646AFF2886107F0ABFC4E
:101AB0000546854907F0A7FCAFF294617D4807F021
:101AC000A2FC07467C4907F09EFC0646AFF2A861DF
:101AD00007F099FC0546794907F095FC7449488957
:101AE0007A49FFF70BFB764B0093022300227A2101
:101AF0004FF4AA7006F052FE6E4B009302230022B0
:101B000093214FF4AA7006F049FE704B009309230D
:101B1000002273214FF4EB7006F040FE624800781B
:101B2000C0EB00105D4901EB4010436900930323B3
:101B30000022AF210F2006F031FE5B480078C0EB99
:101B40000010564901EB4010D0F8BC31009302233D
:101B50000022CD210F2006F021FEF8BD00B58BB08C
:101B600000200A9009900890079006900590049034
:101B700057488179407941EA00200A905448017A17
:101B8000C07941EA00200990514800880E2844F0AD
:101B90007D834F48807A08904D48C07A0790089816
:101BA000012844F07A8300204A4908704A490870A5
:101BB0000A98012807D10998252804D1079810B957
:101BC0000020464908700A98012815D1099825284F
:101BD00012D1079801280FD14049087000204049D0
:101BE00008704048007800F0FE003E4908704FF44D
:101BF0000461039005F0DBFC0A98012804D10998E0
:101C0000052801D1012006903748008800280DDD05
:101C10000A9801280AD10998112807D13348007879
:101C200020B93348007808B9022006900A980128A4
:101C30000BD10998122808D12C48007828B92C48D3
:101C40000078012801D1032006900A9801280AD1C2
:101C50000998182807D12548007820B92448007829
:101C600008B9042006900A9801280ED10998132873
:101C70000BD11E48007840B91E480078002804DDCA
:101C80001B48007808B9052006900A98012804D15D
:101C900009980A2801D1062006902DE0C4000020F2
:101CA000DC06002061000020C0000020DC040020D1
:101CB00024070020A00400203E0000204300002054
:101CC000AF040020480000203900002066000020FA
:101CD0009A070020180000201A000020B3000020FE
:101CE000AC000020B8000020900000201F00002061
:101CF00024000020250000200A9801280ED1099810
:101D000011280BD1FF480078012807D1FE48007840
:101D100020B9FE48008808B1072006900A980128DB
:101D20000CD10998122809D1F6480078012805D16C
:101D3000F5480078012801D1082006900A9801286A
:101D400004D10998102801D1092006900A98012889
:101D500008D10998112805D1EA480078022801D154
:101D60000A2006900A98012802D109980B2810D061
:101D70000A9801280FD10998122802D0099815282D
:101D800009D1E0480078032805D1DF480078012810
:101D900001D10B2006900A98012808D1099818282B
:101DA00005D1D8480078032801D10C2006900A9864
:101DB000012808D10998132805D1D24800780328B2
:101DC00001D10D2006900A98012811D109981128F7
:101DD00002D0099814280BD1CA480078032807D1EB
:101DE000CB48007820B9C848007808B90E20069082
:101DF0000A9801281BD10998112802D009981428A3
:101E000015D1C0480078032811D1C2480068322893
:101E10000DD1BD480078022809D1BD4800780028BE
:101E200005DBBB480078042801DC0F2006900A98E7
:101E3000012814D10998112802D0099814280ED12C
:101E4000B048007803280AD1B2480068052806D1B6
:101E5000AD480078012802D1AD480078B0B10A98A9
:101E6000012815D10998122802D0099815280FD1F8
:101E7000A8480068B0F5FA7F0ADBA6480068B0F50C
:101E8000FC7F05DCA0480078032801D113200690D0
:101E9000A1480078002813DD0A98012810D109987C
:101EA000112802D0099814280AD1964800780328EE
:101EB00006D197480078052802D193480078A0B150
:101EC0000A98012813D10998122802D009981528D8
:101ED0000DD190480068322809DB8E48006835280B
:101EE00005DC89480078022801D1142006908A4830
:101EF0000078002813DD0A98012810D109981128CC
:101F000002D0099814280AD17E480078032806D107
:101F10007F480078062802D17B480078A0B10A9853
:101F2000012813D10998122802D0099815280DD13B
:101F3000784800683C2809DB76480068442805DCBE
:101F400071480078022801D1152006900A980128CE
:101F500016D10998112802D00998142810D169487F
:101F6000007803280CD16B480068062808D1664821
:101F70000078012804D16648007808B92520069029
:101F80000A98012817D10998112802D00998142815
:101F900011D15C48007803280DD15E4800680628FE
:101FA00009D159480078012805D1594800780128FD
:101FB00001D1162006900A98012817D109981128F6
:101FC00002D00998142811D14E48007803280DD169
:101FD00050480068062809D14B480078012805D1EF
:101FE0004B480078022801D1172006900A98012852
:101FF00017D10998112802D00998142811D1414805
:10200000007803280DD143480068062809D13E48CE
:102010000078012805D13E480078032801D1182016
:1020200006900A98012810D10998112802D0099821
:1020300014280AD133480078032806D134480078A0
:10204000012802D130480078A0B10A98012813D1A4
:102050000998122802D0099815280DD12D4800683A
:102060000A2809DB2B4800680C2805DC2648007884
:10207000022801D1192006900A98012816D1099842
:10208000112802D00998142810D11E48007803287E
:102090000CD120480068012808D11B48007801288D
:1020A00004D11B48007808B91A2006900A98012824
:1020B00010D1099818280DD112480078032809D1A9
:1020C000144800680A2805D10F480078022801D179
:1020D0001B2006900A98012821D1099813281ED1A7
:1020E0000848007803281AD10A4800680A2816D13F
:1020F00007480078002812DD0348007802280ED136
:102100001C200BE01F000020240000209400002071
:1021100025000020200000201900002006900A98C9
:10212000012815D10998112802D0099814280FD137
:10213000FF48007803280BD1FE480068062807D125
:10214000FD480078012803D1FC480078042817D006
:102150000A98012816D10998122802D00998152842
:1021600010D1F4480068B0F5207F0BDBF14800681F
:1021700040F28221884205DCEF480078032801D133
:102180001D2006900A98012816D10998112802D01E
:102190000998142810D1E648007803280CD1E548A6
:1021A0000068402808D1E4480078022804D1E348B8
:1021B000007808B91E2006900A98012810D10998C5
:1021C00014280DD1DA480078032809D1D9480068CD
:1021D000B0F5207F04D1DA48007808B91F200690B6
:1021E000D8480078002815DD0A98012812D10998EE
:1021F000112802D0099814280CD1CD480078032862
:1022000008D1CE480078032804D1CB48007808B91B
:10221000202006900A9801280FD1099814280CD183
:10222000C3480078032808D1C2480068032804D1B5
:10223000C348007808B921200690C24800780028D9
:1022400015DD0A98012812D10998112802D00998A1
:1022500014280CD1B6480078032808D1B748007874
:10226000022804D1B448007808B922200690B54865
:102270000078002815DD0A98012812D10998112844
:1022800002D0099814280CD1A9480078032808D155
:10229000AA480078042804D1A748007808B9232068
:1022A0000690A8480078002815DD0A98012812D168
:1022B0000998112802D0099814280CD19C4800785C
:1022C000032808D19D480078072804D19A4800784F
:1022D00008B9242006900A98012812D109981128DB
:1022E00002D0099814280CD191480078032808D10D
:1022F000904800683C2804D19048007808B926200E
:1023000006900A98012813D10998112802D009983B
:1023100014280DD186480078032809D18548006823
:102320003C2805D185480078012801D12720069056
:1023300084480078042815DA0A98012812D10998EF
:10234000112802D0099814280CD179480078032864
:1023500008D17A480078012804DD7748007808B968
:10236000282006900A98012817D10998112802D030
:102370000998142811D16E48007803280DD16D48B2
:102380000068062809D16C480078012805D16B48FF
:102390000078062801D1292006900A98012812D138
:1023A0000998112802D0099814280CD160480078A7
:1023B000032808D15F480068422804D15F480078AC
:1023C00008B92A2006900A98012813D109981128E3
:1023D00002D0099814280DD155480078032809D156
:1023E00054480068422805D154480078012801D19A
:1023F0002B2006900A98012817D10998112802D09D
:102400000998142811D14A48007803280DD1494869
:102410000068012809D148480078012805D14748BB
:102420000078012801D12C2006900A98012817D1A4
:102430000998112802D00998142811D13C48007835
:1024400003280DD13B480068402809D13A4800785C
:10245000022805D139480078012801D12D200690A5
:102460000A98012811D1099814280ED13048007813
:1024700003280AD12F480068A0F50071813904D1E2
:102480002F48007808B92E2006902E4800780028A2
:1024900013DD0A98012810D10998112802D0099853
:1024A00014280AD122480078032806D1234800784E
:1024B000022802D120480078A0B10A98012813D13F
:1024C0000998122802D0099815280DD119480068DA
:1024D000142809DB17480068192805DC164800781D
:1024E000022801D12F2006900A98012816D10998B8
:1024F000112802D00998142810D10D48007803281B
:102500000CD10C480068022808D10B48007801283B
:1025100004D10A48007808B9302006900A980128AA
:1025200020D10998112802D0099814281AD10BE05B
:102530001F00002020000020240000202500002093
:102540001E00002019000020FF480078032809D150
:10255000FE480068142805D1FD480078012801D103
:10256000312006900A98012812D10998112802D02A
:10257000099814280CD1F4480078032808D1F348AE
:102580000068142804D1F248007808B93220069077
:102590000698332883F07886DFE810F033003500A2
:1025A000D2004702FF0262040D05800502068A067A
:1025B000FA06FB06CC072B089F083D09761E761EFF
:1025C000761E9C0A590B040C120DDB0DC50E3A0F3A
:1025D000D50F7210D6117A122913A3132C14A1143B
:1025E000F6155816BA163017BC173018A418C618A6
:1025F00086190D1A941A201B9A1B1D1C981C4B1D22
:10260000E01D03F042BE0020CF490870D149087098
:102610000220D14908700020CD490870CF480078C9
:1026200006F0BBFB4FF6FF7006F031F8482340F28E
:10263000F3120121832006F0B0FA4FF4BE7340F28A
:102640006B224A21002006F0A8FA002006F01FF8AD
:10265000002316221021872006F025F9C0480078B3
:10266000C0EB0010BF4901EB401003680093072343
:102670000022172140F20F1006F090F8B8480078B9
:10268000C0EB0010B74901EB4010436800930323EF
:10269000002255210F2006F081F8B1480078C0EBE8
:1026A0000010B04901EB401083680093032300221F
:1026B0005521880006F072F8A9480078C0EB001098
:1026C000A84901EB4010C368009303230022552161
:1026D0004FF4EB7006F062F8A34800889E49097831
:1026E000884212DBA0480088FEF7CCFF9E48008895
:1026F000401E0390FEF7A4FEAF234FF41672732121
:1027000040F2D11006F022FA0FE097480088012825
:102710000AD1FEF7B7FFAF234FF41672732140F2D0
:10272000D11006F013FA00E000BF8C48007806F0E4
:1027300041FB8A480078C0F103008849087060E7CF
:1027400084480078401C8349087087480088804985
:102750000978401A039005F09AFE8048007806F048
:102760001CFB4FF6FF7005F092FF482340F2F31276
:102770000121832006F011FA002005F088FF0023D4
:1027800016221021872006F08EF875480078C0EBDD
:102790000010744901EB40100369009307230022E5
:1027A0001721FA2005F0FAFF4FF6FF7005F06FFFD2
:1027B0004FF4BE7340F26B224A21002006F0EDF97F
:1027C000002005F064FF66480078C0EB0010654902
:1027D00001EB4010436900930323002255210F2091
:1027E00005F0DCFF6148006861490390FDF748FF90
:1027F00060A1634806F007FE029059480078C0EBDC
:102800000010584901EB4010D0F8480101460190F2
:10281000029806F0F8FD5649039006F0F4FD584B77
:1028200000930223002273210F2005F0B7FF32210D
:10283000534806F0DCFD4A480078C0EB00104949D7
:1028400001EB4010C36900930323002291210F2064
:1028500005F0A4FF4BA3009302230022AF210F2019
:1028600005F09CFF49A3009302230022CD210F20F5
:1028700005F094FF48A3009302230022CD21782085
:1028800005F08CFF36480078C0EB0010354901EBAD
:102890004010036A009302230022CD214FF48C7074
:1028A00005F07CFF40A3009302230022EB21782057
:1028B00005F074FF2A480078C0EB0010294901EBAD
:1028C0004010436A009302230022EB214FF48C70E6
:1028D00005F064FF38A300930223002240F209119F
:1028E000782005F05BFF1E480078C0EB00101D4902
:1028F00001EB4010836A00930223002240F2091189
:102900004FF48C7005F04AFF2FA30093022300229E
:1029100040F22711782005F041FF11480078C0EB04
:102920000010104901EB4010C36A009302230022FB
:1029300040F227114FF48C7005F030FF26A300936E
:102940000223002250E000001F0000202000002091
:102950002500002024000020260000201D0000206B
:10296000C0000020C400002090000020DC060020F1
:10297000610000204447303031202020200000003A
:10298000DC040020454730303200000031372E3063
:10299000312E31360000000031363A32383A3431C7
:1029A0003A3033390000000031363A32383A3431A7
:1029B0003A3333390000000031363A32383A343194
:1029C0003A3531310000000031363A32383A343687
:1029D0003A3033390000000031363A32383A343672
:1029E0003A3237370000000040F24511782005F0F8
:1029F000D5FEF8480078C0EB0010F74901EB401015
:102A0000036B00930223002240F245114FF48C70B7
:102A100005F0C4FEF148007806F0CCF9EF480078E4
:102A2000C0F10300ED490870EBE50020EC490870A7
:102A3000EC480078401EEB490870E848007806F042
:102A4000ACF94FF6FF7005F022FE482340F2F31276
:102A50000121832006F0A1F84FF4BE7340F26B22EF
:102A60004A21002006F099F8002005F010FE00230E
:102A700016221021872005F016FFD6480078C0EBFB
:102A80000010D54901EB4010036800930723002292
:102A9000172140F20F1005F081FECE480078C0EB00
:102AA0000010CD4901EB401043680093032300223E
:102AB00055210F2005F072FEC6480078C0EB0010CB
:102AC000C54901EB40108368009303230022552180
:102AD000880005F063FEBF480078C0EB0010BE49D7
:102AE00001EB4010C36800930323002255214FF4EB
:102AF000EB7005F053FEBC480088BC490978884259
:102B000012DBB9480088B9490978401A801C039043
:102B1000FEF7B8FDB4480088B4490978401A401C53
:102B20000390FEF78DFC0EE0AF480088AF490978AE
:102B3000884208DAAC480088AC490978401A801C01
:102B40000390FEF79FFDA8480088D8B1A8480078F8
:102B5000039000EBD07041100398B0EB410008D116
:102B6000AF234FF41672732140F2D11005F0EEFF3F
:102B700008E040F227134FF41672EB2140F2D11017
:102B800005F0E4FF9548007806F014F993480078C2
:102B9000C0F103009149087033E59348008802288A
:102BA0007DD193480078F0BB91480078401C904953
:102BB00008708A48007806F0F0F84FF6FF7005F0CC
:102BC00066FD482340F2F3120121832005F0E5FF62
:102BD0004FF4BE7340F26B224A21002005F0DDFF66
:102BE000002005F054FD002316221021872005F057
:102BF0005AFE78480078C0EB0010774901EB40108E
:102C00000368009307230022172140F20F1005F0FC
:102C1000C5FD70480078C0EB00106F4901EB401013
:102C20004368009300E0C6E00323002255210F20F3
:102C300005F0B4FD67480078C0EB0010664901EB71
:102C4000401083680093032300225521880005F07B
:102C5000A5FD60480078C0EB00105F4901EB401013
:102C6000C36800930323002255214FF4EB7005F055
:102C700095FD0220FEF706FD0120FEF7E1FB40F284
:102C800027134FF41672EB2140F2D11005F05EFFCE
:102C90005248007806F08EF85048007800E004E0D2
:102CA000C0F103004D490870D9E04F4801885048F1
:102CB0000078401C81427EDD4D480078401C4C4924
:102CC000087008460078039000EBD070411003981C
:102CD000B0EB410004D145480078801C434908709E
:102CE0003E48007806F059F84FF6FF7005F0CFFC2B
:102CF000482340F2F3120121832005F04EFF4FF4E8
:102D0000BE7340F26B224A21002005F046FF0020EE
:102D100005F0BDFC002316221021872005F0C3FD1D
:102D20002C480078C0EB00102B4901EB40100368E1
:102D3000009307230022172140F20F1005F02EFD0B
:102D400024480078C0EB0010234901EB4010436891
:102D500000930323002255210F2005F01FFD1D487D
:102D60000078C0EB00101C4901EB40108368009311
:102D7000032300225521880005F010FD1548007836
:102D8000C0EB0010144901EB4010C368009303230B
:102D9000002255214FF4EB7005F000FD1248008829
:102DA00012490978884225DB0F4800880F490978C5
:102DB000401A801C00E052E00390FEF763FC0A48D2
:102DC00000880A490978401A401C0390FEF738FB36
:102DD0001FE00000C0000020C40000201D000020F3
:102DE0001F0000202400002090000020260000206A
:102DF00025000020FF480088FF490978884208DA4A
:102E0000FC480088FC490978401A801C0390FEF7B2
:102E100039FCFA480078039000EBD0704110039819
:102E2000B0EB410008D1AF234FF41672732140F28A
:102E3000D11005F08BFE08E040F227134FF4167214
:102E4000EB2140F2D11005F081FEED48007805F04D
:102E5000B1FFEB480078C0F10300E94908706EE467
:102E6000E6480078401EE54908700846007803905F
:102E700000EBD07041100398B0EB410004D0DE4865
:102E80000078801EDC490870DD48007805F085FF79
:102E90004FF6FF7005F0FBFB482340F2F3120121CF
:102EA000832005F07AFE4FF4BE7340F26B224A2174
:102EB000002005F072FE002005F0E9FB0023162239
:102EC0001021872005F0EFFCCE480078C0EB001001
:102ED000CD4901EB4010036800930723002217211E
:102EE00040F20F1005F05AFCC6480078C0EB001005
:102EF000C54901EB4010436800930323002255218C
:102F00000F2005F04BFCBF480078C0EB0010BE4915
:102F100001EB4010836800930323002255218800B1
:102F200005F03CFCB7480078C0EB0010B64901EB57
:102F30004010C36800930323002255214FF4EB7027
:102F400005F02CFCAB480088AB490978401A801C7E
:102F50000390FEF797FBA7480088A7490978401A15
:102F6000401C0390FEF76CFAA4480078039000EB35
:102F7000D07041100398B0EB410009D040F2271304
:102F80004FF41672EB2140F2D11005F0DFFD07E09F
:102F9000AF234FF41672732140F2D11005F0D6FD25
:102FA0009748007805F006FF95480078C0F10300C7
:102FB0009349087038E5012094490870002094492D
:102FC00008708F48007805F0E8FE4FF6FF7005F0B6
:102FD0005EFB482340F2F3120121832005F0DDFD62
:102FE0004FF4BE7340F26B224A21002005F0D5FD5C
:102FF000002005F04CFB0023132217218F2005F041
:1030000052FC80480078C0EB00107F4901EB401073
:10301000436B009307230022172140F20F1005F0A5
:10302000BDFB78480078C0EB0010774901EB4010F9
:10303000436800930323002255210F2005F0AEFBC7
:1030400070480078C0EB00106F4901EB40108368B6
:103050000093032300225521880005F09FFB694857
:103060000078C0EB0010684901EB4010C368009382
:103070000323002255214FF4EB7005F08FFB6548C8
:103080000088FEF7C5F85E48007805F093FE5C48BE
:103090000078C0F103005A490870C5E45C48007824
:1030A000401C5B4908705648007805F076FE4FF6E4
:1030B000FF7005F0ECFA482340F2F312012183205F
:1030C00005F06BFD002005F0E2FA00231322172122
:1030D0008F2005F0E8FB4B480078C0EB00104A4910
:1030E00001EB4010036C0093072300221721FA2004
:1030F00005F054FB4FF6FF7005F0C9FA4FF4BE73AC
:1031000040F26B224A21002005F047FD002005F027
:10311000BEFA3C480078C0EB00103B4901EB401080
:10312000836B00930323002255210F2005F036FB0B
:1031300034480078C0EB0010334901EB4010436C79
:103140000093022300228221412005F027FB2D4815
:103150000078C0EB00102C4901EB4010836C009309
:1031600002230022A021412005F018FB2548007809
:10317000C0EB0010244901EB4010C36C0093022304
:103180000022BE21412005F009FB1D48007805F012
:1031900011FE1B480078C0F103001949087043E490
:1031A00001201A4908701A480078401E1849087012
:1031B0001348007805F0F1FD4FF6FF7005F067FA4F
:1031C000482340F2F3120121832005F0E6FC4FF47E
:1031D000BE7340F26B224A21002005F0DEFC002085
:1031E00005F055FA0023132217218F2005F05BFB11
:1031F000044811E090000020260000202500002057
:103200001D000020C0000020C40000201F0000207E
:1032100024000020940000200078C0EB0010FF493B
:1032200001EB4010436B009307230022172140F26B
:103230000F1005F0B3FAFA480078C0EB0010F74918
:1032400001EB4010436800930323002255210F2017
:1032500005F0A4FAF2480078C0EB0010EF4901EB4A
:10326000401083680093032300225521880005F055
:1032700095FAEB480078C0EB0010E84901EB4010EC
:10328000C36800930323002255214FF4EB7005F02F
:1032900085FAE4480088FDF7BBFFE348007805F0B5
:1032A00089FDE1480078C0F10300DF49087073E44C
:1032B0000220DE490870DC48007805F06EFD4FF60C
:1032C000FF7005F0E4F9482340F2F3120121832056
:1032D00005F063FC4FF4BE7340F26B224A210020DC
:1032E00005F05BFC002005F0D2F900231422172121
:1032F0008F2005F0D8FACA480078C0EB0010C74903
:1033000001EB4010036D009307230022172140F2C8
:103310000F1005F043FAC2480078C0EB0010BF4917
:1033200001EB4010436800930323002255210F2036
:1033300005F034FABA480078C0EB0010B74901EB49
:10334000401083680093032300225521880005F074
:1033500025FAB3480078C0EB0010B04901EB4010EB
:10336000C36800930323002255214FF4EB7005F04E
:1033700015FAAF480088FEF7F9FAAB48007805F077
:1033800019FDA9480078C0F10300A749087066E557
:1033900065E50320A54908700020A6490870A649E4
:1033A0000870401EA54908609F48007805F0F5FCAC
:1033B0004FF6FF7005F06BF9482340F2F31201213C
:1033C000832005F0EAFB4FF4BE7340F26B224A21E2
:1033D000002005F0E2FB4FF4AF732C2278210A2085
:1033E00005F0DBFB002005F052F900231522172120
:1033F0008F2005F058FA8A480078C0EB0010874902
:1034000001EB4010C36D009307230022172140F207
:103410000F1005F0C3F982480078C0EB00107F4917
:1034200001EB4010036E00930223002278212D202F
:1034300005F0B4F97A480078C0EB0010774901EB49
:103440004010436E00930223002291212D2005F0AD
:10345000A5F973480078C0EB0010704901EB4010EB
:10346000836E009302230022AA212D2005F096F9F5
:103470006B480078C0EB0010684901EB4010C36E48
:10348000009302230022C3212D2005F087F9644810
:103490000078C0EB0010614901EB4010036F00930E
:1034A00002230022DC212D2005F078F95C48007809
:1034B000C0EB0010594901EB4010436F0093022309
:1034C0000022F5212D2005F069F955480078C0EB60
:1034D0000010524901EB4010836F00930223002239
:1034E0004FF487712D2005F059F94D480078C0EB55
:1034F00000104A4901EB4010C36F009302230022E1
:1035000040F227112D2005F049F97D204C49088013
:103510000023022208460188142005F0C4F942481D
:10352000007805F047FC40480078C0F103003E49B0
:10353000087094E44048007808B9082004903F4897
:103540000068062801D1092004903C480068012841
:1035500003D03A480068402801D10320049037483E
:103560000068052801D104200490344800683228FE
:1035700001D105200490314800683C2807D02F482D
:103580000068422803D02D480068142801D1022089
:103590000490049860B34FF6FF7005F078F84FF48C
:1035A000AF732C2278210A2005F0F7FA049800EB7B
:1035B000C00101EB001064302149098888420ADD0E
:1035C0001F48008819301E4908801A480078401C9E
:1035D0001849087005E07D20194908800020154928
:1035E00008700023022216480188142005F05BF9B8
:1035F00035E41148007808B9082004900F480068A5
:10360000062801D1092004900C480068012803D045
:103610000A480068402816D1032013E0C4000020A7
:10362000C0000020940000201D0000201F0000208A
:10363000960000202500002024000020200000200B
:10364000280000200490FF480068052801D10420CC
:103650000490FC480068322801D105200490F94804
:1036600000683C2807D0F7480068422803D0F54896
:103670000068142801D102200490049860B34FF62A
:10368000FF7005F004F84FF4AF732C2278210A2064
:1036900005F083FAEC4800887D280ADDEA480088B6
:1036A0001938E9490880E9480078401EE749087060
:1036B0000BE0049800EBC00101EB00106430E2491C
:1036C00008800498401EE149087000230222DE4869
:1036D0000188142005F0E7F86CE4DD480078401C10
:1036E000DB4908700020D7490860DA48007805F007
:1036F00054FB4FF6FF7004F0CAFF482340F2F31268
:103700000121832005F049FA4FF4BE7340F26B2289
:103710004A21002005F041FA002004F0B8FF002300
:10372000152217218F2005F0BEF8CB480078C0EB9A
:103730000010CA4901EB4010C36D0093072300221B
:10374000172140F20F1005F029F8C3480078C0EBAC
:103750000010C24901EB4010036E009302230022C7
:103760005021052005F01AF84FF490734FF4F072D1
:10377000A821B42005F0EAF9E4234FF4F0721946C9
:10378000B42005F03AF9B6A3009309230022AA2138
:10379000C82005F003F8B0480078C0EB0010AF492E
:1037A00001EB4010D0F88030009305230022F02177
:1037B000C82004F0F3FFA8480078C0EB0010A74928
:1037C00001EB4010D0F884300093052300224FF421
:1037D0008771C82004F0E2FF44F6692004F057FF27
:1037E00040F2211340F2E112A721B32005F0AEF917
:1037F0004FF491734FF4F172A621B22005F0A6F9AF
:103800009448007805F0D6FA92480078C0F1030099
:103810009049087041E48E480078401C8C4908703B
:103820008C48007805F0B9FA4FF6FF7004F02FFFCE
:10383000482340F2F3120121832005F0AEF94FF442
:10384000BE7340F26B224A21002005F0A6F9002049
:1038500004F01DFF0023152217218F2005F023F807
:103860007D480078C0EB00107C4901EB4010C36D2F
:10387000009307230022172140F20F1004F08EFF5F
:1038800072480078052872D2DFE800F0031D375433
:103890007200022004F06CFA80B205904FF4FA70C6
:1038A000684908606C480078C0EB00106B4901EB78
:1038B0004010D0F8883000930223002250210520C8
:1038C00004F06CFF6FE0042004F052FA80B205901F
:1038D00040F2F5105B4908605F480078C0EB0010CB
:1038E0005E4901EB4010D0F88C3000930223002297
:1038F0005021052004F052FF55E0062004F038FA6C
:103900000A2190FBF1F080B205904FF4FB704D4915
:10391000086051480078C0EB0010504901EB40109E
:10392000D0F890300093022300225021052004F0AB
:1039300035FF38E0082004F01BFA0A2190FBF1F073
:1039400080B2059040F2F7103E4908604248007886
:10395000C0EB0010414901EB4010D0F894300093C7
:10396000022300225021052004F018FF1BE019E07B
:103970000A2004F0FDF980B205904FF4FC70314943
:10398000086035480078C0EB0010344901EB401066
:10399000D0F898300093022300225021052004F033
:1039A000FDFE00E000BF00BF0020284908704FF472
:1039B00090734FF4F072A821B42005F0C7F8E42307
:1039C0004FF4F0721946B42005F017F8274905980E
:1039D000FCF756FE254B009309230022AA214FF441
:1039E0008C7004F0DBFE1C480078C0EB00101B4913
:1039F00001EB4010D0F88030009305230022F02125
:103A0000C82004F0CBFE14480078C0EB0010134926
:103A100001EB4010D0F89C300093052300224FF4B6
:103A20008771C82004F0BAFE0B480078C0EB001084
:103A30000A4901EB4010D0F8A03000930723002280
:103A4000B42115E0200000202800002025000020DF
:103A5000240000201D000020C0000020C400002021
:103A60002A2A2A2A2A2A2A2A000000006B0000207B
:103A7000142004F093FEFF480078C0EB0010FE49CC
:103A800001EB4010D0F8A430009307230022F0216E
:103A9000142004F083FE44F6692004F0F8FD40F29F
:103AA000211340F2E112A721B32005F04FF84FF4A3
:103AB00091734FF4F172A621B22005F047F8EF4858
:103AC000007805F077F9ED480078C0F10300EB4984
:103AD00008705CE4EA480078012804D1E8480078DE
:103AE000401CE7490870E6480078032804D1E44800
:103AF0000078401EE24908700020E2490870322038
:103B0000E1490860DD48007805F047F94FF6FF709D
:103B100004F0BDFD482340F2F3120121832005F09B
:103B20003CF84FF4BE7340F26B224A21002005F0AE
:103B300034F8002004F0ABFD0023152217218F205C
:103B400004F0B1FECB480078C0EB0010CA4901EB8D
:103B50004010C36D009307230022172140F20F107D
:103B600004F01CFEC3480078C0EB0010C24901EB12
:103B70004010D0F8A83000930223002250210520E5
:103B800004F00CFEBB480078C0EB0010BA4901EB12
:103B90004010D0F8343100930223002278212D20E8
:103BA00004F0FCFDB3480078C0EB0010B24901EB13
:103BB0004010D0F8383100930223002291212D20AB
:103BC00004F0ECFDAB480078C0EB0010AA4901EB13
:103BD0004010D0F83C31009302230022AA212D206E
:103BE00004F0DCFDA3480078C0EB0010A24901EB13
:103BF0004010D0F84031009302230022C3212D2031
:103C000004F0CCFD9B480078C0EB00109A4901EB12
:103C10004010D0F84431009302230022DC212D20F3
:103C200004F0BCFD7D20994908800023022208464B
:103C30000188142004F037FE9048007805F0BAF8A7
:103C40008E480078C0F103008C49087071E48C48FC
:103C5000007820B98A480078401C89490870884853
:103C60000078022804D186480078401E84490870F4
:103C70000520854908600020824908707F48007847
:103C800005F08BF84FF6FF7004F001FD482340F279
:103C9000F3120121832004F080FF4FF4BE7340F241
:103CA0006B224A21002004F078FF002004F0EFFC92
:103CB0000023152217218F2004F0F5FD6D480078B0
:103CC000C0EB00106C4901EB4010C36D009307235B
:103CD0000022172140F20F1004F060FD65480078C3
:103CE000C0EB0010644901EB4010436F00930223C6
:103CF00000225021052004F051FD5E480078C0EB01
:103D000000105D4901EB4010D0F8A8300093022369
:103D1000002278212D2004F041FD56480078C0EBA8
:103D20000010554901EB4010D0F8AC30009302234D
:103D3000002291212D2004F031FD4E480078C0EB87
:103D400000104D4901EB4010D0F8B0300093022331
:103D50000022AA212D2004F021FD46480078C0EB66
:103D60000010454901EB4010D0F8B4300093022315
:103D70000022C3212D2004F011FD7D20434908803D
:103D80000023022208460188142004F08CFD3B48E1
:103D9000007805F00FF839480078C0F10300374982
:103DA000087025E43648007820B935480078401C72
:103DB0003349087032480078022804D1304800782E
:103DC000401E2F49087006202F49086000202D4909
:103DD00008702A48007804F0E0FF4FF6FF7004F006
:103DE00056FC482340F2F3120121832004F0D5FE53
:103DF0004FF4BE7340F26B224A21002004F0CDFE46
:103E0000002004F044FC0023152217218F2004F029
:103E10004AFD18480078C0EB0010174901EB40102C
:103E2000C36D009307230022172140F20F1004F006
:103E3000B5FC10480078C0EB00100F4901EB4010B2
:103E4000D0F8B8300093022300225021052004F05E
:103E5000A5FC08480078C0EB0010074901EB4010B2
:103E6000D0F8BC3000930223002278212D2004F0EA
:103E700095FC0DE0C0000020C40000201D000020C3
:103E80002400002025000020200000202800002021
:103E9000FF480078C0EB0010FE4901EB4010D0F85D
:103EA000C03000930223002291212D2004F076FCE3
:103EB000F7480078C0EB0010F64901EB4010D0F84D
:103EC000C430009302230022AA212D2004F066FCB6
:103ED000EF480078C0EB0010EE4901EB4010D0F83D
:103EE000C830009302230022C3212D2004F056FC89
:103EF000E7480078C0EB0010E64901EB4010D0F82D
:103F0000CC30009302230022DC212D2004F046FC5B
:103F1000DF480078C0EB0010DE4901EB4010D0F81C
:103F2000D030009302230022F5212D2004F036FC2E
:103F3000D7480078C0EB0010D64901EB4010D0F80C
:103F4000D4300093022300224FF487712D2004F017
:103F500025FCCF480078C0EB0010CE4901EB4010A3
:103F6000D0F8D83000930223002240F227112D20F0
:103F700004F014FCC6480078C0EB0010C54901EB02
:103F80004010D0F8DC300093022300224FF4A071DF
:103F90002D2004F003FC7D20BF490880002302226D
:103FA00008460188142004F07EFCBC48007804F028
:103FB00001FFBA480078C0F10300B849087029E44D
:103FC000B7480078401CB64908700020B549087011
:103FD0003D20B549086004F043F8B4480078B4497E
:103FE0000390FDF795FCB1484078B2490390FDF786
:103FF000F1F8AE488078B0490390FDF7EBF8AFA137
:10400000AB4805F000FAAB49019005F0FCF9ABA113
:10401000029005F0F8F9A849039005F0F4F99F48DB
:10402000007804F0BAFE4FF6FF7004F030FB4FF456
:10403000BE7340F26B224A21002004F0AEFD002046
:1040400004F025FB92480078C0EB0010914901EB89
:104050004010D0F8C03000930223002250210520E8
:1040600004F09CFB4FF490734FF4F072A821B4203D
:1040700004F06CFDE4234FF4F0721946B42004F010
:10408000BCFC8B4B009309230022AA21C82004F01A
:1040900085FB7F480078C0EB00107E4901EB4010A3
:1040A000D0F8E030009305230022F021C82004F06E
:1040B00075FB77480078C0EB0010764901EB4010A3
:1040C000D0F8E4300093052300224FF48771C82014
:1040D00004F064FB6E480078C0EB00106D4901EB02
:1040E0004010D0F8E830009307230022B4211420B8
:1040F00004F054FB66480078C0EB0010654901EB02
:104100004010D0F8EC30009307230022F021142057
:1041100004F044FB44F6692004F0B9FA40F221139C
:1041200040F2E112A721B32004F010FD4FF4917387
:104130004FF4F172A621B22004F008FD5748007830
:1041400004F038FE55480078C0F103005349087068
:10415000BFE453480078401C514908700020514981
:1041600008703E205049086003F07AFF4F48C0783D
:1041700053490390FDF72EF84C48007951490390BC
:10418000FDF728F8494840794F490390FDF722F898
:104190004EA14B4805F037F94A49019005F033F933
:1041A0004AA1029005F02FF94749039005F02BF939
:1041B0003A48007804F0F1FD4FF6FF7004F067FA1A
:1041C0004FF4BE7340F26B224A21002004F0E5FC5C
:1041D000002004F05CFA2E480078C0EB00102D4956
:1041E00001EB4010D0F8C43000930223002250218C
:1041F000052004F0D3FA4FF490734FF4F072A82125
:10420000B42004F0A3FCE4234FF4F0721946B42068
:1042100004F0F3FB2A4B009309230022AA21C820B3
:1042200004F0BCFA1A480078C0EB0010194901EB01
:104230004010D0F8E030009305230022F021C82080
:1042400004F0ACFA12480078C0EB0010114901EB01
:104250004010D0F8E4300093052300224FF487711A
:10426000C82004F09BFA0A480078C0EB0010094906
:1042700001EB4010D0F8E830009307230022B4216E
:10428000142004F08BFA02480078C0EB00101FE005
:10429000C0000020C4000020280000201D000020D5
:1042A000240000202500002020000020B90000206C
:1042B000A00400203E000020430000202E0000004B
:1042C000AF04002048000020390000203A00000020
:1042D000FF4901EB4010D0F8EC3000930723002297
:1042E000F021142004F05AFA44F6692004F0CFF9C2
:1042F00040F2211340F2E112A721B32004F026FC82
:104300004FF491734FF4F172A621B22004F01EFC19
:10431000F048007804F04EFDEE480078C0F103004C
:10432000EC49087092E4EC480078401CEA490870B7
:104330000020EA4908703F20E9490860E548007814
:1043400004F02BFD4FF6FF7004F0A1F94FF4BE739B
:1043500040F26B224A21002004F01FFC002004F0F0
:1043600096F9E0480078C0EB0010D94901EB401005
:10437000D0F8C8300093022300225021052004F019
:104380000DFA4FF490734FF4F072A821B42004F0AA
:10439000DDFBE4234FF4F0721946B42004F02DFB4A
:1043A000AFF64413009309230022AA21C82004F089
:1043B000F5F9CC480078C0EB0010C54901EB40107E
:1043C000D0F8F030009306230022E621C82004F044
:1043D000E5F944F6692004F05AF940F2211340F25D
:1043E000E112A721B32004F0B1FB4FF491734FF415
:1043F000F172A621B22004F0A9FBB648007804F0BF
:10440000D9FCB4480078C0F10300B24908701DE43B
:10441000B148007820B9B0480078401CAE49087017
:10442000AD480078022804D1AB480078401EAA4964
:1044300008700120AA4908600020A8490870A54812
:10444000007804F0AAFC4FF6FF7004F020F948232E
:1044500040F2F3120121832004F09FFB4FF4BE735E
:1044600040F26B224A21002004F097FB002004F068
:104470000EF90023152217218F2004F014FA994811
:104480000078C0EB0010924901EB4010C36D00931F
:1044900007230022172140F20F1004F07FF9914802
:1044A0000078C0EB00108A4901EB4010436E009386
:1044B000022300225021052004F070F98948007879
:1044C000C0EB0010824901EB4010D0F8F4300093AB
:1044D0000223002278212D2004F060F98148007821
:1044E000C0EB00107A4901EB4010D0F8F83000938F
:1044F0000223002291212D2004F050F97948007800
:10450000C0EB0010724901EB4010D0F8FC30009372
:1045100002230022AA212D2004F040F97D207249B7
:1045200008800023022208460188142004F0BBF909
:104530006848007804F03EFC66480078C0F103004B
:10454000644908702DE464480078401C6249087092
:104550000020624908700A2061490860022063490E
:1045600008705C48007804F018FC4FF6FF7004F007
:104570008EF8482340F2F3120121832004F00DFB52
:104580004FF4BE7340F26B224A21002004F005FB79
:10459000002004F07CF8002316221021872004F06C
:1045A00082F950480078C0EB0010494901EB4010F7
:1045B000D0F80031009307230022172140F20F109A
:1045C00004F0ECF847480078C0EB0010404901EBDC
:1045D0004010436800930323002255210F2004F06C
:1045E000DDF840480078C0EB0010394901EB40107D
:1045F00083680093032300225521880004F0CEF83D
:1046000038480078C0EB0010314901EB4010C36816
:1046100000930323002255214FF4EB7004F0BEF801
:10462000334800883149097888420EDB0120FDF7C4
:1046300029F80220FCF704FFAF234FF41672732110
:1046400040F2D11004F082FA0FE0294800880128D6
:104650000AD1FDF717F8AF234FF41672732140F219
:10466000D11004F073FA00E000BF1A48007804F09B
:10467000A1FB18480078C0F10300164908709EE4B9
:104680001B4800881949097888427ED1174800786C
:1046900012490978401A022878D110480078401C45
:1046A0000E4908700B48007804F077FB4FF6FF7056
:1046B00003F0EDFF482340F2F3120121832004F0C0
:1046C0006CFA4FF4BE7340F26B224A21002011E0D5
:1046D000C40000201D000020240000202500002030
:1046E00020000020C000002028000020260000201C
:1046F0009000002004F051FA002003F0C8FF0023CE
:1047000016221021872004F0CEF8FF480078C0EB75
:104710000010FE4901EB4010D0F800310093072350
:104720000022172140F20F1004F038F8F648007804
:10473000C0EB0010F54901EB4010436800930323E0
:10474000002255210F2004F029F8EF480078C0EB33
:104750000010EE4901EB4010836800930323002210
:104760005521880004F01AF8E7480078C0EB0010E3
:10477000E64901EB4010C368009303230022552152
:104780004FF4EB7004F00AF801E01EE0A1E0E0480D
:104790000078401E0390FCF775FFDD480078FCF7B9
:1047A0004FFE40F227134FF41672EB2140F2D11066
:1047B00004F0CCF9D748007804F0FCFAD54800782A
:1047C000C0F10300D3490870BDE0D3480088D04948
:1047D000097888427DDDD1480078401CCF490870B7
:1047E00008460078039000EBD07041100398B0EBBE
:1047F000410004D1C6480078801CC5490870C548EE
:10480000007804F0CAFA4FF6FF7003F040FF482327
:1048100040F2F3120121832004F0BFF94FF4BE737C
:1048200040F26B224A21002004F0B7F9002003F087
:104830002EFF002316221021872004F034F8B248FE
:104840000078C0EB0010B14901EB4010D0F8003106
:10485000009307230022172140F20F1003F09EFF60
:10486000A9480078C0EB0010A84901EB401043684C
:1048700000930323002255210F2003F08FFFA2484D
:104880000078C0EB0010A14901EB40108368009351
:10489000032300225521880003F080FF9A48007806
:1048A000C0EB0010994901EB4010C368009303234B
:1048B000002255214FF4EB7003F070FF96480088FA
:1048C0009349097888420CDB91480078401E039098
:1048D00000E038E0FCF7D6FE8D480078FCF7B0FD2C
:1048E0000BE08D4800888A490978884205DA8848B3
:1048F0000078401E0390FCF7C5FE884800780390BE
:1049000000EBD07041100398B0EB410008D1AF2309
:104910004FF41672732140F2D11004F017F908E039
:1049200040F227134FF41672EB2140F2D11004F03D
:104930000DF97848007804F03DFA76480078C0F127
:10494000030074490870EDE474480078401E734910
:10495000087008460078039000EBD070411003986F
:10496000B0EB410004D06A480078801E68490870A6
:104970006848007804F011FA4FF6FF7003F087FEE4
:10498000482340F2F3120121832004F006F94FF48A
:10499000BE7340F26B224A21002004F0FEF8002092
:1049A00003F075FE002316221021872003F07BFF01
:1049B00055480078C0EB0010544901EB4010D0F886
:1049C0000031009307230022172140F20F1003F05B
:1049D000E5FE4D480078C0EB00104C4901EB40105B
:1049E000436800930323002255210F2003F0D6FED5
:1049F00045480078C0EB0010444901EB4010836843
:104A00000093032300225521880003F0C7FE3E488F
:104A10000078C0EB00103D4901EB4010C3680093E3
:104A20000323002255214FF4EB7003F0B7FE384802
:104A30000078401E0390FCF725FE35480078FCF70F
:104A4000FFFC36480078039000EBD07041100398CB
:104A5000B0EB410009D040F227134FF41672EB215E
:104A600040F2D11004F072F807E0AF234FF4167251
:104A7000732140F2D11004F069F82648007804F060
:104A800099F924480078C0F103002249087049E4EC
:104A900023480078012804D121480078401C20498F
:104AA00008701F480078032804D11D480078401E74
:104AB0001B490870002019490870402019490860F6
:104AC0001448007804F069F94FF6FF7003F0DFFD39
:104AD000482340F2F3120121832004F05EF84FF4E2
:104AE000BE7340F26B224A21002004F056F80020E9
:104AF00003F0CDFD0023152217218F2003F0D3FEF4
:104B00000148007810E00000C0000020C400002030
:104B1000260000201D00002090000020250000201D
:104B20002400002020000020C0EB0010FF4901EB12
:104B30004010C36D009307230022172140F20F108D
:104B400003F02CFEFA480078C0EB0010F74901EBA7
:104B50004010D0F8CC3000930223002250210520D1
:104B600003F01CFEF2480078C0EB0010EF4901EBA7
:104B70004010D0F8043100930223002278212D2028
:104B800003F00CFEEA480078C0EB0010E74901EBA7
:104B90004010D0F8083100930223002291212D20EB
:104BA00003F0FCFDE2480078C0EB0010DF4901EBA8
:104BB0004010D0F80C31009302230022AA212D20AE
:104BC00003F0ECFD7D20DB4908800023022208462B
:104BD0000188142003F067FED748007804F0EAF853
:104BE000D5480078C0F10300D34908700FE4D348DA
:104BF0000078401CD14908700020D14908704FF45A
:104C00002070D04908600020CF490870CA48007859
:104C100004F0C3F84FF6FF7003F039FD482340F26B
:104C2000F3120121832003F0B8FF4FF4BE7340F26A
:104C30006B224A21002003F0B0FF002003F027FD83
:104C40000023152217218F2003F02DFEB84800788D
:104C5000C0EB0010B54901EB4010C36D0093072372
:104C60000022172140F20F1003F098FDB0480078A1
:104C7000C0EB0010AD4901EB4010D0F804310093B7
:104C8000022300225021052003F088FDA848007867
:104C9000C0EB0010A54901EB4010D0F81031009393
:104CA00007230022BE216E2003F078FDA048007883
:104CB000C0EB00109D4901EB4010D0F81431009377
:104CC00007230022FA21322003F068FD9A48007879
:104CD00004F070F898480078C0F103009649087015
:104CE00030E40021084602F0B5FF00209749088013
:104CF000222102F0AFFF002095490880012092494F
:104D000008708D48007804F048F849F6F97003F00F
:104D1000BEFC0522502140F29A2003F0C8FE4FF657
:104D2000FF7003F0B4FC482340F2F312012183200A
:104D300003F033FF4FF4BE7340F26B224A21002090
:104D400003F02BFF002003F0A2FC00231522172103
:104D50008F2003F0A8FD76480078C0EB001073495F
:104D600001EB4010C36D009307230022172140F28E
:104D70000F1003F013FD6E480078C0EB00106B4974
:104D800001EB4010D0F8043100930223002250219F
:104D9000052003F003FD66480078C0EB001063496E
:104DA00001EB4010D0F81831009307230022AA210C
:104DB000962003F0F3FC674964480088FBF760FC29
:104DC000644A2621012004F084F85B48007803F04F
:104DD000F1FF59480078C0F103000146039056489E
:104DE000007803F0F4FF54480078C0F10300524902
:104DF000087044E451480078401C50490870032072
:104E0000504908600020504908704B48007803F072
:104E1000C4FF4FF6FF7003F03AFC482340F2F31250
:104E20000121832003F0B9FE4FF4BE7340F26B22E0
:104E30004A21002003F0B1FE002003F028FC0023EB
:104E4000152217218F2003F02EFD39480078C0EB82
:104E50000010364901EB4010C36D00930723002278
:104E6000172140F20F1003F099FC31480078C0EB95
:104E700000102E4901EB4010C36E00930223002264
:104E80005021052003F08AFC29480078C0EB00106F
:104E9000264901EB4010D0F81C3100930723002273
:104EA000BE21822003F07AFC21480078C0EB00107C
:104EB0001E4901EB4010D0F8143100930723002263
:104EC000FA212D2003F06AFC1B48007803F072FFE2
:104ED00019480078C0F103001749087033E5012034
:104EE000194908701C4908701348007803F055FFF1
:104EF0004FF6FF7003F0CBFB482340F2F312012181
:104F0000832003F04AFE4FF4BE7340F26B224A2125
:104F1000002003F042FE002003F0B9FB002315221D
:104F200017218F2003F0BFFC014817E0C4000020C8
:104F3000C0000020280000201D00002024000020C8
:104F400025000020200000201E00002090000020EE
:104F5000920000202A000020B40000200078C0EB5E
:104F60000010FF4901EB4010C36D0093072300229E
:104F7000172140F20F1003F011FCFA480078C0EB43
:104F80000010F74901EB4010C36E0093022300228A
:104F90005021052003F002FCF2480078C0EB00101D
:104FA000EF4901EB4010D0F8203100930723002295
:104FB000AA21962003F0F2FBEA480078C0EB00102B
:104FC000E74901EB4010D0F8243100930723002279
:104FD000FA21C82003F0E2FBE348007803F0EAFE80
:104FE000E1480078C0F10300DF490870172155201F
:104FF00002F0DDFA4FF6FF70FBF74FF94FF6FF7046
:10500000FBF74BF900BFD94800780028FBD0D64801
:10501000007803F0C2FE4FF6FF7003F038FB4FF448
:10502000BE7340F26B227D21002003F0B6FD00200C
:1050300003F02DFBCD480078012845D1C948007800
:10504000C0EB0010C64901EB4010D0F88C31009342
:10505000072300229621322003F0A0FBC1480078EC
:10506000C0EB0010BE4901EB4010D0F89431009322
:1050700007230022FA21322003F090FB4FF47840FE
:1050800003F005FB0522502140F2CF2003F00FFD75
:10509000302002F06DFEB649088003F04FFAB448A4
:1050A0000088B3490988491CB14A11803021039016
:1050B00002F0D0FDAF49AE480088FBF7E1FAAD4AF7
:1050C0002721012003F005FFA8480078022839D1E4
:1050D000A4480078C0EB0010A14901EB4010D0F8C3
:1050E00090310093072300229621322003F056FBD3
:1050F0009C480078C0EB0010994901EB4010D0F8B3
:105100009431009307230022FA21322003F046FB5A
:1051100049F6F97003F0BBFA0522502140F2CF2086
:1051200003F0C5FC002092490880302102F092FD76
:1051300090498F480088FBF7A3FA8E4A2721012067
:1051400003F0C7FE8848007803F034FE86480078F4
:10515000C0F10300014603908348007803F037FE56
:1051600081480078C0F103007F49087017210020B2
:1051700002F01DFA4FF6FF70FBF78FF800207E4912
:1051800008707A49087082E47C480078401C7B49AA
:10519000087002207A4908607348007803F0FDFD2A
:1051A0004FF6FF7003F073FA482340F2F312012127
:1051B000832003F0F2FC4FF4BE7340F26B224A21CD
:1051C000002003F0EAFC002003F061FA002315221E
:1051D00017218F2003F067FB62480078C0EB0010B6
:1051E0005F4901EB4010C36D009307230022172194
:1051F00040F20F1003F0D2FA5A480078C0EB0010CA
:10520000574901EB4010836E009302230022502186
:10521000052003F0C3FA53480078C0EB0010504952
:1052200001EB4010D0F82831009307230022BE2163
:10523000822003F0B3FA4C48007803F0BBFD4A48E3
:105240000078C0F103004849087020E44B4800781A
:10525000401C4A49087004204949086042480078C7
:1052600003F09BFD4FF6FF7003F011FA482340F264
:10527000F3120121832003F090FC4FF4BE7340F23F
:105280006B224A21002003F088FC002003F0FFF984
:105290000023152217218F2003F005FB31480078E9
:1052A000C0EB00102E4901EB4010C36D00930723A3
:1052B0000022172140F20F1003F070FA29480078FD
:1052C000C0EB0010264901EB4010036F009302234E
:1052D00000225021052003F061FA22480078C0EB3B
:1052E00000101F4901EB4010D0F82831009307232C
:1052F0000022BE21822003F051FA1B48007803F0FF
:1053000059FD19480078C0F10300174908706DE491
:105310001A480078401C194908700720184908608D
:105320001148007803F039FD4FF6FF7003F0AFF934
:10533000482340F2F3120121832003F02EFC4FF4A6
:10534000BE7340F26B224A21002003F026FC0020AD
:1053500003F09DF90023152217218F2012E0000091
:10536000C4000020C00000201D000020B500002067
:10537000940000202F0000208D0000202400002039
:105380002000002003F08FFAFF480078C0EB0010E7
:10539000FE4901EB4010C36D009307230022172143
:1053A00040F20F1003F0FAF9F7480078C0EB001054
:1053B000F64901EB4010C36F0093022300225021F5
:1053C000052003F0EBF9F0480078C0EB0010EF493E
:1053D00001EB4010D0F82831009307230022BE21B2
:1053E000822003F0DBF9EA48007803F0E3FCE848A8
:1053F0000078C0F10300E649087071E4E5480078E0
:10540000401CE44908700020E34908703C20E3494F
:105410000860DF48007803F0C0FC4FF6FF7003F02F
:1054200036F9482340F2F3120121832003F0B5FB43
:105430004FF4BE7340F26B224A21002003F0ADFB13
:10544000002003F024F90023152217218F2003F0F8
:105450002AFACD480078C0EB0010CC4901EB40108F
:10546000C36D009307230022172140F20F1003F0B1
:1054700095F9C5480078C0EB0010C44901EB401015
:10548000D0F8BC300093022300225021052003F005
:1054900085F9C3A300930223002278212D2003F075
:1054A0007DF9C5A300930223002291212D2003F052
:1054B00075F9B548007860B98A23672280215D209C
:1054C00003F044FBA323672299215D2003F065FBD1
:1054D0000BE08A23672280215D2003F05EFBA3237B
:1054E000672299215D2003F031FB7D20B6490880B9
:1054F0000023022208460188142003F0D4F9A448AE
:10550000007803F057FCA2480078C0F10300A049DE
:1055100008706EE401209C4908700C2102F09AFB8F
:105520009B48007803F039FC4FF6FF7003F0AFF8AA
:10553000482340F2F3120121832003F02EFB4FF4A5
:10554000BE7340F26B224A21002003F026FB0020AC
:1055500003F09DF80023152217218F2003F0A3F9F3
:1055600089480078C0EB0010884901EB4010C36DFA
:10557000009307230022172140F20F1003F00EF9C9
:1055800081480078C0EB0010804901EB4010D0F852
:10559000BC300093022300225021052003F0FEF8C6
:1055A0007FA300930223002278212D2003F0F6F838
:1055B00081A300930223002291212D2003F0EEF815
:1055C0008A23672280215D2003F0E7FAA323672264
:1055D00099215D2003F0BAFA002302227A4801885B
:1055E000142003F060F96A48007803F0E3FB684890
:1055F0000078C0F10300664908706FE4002062493A
:1056000008700C2102F026FB6148007803F0C5FB0E
:105610004FF6FF7003F03BF8482340F2F3120121EC
:10562000832003F0BAFA4FF4BE7340F26B224A2192
:10563000002003F0B2FA002003F029F8002315221D
:1056400017218F2003F02FF94F480078C0EB00108E
:105650004E4901EB4010C36D009307230022172130
:1056600040F20F1003F09AF847480078C0EB0010A2
:10567000464901EB4010D0F8BC30009302230022D1
:105680005021052003F08AF845A30093022300224D
:1056900078212D2003F082F847A3009302230022F3
:1056A00091212D2003F07AF88A23672280215D2042
:1056B00003F04CFAA323672299215D2003F06DFAD1
:1056C0000023022240480188142003F0ECF83048FF
:1056D000007803F06FFB2E480078C0F103002C49DE
:1056E000087050E54FF6FF7002F0D1FF4FF4B97328
:1056F0004FF4FA724FF4A0712D2003F04EFA0020FF
:1057000002F0C5FF20480078C0EB00101F4901EBF4
:105710004010D0F850310093022300224FF4A571BD
:105720002D2003F03BF845E21A480078401C194947
:105730000870002018490870422018490860144871
:10574000007803F02AFB4FF6FF7002F0A0FF482319
:1057500040F2F3120121832003F01FFA4FF4BE73CD
:1057600040F26B224A21002003F017FA002002F0D9
:105770008EFF0023152217218F2003F094F8024892
:105780000078C0EB001021E0C0000020C400002021
:105790001D00002024000020250000202000002003
:1057A0003731312020204C616E6775616765204577
:1057B0006E676C6973680000373132202020BCF2BC
:1057C000CCE5D6D0CEC4000028000020FA4901EB79
:1057D0004010C36D009307230022172140F20F10E1
:1057E00002F0DCFFF5480078C0EB0010F24901EB55
:1057F0004010D0F8D430009302230022502105201D
:1058000002F0CCFFED480078C0EB0010EA4901EB54
:105810004010D0F8843100930223002278212D20FB
:1058200002F0BCFFE5480078C0EB0010E24901EB54
:105830004010D0F8883100930223002291212D20BE
:1058400002F0ACFFDE48007801280CD18A236722E1
:1058500080215D2003F07AF9A323672299215D203E
:1058600003F09BF90BE08A23672280215D2003F07F
:1058700094F9A323672299215D2003F067F97D2025
:10588000D04908800023022208460188142003F032
:105890000AF8CD48007803F08DFACB480078C0F1C3
:1058A0000300C949087085E10120C54908700E212F
:1058B00002F0D0F9132003F051FAC348007803F046
:1058C0006CFA4FF6FF7002F0E2FE482340F2F3124A
:1058D0000121832003F061F94FF4BE7340F26B2283
:1058E0004A21002003F059F9002002F0D0FE0023E5
:1058F000152217218F2002F0D6FFB0480078C0EBA8
:105900000010AD4901EB4010C36D00930723002246
:10591000172140F20F1002F041FFA8480078C0EBB9
:105920000010A54901EB4010D0F8D43000930223B9
:1059300000225021052002F031FFA0480078C0EB82
:1059400000109D4901EB4010D0F8843100930223F0
:10595000002278212D2002F021FF98480078C0EB2A
:105960000010954901EB4010D0F8883100930223D4
:10597000002291212D2002F011FF8A23672280212D
:105980005D2003F00AF9A323672299215D2003F02B
:10599000DDF8002302228B480188142002F083FFE7
:1059A0008948007803F006FA87480078C0F10300C0
:1059B00085490870FEE00020814908700E2102F040
:1059C00049F9112003F0CAF97F48007803F0E5F99E
:1059D0004FF6FF7002F05BFE482340F2F312012104
:1059E000832003F0DAF84FF4BE7340F26B224A21B1
:1059F000002003F0D2F8002002F049FE0023152217
:105A000017218F2002F04FFF6C480078C0EB001088
:105A1000694901EB4010C36D009307230022172151
:105A200040F20F1002F0BAFE64480078C0EB00109C
:105A3000614901EB4010D0F8D430009302230022DA
:105A40005021052002F0AAFE5C480078C0EB00104F
:105A5000594901EB4010D0F8843100930223002211
:105A600078212D2002F09AFE54480078C0EB0010F7
:105A7000514901EB4010D0F88831009302230022F5
:105A800091212D2002F08AFE8A23672280215D2049
:105A900003F05CF8A323672299215D2003F07DF8D1
:105AA0000023022247480188142002F0FCFE4648E9
:105AB000007803F07FF944480078C0F103004249C0
:105AC0000870E2E341480078401C4049087000201B
:105AD0003F4908700B203F4908603B48007803F0BD
