:020000040800F2
:10000000280B002045010008450600086F0600087F
:1000100073060008770600087B0600080000000051
:100020000000000000000000000000008106000841
:100030007F0600080000000083060008850600080F
:1000400087060008890600088B0600088D06000850
:10005000A9060008AB060008E7060008E906000844
:10006000EB060008ED060008EF060008F1060008A0
:10007000F3060008F5060008F7060008F906000870
:10008000FB060008FD060008FF060008010700083F
:10009000030700080507000807070008090700080C
:1000A0000B0700080D0700080F07000811070008DC
:1000B00013070008B1070008B3070008B5070008D8
:1000C000B7070008B9070008BB070008BD0700080C
:1000D000BF070008C1070008C30700088D08000813
:1000E0008F08000891080008930800089508000888
:1000F00097080008990800089B0800089D08000858
:100100009F080008A1080008A3080008A508000827
:10011000A7080008A9080008AB080008AD080008F7
:10012000AF080008B1080008B3080008B5080008C7
:10013000DFF80CD008F0DAFC00480047E7040008BC
:10014000280B0020004800473101000870B598B026
:1001500001F008F8FA48007801284BD1F9490878ED
:1001600010A902F0C8FFF74948780CA902F0A0FCDA
:10017000F449887808A902F09BFCF3A110A808F0C4
:1001800088FC06460CA908F084FC0546EEA108F0A0
:1001900080FC044608A908F07CFCEA49C87804A958
:1001A00002F086FCE7490879694602F081FCE549DE
:1001B000487914A902F07CFCE4A104A808F069FCC9
:1001C0000646694608F065FC0546E0A108F061FCBA
:1001D000044614A908F05DFC10AA0321012001F0D7
:1001E00036FC04AA1E21012001F031FC0020D44974
:1001F000087050E0D348407948BBD248007930BB02
:10020000D048C07818BBCF49087810A902F073FF16
:10021000CC4948780CA902F04BFCCA49887808A957
:1002200002F046FCC8A110A808F033FC06460CA951
:1002300008F02FFC0546C4A108F02BFC044608A9D1
:1002400008F027FC10AA0321012001F000FCBD49A1
:10025000C87804A902F02CFCBA490879694602F072
:1002600027FCB849487914A902F022FCB7A104A8D8
:1002700008F00FFC0646694608F00BFC0546B3A1E2
:1002800008F007FC044614A908F003FC04AA1E2188
:10029000012001F0DCFB18B070BD002106E07821E0
:1002A00000BF0A00A1F1010399B2FAD10200A0F146
:1002B000010398B2F3D1704708B500214FF00060F8
:1002C00008F026FE4FF4A06008F018FE26208DF8F6
:1002D000000002208DF8010000208DF802000120AE
:1002E0008DF80300684608F0CEFD1C208DF8000054
:1002F00000208DF801008DF8020001208DF8030028
:10030000684608F0C0FD03208DF8000001208DF83C
:10031000010000208DF8020001208DF803006846DE
:1003200008F0B1FD08BD70470EB54FF0804008F0F1
:10033000E9FF4FF0804009F053F84FF47A70ADF8C0
:10034000040048F69F40ADF800000020ADF806001C
:10035000ADF8020069464FF0804009F047F80121EE
:10036000880708F0BEFF00214FF0804008F0AEFF84
:1003700001224121880709F02BF800214FF080402D
:1003800008F0B5FF0EBD00B587B00020ADF8040041
:10039000ADF806004FF40070ADF808000020ADF88D
:1003A0000A0001A96A4809F045F84FF4E1300390CA
:1003B0000020ADF81000ADF81200ADF81400ADF853
:1003C00018000C20ADF8160003A9614809F08AF85E
:1003D000012240F225515E4809F06BF801215C488A
:1003E00009F037F807B000BD08B54FF4A060ADF8CC
:1003F000000010208DF8030003208DF802006946EC
:10040000544808F0E5FC0420ADF8000018208DF8F1
:10041000030003208DF8020069464F4808F0D8FC1D
:100420000820ADF8000003208DF8020004208DF8AC
:1004300003006946484808F0CBFC2020ADF80000D6
:1004400004208DF8030003208DF80200694643481C
:1004500008F0BEFC08BD10B508F0B2FD4FF48030C6
:1004600008F04AFE08F0BAFE0446012C24D1002010
:1004700008F038FE002008F07FFEA00208F072FEAF
:10048000022008F009FC102008F0BCFB4FF4E0113A
:10049000200408F081FE012008F078FE00BF39201A
:1004A00008F0F6FD0028FAD0022008F08DFE00BF0B
:1004B00008F010FE0828FBD1012140F2ED1008F0F1
:1004C0005BFD0121480408F03FFD0121080208F00E
:1004D0002FFD0121032008F037FD01214FF0C0500E
:1004E00008F032FD10BD40F22551194808F09CFF7C
:1004F000FFF7B1FFFFF778FF00F0F6F900F074FAAC
:10050000FFF741FFFFF710FFFFF70DFFFFF7D4FEE6
:1005100007F02EFF08F036F800F060FD4FF6FF7090
:10052000FFF7BBFE012001F03BFA07F0F3FA3021A0
:10053000002008F0E5F807F002FB07F03FFB55E06C
:100540004E0000204F0000202E0000003A00000066
:1005500000440040001C0140000801400020014010
:100560002E480078012804D107F073FC00202B49A5
:1005700008702B480078012831D1FFF7E7FD0020F3
:10058000274908702748007880B927480078401C20
:100590002549087008460078032807D10020234920
:1005A00008702149087001201E4908702048007811
:1005B000012814D11F480088401C1E4908800846A5
:1005C00000881D490988884209D14FF40461002040
:1005D00000F0A9FA0020174908801549087017484B
:1005E000B0F86600012801D107F063FAB8E770B5EA
:1005F00004460D46E1B2124808F0BCFF00BF40219E
:100600000F4808F030FF0028F9D0204670BD00BF29
:100610000100A0F10100FBD170470000280000207C
:100620004D000020290000202A0000204B0000205F
:10063000480000204600002044000020C40500209F
:100640000044004010B5802008F03AFD70B14FF42E
:10065000803008F051FD0121082008F067FD0121DC
:10066000102008F063FD802008F0A4FC10BD00BF3E
:10067000FEE700BFFEE700BFFEE700BFFEE77047F2
:1006800070477047704770477047704710B501203A
:1006900008F0D6FD38B1012008F0BAFD08F0FCFDE5
:1006A00001208549087010BD704710B5082008F07A
:1006B00007FD48B1082008F07DFC312008F0E8FC77
:1006C00010B1012008F062FD102008F0F9FC48B1DB
:1006D000102008F06FFC392008F0DAFC10B102207D
:1006E00008F072FD10BD7047704770477047704743
:1006F0007047704770477047704770477047704742
:100700007047704770477047704770477047704731
:10071000704710B50121880708F04EFE002846D02A
:100720000121880708F0E0FD64480078012808D11D
:10073000112000F0FCF96249087000205F49087040
:100740002BE0112000F0F3F95E49087008460078AC
:100750005B490978401A5C4908605A480078584952
:10076000087059480068002805DA5748006800F505
:100770008070554908605548007810B900F018FAA3
:100780000BE05148006810B90120514908704E48EB
:10079000006810B102204E490870002008F03EF8B1
:1007A0004C490988884202D001204B49087010BD8D
:1007B0007047704770477047704770477047704781
:1007C000704710B5002440F22551444808F052FE0D
:1007D00001284FD1414808F0C9FEC4B2EE2C07D120
:1007E00001203F49A1F868000020A1F866000880B8
:1007F0003B4801880088401C394A1080901C4454B2
:100800003848007830B101280ED0022816D00328CD
:100810002ED11DE0FF2C03D101203249087002E0E7
:1008200000203049087024E0FC2C03D102202D491F
:10083000087002E000202B4908701AE0FF2C03D159
:1008400003202849087002E000202649087010E0C3
:10085000FF2C09D10020234908702149A1F8680024
:100860000120A1F8660002E000201E49087000E0A7
:1008700000BF00BF40F22551184808F0FBFD20B131
:1008800040F22551154808F0CFFD10BD7047704764
:1008900070477047704770477047704770477047A0
:1008A0007047704770477047704770477047704790
:1008B00070477047704700004D0000203A0000204C
:1008C0003800002039000020340000204B000020B8
:1008D0004C0000202C000020280000200044004094
:1008E000C40500201600002000B597B0012140F299
:1008F000ED1008F041FB4CF20370ADF80000182039
:100900008DF8030003208DF8020069468A4808F03C
:100910005FFA4FF68070ADF800006946874808F02E
:1009200057FA4FF23F00ADF800006946844808F0DE
:100930004FFA3F20ADF800006946824808F048FAB7
:100940004FF4C050ADF8000069467B4808F040FA0B
:100950003020ADF8000018208DF8030003208DF83A
:1009600002006946744808F033FA4FF48060ADF82D
:10097000000018208DF8030003208DF8020069465E
:10098000704808F025FA0320ADF8000069466B486E
:1009900008F01EFA0020019002900520039000202C
:1009A000049005900690079004200890002009907C
:1009B0000A9010200B9000200C900D900E900F903C
:1009C0004FF48050109000201190129013901490CA
:1009D00001A81590169008A808F09AF901210420A2
:1009E00008F086F917B000BD00B597B0012140F2BC
:1009F000ED1008F0C1FA4CF20300ADF80000182029
:100A00008DF8030003208DF8020069464A4808F07B
:100A1000DFF94FF4F060ADF800006946474808F090
:100A2000D7F94FF23F00ADF800006946444808F09E
:100A3000CFF90320ADF800006946424808F0C8F934
:100A40003020ADF8000018208DF8030003208DF849
:100A500002006946384808F0BBF94FF48050ADF801
:100A6000000018208DF8030003208DF8020069466D
:100A7000344808F0ADF90020019002900520039061
:100A80000020049005900690079006200890002012
:100A900009900A900B900C900D900E900F904FF4CF
:100AA000805010900020119012901390149001A883
:100AB0001590169008A808F02BF90121062008F0DF
:100AC00017F917B000BD10B50C2207E010F8014B64
:100AD0004FF0D0435C54491C531EDAB2002AF5D1C2
:100AE00010BD06E04FF0D0435B5C00F8013B491CB1
:100AF000521E002AF6D1704710B506E030F8024BBE
:100B00004FF0D0435C52891C521E002AF6D110BD12
:100B100006E04FF0D0435B5A20F8023B891C521E7E
:100B2000002AF6D170474FF0D84250547047014622
:100B30004FF0D842505C704700140140001801404B
:100B4000001C01400020014070B505460024002033
:100B500007F064FE84B2601C84B2B4F57A7F15DAC3
:100B600000F000FBD6480560D6490A6842608988D3
:100B7000018144810646601E00EB40008100304642
:100B8000FFF7A1FF0021204607F0BAFD70BD10B5A8
:100B9000CD48007801280AD04FF404610120FFF706
:100BA000C2FF0120C94908700020C949088010BD52
:100BB00010B5C8480068C8490988884233DBFFF788
:100BC000E6FFC4480068FFF7BFFF0020C349087074
:100BD0000AE00021C248C14A127840F82210BF48FA
:100BE0000078401CBD490870BC4800781E28F0D32E
:100BF0000020BC490870BC490870B84908700AE078
:100C00000021BA48B54A127840F82210B34800785B
:100C1000401CB2490870B14800781E28F0D300206B
:100C2000B349087035E1AB48006800287ED0012048
:100C3000AD490870A7480168AA4802780078401CAE
:100C4000A84B1870A64840F822100020A949086057
:100C5000A24908700EE0A248A049097850F8210086
:100C6000A44909680844A34908609C480078401CCE
:100C70009A490870994800789F4909888842EADBB8
:100C80009C4800689D49098888421DD3FFF77FFF73
:100C900098480068FFF758FF0020904908700AE064
:100CA00000218F488D4A127840F822108B48007836
:100CB000401C8A490870894800781E28F0D300201B
:100CC0008849087088490870864800788A490988E8
:100CD000884217DB0020814908700AE00020804923
:100CE0007E4A127841F822007C480078401C7B49FB
:100CF00008707A4800781E28F0D3002079490870DF
:100D00007949087073480168794802780078401C76
:100D1000774B1870754840F82210184600787849CB
:100D20000988884238DBFFF732FF00E034E000201A
:100D300074490860694908700EE06C486749097891
:100D400050F821006F49096808446E4908606348FB
:100D50000078401C6149087060480078684909883B
:100D60008842EADB67480068FFF7EEFE00205B4937
:100D700008700AE000205D49584A127841F82200C4
:100D800056480078401C55490870544800781E2881
:100D9000F0D30020564908704E480068002878D1EA
:100DA00051480078B8B900204C4908700AE000208A
:100DB0004B494A4A127841F8220048480078401CC2
:100DC00046490870454800781E28F0D30020454960
:100DD00008704549087044480078012843D13D48CF
:100DE0000168404802780078401C3E4B18703C482F
:100DF00040F8221000203F490860384908700EE092
:100E000037483649097850F821003A4909680844BA
:100E10003849086031480078401C304908702F4834
:100E20000078354909888842EADB2E480078324943
:100E30000988884217DB0020284908700AE0002151
:100E40002748264A127840F8221024480078401C8F
:100E500022490870214800781E28F0D3002021493B
:100E600008702149087000201C4908700AE0002021
:100E70001E491A4A127841F8220018480078401C8E
:100E800016490870154800781E28F0D3002018492C
:100E9000087010BD70B504461B4E44B1601E00EBD7
:100EA000400085000C2229463046FFF71AFE70BD2F
:100EB00010B504221549504200F02AF810BD000078
:100EC0007C0500204F0000204A0000204800002040
:100ED00046000020340000203C00002018000020C4
:100EE0008C040020190000201B00002004050020B5
:100EF0001A0000201C000020400000203E000020BE
:100F0000420000202000002088050020240000204E
:100F100010B50B4600212F4C204404E050F8014B43
:100F200043F82140491C9142F8D310BD30B500234D
:100F3000284C204404E050F8015B0D705B1C491CF8
:100F40009342F8D330BD70B504460D4607F0B0FEAD
:100F5000352007F015FE1F4807F018FE1E490870DF
:100F600008460078042806D11A496018294607F077
:100F700071FE19490870352007F002FE07F03AFEAD
:100F800070BD2DE9F04104460D460026062707F006
:100F90008FFE352007F0F4FD0E4807F0F7FD0E49EF
:100FA00008700846007804280DD10AE02988094A0B
:100FB000A01807F033FE08490870A41CAD1C701C73
:100FC000C6B2BE42F2DB352007F0DAFD07F012FEB2
:100FD000BDE8F08100F807085500002010B5012198
:100FE0004FF0C05007F0B0FF012007F09BFF07F063
:100FF000BDFD012008F0A6F800BF412008F048F828
:101000000028FAD04FF4807008F0D6F8012008F0DC
:10101000CDF808F04BF908F03FF90121084608F037
:101020001DF908F039F947F6FF7008F025F908F0C6
:1010300033F910BD2DE9F04104460D4616465548DA
:1010400084714571C6702021002007F0A8F851482E
:10105000C0780A2190FBF1F201FB12004D49C978DA
:101060000A2291FBF2F100EB0110C7B239460520CC
:1010700007F095F8474840790A2190FBF1F201FB0F
:101080001200444949790A2291FBF2F100EB011068
:10109000C7B23946072007F082F83E4880790A2116
:1010A00090FBF1F201FB12003A4989790A2291FB87
:1010B000F2F100EB0110C7B23946082007F06FF8D3
:1010C0000021084607F06BF8BDE8F0812DE9F041FA
:1010D00004460D4616462F48067045708470202140
:1010E000002007F05CF82B4800780A2190FBF1F211
:1010F00001FB1200274909780A2291FBF2F100EB6B
:101100000110C7B23946022007F049F8214840785B
:101110000A2190FBF1F201FB12001E4949780A22D4
:1011200091FBF2F100EB0110C7B23946032007F042
:1011300036F8184880780A2190FBF1F201FB120082
:10114000144989780A2291FBF2F100EB0110C7B231
:101150003946042007F023F80021084607F01FF85D
:10116000BDE8F08110B507F063F90B4880790B49B1
:1011700008700948407948700748C0788870064868
:101180008078C87004484078087103480078487136
:1011900010BD000056000020B80000204F000020C5
:1011A00010B504462146FF4808F0E4F900BF80214D
:1011B000FC4808F058F90028F9D010BD10B50446D5
:1011C00003E02078FFF7ECFF641C20780028F8D1BA
:1011D00010BD10B5EE20FFF7E3FF10BD10B5FF20E6
:1011E000FFF7DEFFFC20FFF7DBFFFF20FFF7D8FF54
:1011F000FF20FFF7D5FF10BD10B5FFF7EAFF002075
:10120000FFF7CEFFFFF7EAFF10BD10B50446FFF76A
:10121000E0FF4120FFF7C4FF200AFFF7C1FFE0B263
:10122000FFF7BEFFFFF7DAFF10BD10B50446FFF76A
:10123000D0FF4220FFF7B4FF200AFFF7B1FFE0B272
:10124000FFF7AEFFFFF7CAFF10BD70B506460C46AC
:101250001546FFF7BEFFA320FFF7A2FF3046FFF7BA
:101260009FFF200AFFF79CFFE0B2FFF799FF280AD3
:10127000FFF796FFE8B2FFF793FFFFF7AFFF70BDF0
:1012800010B5FFF7A6FF0120FFF78AFFFFF7A6FFC3
:1012900010BD70B505460C46FFF79BFF4320FFF7D6
:1012A0007FFF2846FFF77CFF2046FFF779FFFFF717
:1012B00095FF70BD70B506460C461546FFF789FFD1
:1012C0004520FFF76DFF3046FFF76AFF200AFFF762
:1012D00067FFE0B2FFF764FF280AFFF761FFE8B29B
:1012E000FFF75EFFFFF77AFF70BD70B504460D464D
:1012F000FFF76FFF4420FFF753FF200AFFF750FF6F
:10130000E0B2FFF74DFF280AFFF74AFFE8B2FFF708
:1013100047FFFFF763FF70BD2DE9F04104460D461E
:1013200016461F46DDF81880FFF753FF2020FFF711
:1013300037FF200AFFF734FFE0B2FFF731FF280A3A
:10134000FFF72EFFE8B2FFF72BFF3046FFF728FF2D
:101350003846FFF725FF4046FFF730FFFFF73EFF17
:10136000BDE8F0812DE9F04104460D4616461F46C2
:10137000DDF81880FFF72DFF2020FFF711FF200A6E
:10138000FFF70EFFE0B2FFF70BFF280AFFF708FF99
:10139000E8B2FFF705FF3046FFF702FF3846FFF7D8
:1013A000FFFE4046FFF7FCFEFFF718FFBDE8F081A7
:1013B0002DE9F04180460D4616461C46069FFFF774
:1013C00008FF2120FFF7ECFE4046FFF7E9FE280A60
:1013D000FFF7E6FEE8B2FFF7E3FE300AFFF7E0FEB4
:1013E000F0B2FFF7DDFE2046FFF7DAFE3846FFF7E2
:1013F000D7FEFFF7F3FEBDE8F08170B504460D4659
:10140000FFF7E7FE3120FFF7CBFE200AFFF7C8FE0B
:10141000E0B2FFF7C5FE2846FFF7C2FEFFF7DEFE8B
:1014200070BD2DE9F04104460D4616461F46FFF7F4
:10143000D0FE3220FFF7B4FE200AFFF7B1FEE0B283
:10144000FFF7AEFE280AFFF7ABFEE8B2FFF7A8FEF3
:10145000300AFFF7A5FEF0B2FFF7A2FE3846FFF70D
:101460009FFEFFF7BBFEBDE8F0812DE9F05F04466B
:101470000D4616461F46DDE90CABDDE90A89FFF78C
:10148000A8FE3320FFF78CFE200AFFF789FEE0B2AA
:10149000FFF786FE280AFFF783FEE8B2FFF780FE1B
:1014A000300AFFF77DFEF0B2FFF77AFE380AFFF749
:1014B00077FEF8B2FFF774FE4FEA1820FFF770FED0
:1014C00008F0FF00FFF76CFE4FEA1920FFF768FEF7
:1014D00009F0FF00FFF764FE4FEA1A20FFF760FEF5
:1014E0000AF0FF00FFF75CFE5846FFF759FEFFF7D2
:1014F00075FEBDE8F09F2DE9F04104460D46164605
:101500001F46DDF81880FFF764FE8020FFF748FED5
:10151000200AFFF745FEE0B2FFF742FE280AFFF778
:101520003FFEE8B2FFF73CFE300AFFF739FEF0B2AB
:10153000FFF736FE3846FFF733FE4046FFF730FE32
:10154000FFF74CFEBDE8F08170B504460D46FFF78D
:1015500040FE5020FFF724FE200AFFF721FEE0B2F4
:10156000FFF71EFE280AFFF71BFEE8B2FFF718FE82
:10157000FFF734FE70BD2DE9F04104460D461646D6
:101580001F46FFF726FE5120FFF70AFE200AFFF74D
:1015900007FEE0B2FFF704FE280AFFF701FEE8B2FB
:1015A00002E0000000440040FFF7FAFD300AFFF7B8
:1015B000F7FDF0B2FFF7F4FD380AFFF7F1FDF8B2DE
:1015C000FFF7EEFDFFF70AFEBDE8F08170B50546B6
:1015D0000C46FFF7FEFD6320FFF7E2FD2846FFF70C
:1015E000DFFD2046FFF7EAFDFFF7F8FD70BD70B59F
:1015F00004460D461646FFF7ECFD5220FFF7D0FDDE
:10160000200AFFF7CDFDE0B2FFF7CAFD280AFFF779
:10161000C7FDE8B2FFF7C4FD300AFFF7C1FDF0B225
:10162000FFF7BEFDFFF7DAFD70BD70B504460D464D
:101630001646FFF7CEFD5320FFF7B2FD200AFFF755
:10164000AFFDE0B2FFF7ACFD280AFFF7A9FDE8B255
:10165000FFF7A6FD300AFFF7A3FDF0B2FFF7A0FDEC
:10166000FFF7BCFD70BD2DE9F04104460D4616465E
:101670001F46DDF81880FFF7ACFD6720FFF790FDEF
:10168000200AFFF78DFDE0B2FFF78AFD280AFFF779
:1016900087FDE8B2FFF784FD300AFFF781FDF0B265
:1016A000FFF77EFD380AFFF77BFDF8B2FFF778FD04
:1016B0004FEA1820FFF774FD08F0FF00FFF770FDF8
:1016C000FFF78CFDBDE8F0812DE9F04104460D46A1
:1016D00016461F46FFF77DFD5420FFF761FD200AE7
:1016E000FFF75EFDE0B2FFF75BFD280AFFF758FD4C
:1016F000E8B2FFF755FD300AFFF752FDF0B2FFF7F1
:101700004FFD380AFFF74CFDF8B2FFF749FDFFF730
:1017100065FDBDE8F0812DE9F04104460D46164611
:101720001F46FFF756FD5520FFF73AFD200AFFF749
:1017300037FDE0B2FFF734FD280AFFF731FDE8B2CC
:10174000FFF72EFD300AFFF72BFDF0B2FFF728FD63
:10175000380AFFF725FDF8B2FFF722FDFFF73EFD3F
:10176000BDE8F0812DE9F04104460D4616461F46BE
:10177000FFF72FFD6520FFF713FD200AFFF710FD8F
:10178000E0B2FFF70DFD280AFFF70AFDE8B2FFF708
:1017900007FD300AFFF704FDF0B2FFF701FD380A3C
:1017A000FFF7FEFCF8B2FFF7FBFCFFF717FDBDE803
:1017B000F0812DE9F04104460D4616461F46FFF71D
:1017C00008FD5620FFF7ECFC200AFFF7E9FCE0B229
:1017D000FFF7E6FC280AFFF7E3FCE8B2FFF7E0FCBE
:1017E000300AFFF7DDFCF0B2FFF7DAFC380AFFF74A
:1017F000D7FCF8B2FFF7D4FCFFF7F0FCBDE8F081AE
:101800002DE9F04104460D4616461F46FFF7E1FC60
:101810005720FFF7C5FC200AFFF7C2FCE0B2FFF734
:10182000BFFC280AFFF7BCFCE8B2FFF7B9FC300A9E
:10183000FFF7B6FCF0B2FFF7B3FC380AFFF7B0FCD5
:10184000F8B2FFF7ADFCFFF7C9FCBDE8F08170B559
:1018500004460D461646FFF7BCFC6420FFF7A0FCCB
:10186000200AFFF79DFCE0B2FFF79AFC280AFFF779
:1018700097FCE8B2FFF794FC300AFFF791FCF0B256
:10188000FFF78EFCFFF7AAFC70BD10B50446FFF70A
:10189000A0FC6020FFF784FC2046FFF781FCFFF7E7
:1018A0009DFC10BD10B50446FFF793FC6120FFF7C7
:1018B00077FC2046FFF774FCFFF790FC10BD10B5D5
:1018C0000446FFF786FCA020FFF76AFC2046FFF7DE
:1018D00067FCFFF783FC10BD10B50446FFF779FCE9
:1018E0007020FFF75DFC2046FFF75AFCFFF776FCFF
:1018F00010BD10B5FFF76DFC7220FFF751FCFFF72C
:101900006DFC10BD10B5FFF764FC7320FFF748FCB9
:10191000FFF764FC10BD10B50446FFF75AFCA12088
:10192000FFF73EFC2046FFF73BFCFFF757FC10BDDE
:1019300010B50446FFF74DFCA220FFF731FC20460E
:10194000FFF72EFCFFF74AFC10BD70B505460C46AC
:10195000FFF73FFCA420FFF723FC2846FFF720FCFD
:101960002046FFF71DFCFFF739FC70BD10B504469B
:10197000FFF72FFC0520FFF713FC2046FFF710FCB4
:10198000FFF72CFC10BD10B50446FFF722FC062023
:10199000FFF706FC2046FFF703FCFFF71FFC10BD16
:1019A00010B50446FFF715FCB120FFF7F9FB002046
:1019B000FFF7F6FB2012FFF7F3FBE0B2FFF7F0FBB7
:1019C000FFF70CFC10BD10B5FFF703FCB120FFF7CB
:1019D000E7FB0120FFF7E4FBFFF700FC10BD70B54B
:1019E00004460D461646FFF7F4FBB120FFF7D8FB7F
:1019F0001020FFF7D5FB2012FFF7D2FBE0B2FFF774
:101A0000CFFB2812FFF7CCFBE8B2FFF7C9FB30464B
:101A1000FFF7C6FBFFF7E2FB70BD70B504460D464D
:101A2000FFF7D7FBB120FFF7BBFB1120FFF7B8FB97
:101A30002012FFF7B5FBE0B2FFF7B2FB2812FFF769
:101A4000AFFBE8B2FFF7ACFBFFF7C8FB70BD70B5AA
:101A500005460E461446FFF7BCFBB120FFF7A0FB7E
:101A60001020FFF79DFB2812FFF79AFBE8B2FFF763
:101A700097FB3012FFF794FBF0B2FFF791FB00BF2A
:101A80002078FFF78DFB14F8011B0029F8D1FFF730
:101A9000A5FB70BD70B504460D46FFF79AFBB1205B
:101AA000FFF77EFB1120FFF77BFB2012FFF778FB8F
:101AB000E0B2FFF775FB2812FFF772FBE8B2FFF701
:101AC0006FFBFFF78BFB70BD70B504460D461646E5
:101AD000FFF77FFBB120FFF763FB0220FFF760FBFE
:101AE0002012FFF75DFBE0B2FFF75AFB2812FFF769
:101AF00057FBE8B2FFF754FB3046FFF751FBFFF707
:101B00006DFB70BD70B505460E461446FFF761FBD0
:101B1000B120FFF745FB1020FFF742FB2812FFF72B
:101B20003FFBE8B2FFF73CFB3012FFF739FBF0B2A6
:101B3000FFF736FB200EFFF733FBC4F30740FFF738
:101B40002FFBC4F30720FFF72BFBE0B2FFF728FBC6
:101B5000FFF744FB70BD70B504460D46FFF739FB37
:101B6000B120FFF71DFB1120FFF71AFB2012FFF732
:101B700017FBE0B2FFF714FB2812FFF711FBE8B2E6
:101B8000FFF70EFBFFF72AFB70BD70B505460E464A
:101B90001446FFF71EFBB120FFF702FB1020FFF7F2
:101BA000FFFA2812FFF7FCFAE8B2FFF7F9FA301251
:101BB000FFF7F6FAF0B2FFF7F3FA200EFFF7F0FAAC
:101BC000C4F30740FFF7ECFAC4F30720FFF7E8FA85
:101BD000E0B2FFF7E5FAFFF701FB70BD70B5044610
:101BE0000D46FFF7F6FAB120FFF7DAFA1120FFF7FA
:101BF000D7FA2012FFF7D4FAE0B2FFF7D1FA281291
:101C0000FFF7CEFAE8B2FFF7CBFAFFF7E7FA70BDBD
:101C100070B505460E461446FFF7DBFAB120FFF714
:101C2000BFFA1020FFF7BCFA2812FFF7B9FAE8B2A2
:101C3000FFF7B6FA3012FFF7B3FAF0B2FFF7B0FAD7
:101C4000200EFFF7ADFAC4F30740FFF7A9FAC4F37B
:101C50000720FFF7A5FAE0B2FFF7A2FAFFF7BEFAF6
:101C600070BD70B504460D46FFF7B3FAB120FFF71B
:101C700097FA1120FFF794FA2012FFF791FAE0B2D9
:101C8000FFF78EFA2812FFF78BFAE8B2FFF788FA0F
:101C9000FFF7A4FA70BD70B506460C461546FFF76F
:101CA00098FAB120FFF77CFA3046FFF779FA201254
:101CB000FFF776FAE0B2FFF773FA2812FFF770FA2F
:101CC000E8B2FFF76DFAFFF789FA70BD70B5044608
:101CD0000D461646FFF77DFAB120FFF761FA232083
:101CE000FFF75EFA2012FFF75BFAE0B2FFF758FA4F
:101CF0002812FFF755FAE8B2FFF752FA3046FFF71D
:101D00004FFAFFF76BFA70BD2DE9F04104460D461E
:101D100017461E46FFF75DFAB120FFF741FA302063
:101D2000FFF73EFA2012FFF73BFAE0B2FFF738FA6E
:101D30002812FFF735FAE8B2FFF732FA3846FFF714
:101D40002FFA3012FFF72CFAF0B2FFF729FAFFF75B
:101D500045FABDE8F08170B504460D461646FFF71A
:101D600038FAB120FFF71CFA3120FFF719FA2012D8
:101D7000FFF716FAE0B2FFF713FA2812FFF710FA8E
:101D8000E8B2FFF70DFA3046FFF70AFAFFF726FA36
:101D900070BD2DE9F04104460D4617461E46DDF89C
:101DA0001880FFF716FAB120FFF7FAF93220FFF793
:101DB000F7F92012FFF7F4F9E0B2FFF7F1F9281272
:101DC000FFF7EEF9E8B2FFF7EBF93846FFF7E8F96D
:101DD0003012FFF7E5F9F0B2FFF7E2F94046FFF7FE
:101DE000DFF9FFF7FBF9BDE8F08170B504460D4659
:101DF0001646FFF7EEF9B120FFF7D2F93320FFF7CF
:101E0000CFF92012FFF7CCF9E0B2FFF7C9F9281299
:101E1000FFF7C6F9E8B2FFF7C3F93046FFF7C0F99C
:101E2000FFF7DCF970BD2DE9F04704460D46164674
:101E30001F46DDE90889FFF7CCF9B120FFF7B0F9BB
:101E40003420FFF7ADF92012FFF7AAF9E0B2FFF74F
:101E5000A7F92812FFF7A4F9E8B2FFF7A1F93012A9
:101E6000FFF79EF9F0B2FFF79BF93812FFF798F9E8
:101E7000F8B2FFF795F94FEA2820FFF791F908F03B
:101E8000FF00FFF78DF94FEA2920FFF789F909F0E4
:101E9000FF00FFF785F9FFF7A1F9BDE8F0872DE90D
:101EA000F04781460D4616461C46DDE90878FFF7E7
:101EB00090F98520FFF774F94846FFF771F9284635
:101EC000FFF76EF93046FFF76BF92012FFF768F95C
:101ED000E0B2FFF765F93812FFF762F9F8B2FFF7E1
:101EE0005FF94FEA2820FFF75BF908F0FF00FFF7E2
:101EF00057F9FFF773F9BDE8F0872DE9F04707467A
:101F00000C4615461E46DDE9099ADDF82080FFF7EC
:101F100060F98520FFF744F93846FFF741F920467C
:101F2000FFF73EF92846FFF73BF93046FFF738F94F
:101F30004046FFF735F94846FFF732F95046FFF7BC
:101F40002FF9FFF74BF9BDE8F08710B5FFF741F91E
:101F50008120FFF725F9FFF741F910BD10B50028E2
:101F600009DB092807DC30220A704A7000F13002D0
:101F70008A700022CA700A2811DB63280FDC302225
:101F80000A700A2290FBF2F230324A700A2290FB69
:101F9000F2F302FB130230328A700022CA70642806
:101FA0001ADBB0F57A7F17DA642290FBF2F2303256
:101FB0000A700A2290FBF2F20A2392FBF3F403FB6D
:101FC000142230324A700A2290FBF2F302FB130211
:101FD00030328A700022CA7010BD2DE9F04FA1B0D6
:101FE0000026002700200E900D904FF0080A804632
:101FF00083460C9081460B900A9009900025FF487B
:102000008179407941EA0026FC48017AC07941EAA9
:10201000002700BFF948801C10F80A0014A901F835
:1020200008000AF1010000F0FF0A08F1010000F0C9
:10203000FF08F2480088401F5045EBDC002001F803
:102040000800012E7ED1202FFCD1ED480068002829
:10205000F8D1202006F022FCEA4908705820FEF74B
:102060001CF9E848027810210FA806F05CFC00205B
:102070000FA9E44A12788854E3490978C1F10300B2
:10208000FFF749FCE148007810B101287DD19BE0C1
:1020900014A90FA806F013FD002867D14FF6FF70B2
:1020A000FFF7B3F840F21F1340F2DF12E521B5202D
:1020B000FFF731FB4FF4B4734FF4FA724FF496719B
:1020C000C820FFF728FB0020FFF79FF8D0480078D2
:1020D000C0EB0010CF4901EB4010D0F85431009311
:1020E000062300224FF49671C820FFF715F9C8485F
:1020F0000078C0EB0010C74901EB4010D0F8583110
:10210000009305230022F021C820FFF705F9C248FB
:10211000007880B9BE480078C0EB0010BD4901EBE3
:102120004010D0F85C310093052300224FF48771F2
:10213000C820FFF7F1F8B8480078012812D1B44858
:10214000007800E0BBE0C0EB0010B24901EB4010AA
:10215000D0F860310093052300224FF48771C82026
:10216000FFF7DAF80120A94908702CE04FF6FF705C
:10217000FFF74BF840F21F1340F2DF12E521B520C4
:10218000FFF7C9FA4FF4B47300E088E04FF4FA7235
:102190004FF49671C820FFF7BEFA0020FFF735F81C
:1021A0009B480078C0EB00109A4901EB4010D0F832
:1021B0006431009306230022E621C820FFF7ACF823
:1021C0000020924908706BE09DF85100002865D10D
:1021D0004FF6FF70FFF719F840F21F1340F2DF12BD
:1021E000E521B520FFF797FA4FF4B4734FF4FA7274
:1021F0004FF49671C820FFF78EFA482340F26B2205
:10220000002140F2F510FFF786FA0020FEF7FDFFEF
:102210008148007810B101283BD11DE07C4800784E
:10222000C0EB00107B4901EB4010D0F868310093FF
:1022300006230022E621C820FFF76EF800231A4685
:102240000C2140F21620FFF7ECF8012072490870CB
:102250000420724908701DE06D480078C0EB001042
:102260006C4901EB4010D0F86C310093062300223A
:10227000E621C820FFF750F8002301220C2140F28C
:102280001620FFF7CEF800206349087063490870F4
:1022900000E000BF00BF00205C49087000E000BF04
:1022A00000BF59490978C1F10300FFF741FB5649C6
:1022B0000978C1F1030054490978FFF746FB012E64
:1022C0007ED1202F7CD14E4800683D2878D19DF8E2
:1022D00051109DF85000303800EB800001EB4000B9
:1022E0003038C0B209909DF854109DF85300303832
:1022F00000EB800001EB4000303800F0FF0B9DF850
:1023000057109DF85600303800EB800001EB40007C
:102310003038C0B20C909DF850002E2855D09DF852
:1023200051002E2851D09DF852002E284DD19DF8F5
:1023300053002E2849D09DF854002E2845D09DF8F2
:1023400055002E2841D19DF856002E283DD09DF8ED
:1023500057002E2839D09DF8580090BB09980028C6
:1023600033DBB9F1640F30DABBF1000F2DDDBBF1C7
:102370000D0F2ADA0C98002827DD0C98202824DA83
:1023800059460C9A0998FEF755FE01202449087019
:10239000FDF7DCFE4FF6FF70FEF737FF40F21F132C
:1023A00040F2DF12E521B520FFF7B5F90020FEF776
:1023B0002CFF14AB009309230022E621C82001E082
:1023C00037E002E0FEF7A8FF33E04FF6FF70FEF7BC
:1023D0001CFF40F21F1340F2DF12E521B520FFF78A
:1023E0009AF90020FEF711FF09480078C0EB0010B1
:1023F000084901EB4010D0F8703113E02E060020A0
:1024000068000020640000206500002060000020BB
:10241000C0000020C40000206300002061000020F4
:102420004E000020009306230022E621C820FEF77C
:1024300073FF012E7ED1202F7CD1FF4800683E28FB
:1024400078D19DF851109DF85000303800EB800095
:1024500001EB4000303800F0FF099DF854109DF862
:102460005300303800EB800001EB40003038C0B240
:102470000B909DF857109DF85600303800EB800007
:1024800001EB40003038C0B20A909DF850002E2871
:1024900057D09DF851002E2853D09DF852002E2879
:1024A0004FD19DF853002E284BD09DF854002E2874
:1024B00047D09DF855002E2843D19DF856002E2870
:1024C0003FD09DF857002E283BD09DF8580090BB78
:1024D000B9F1000F35DBB9F1180F32DA0B9800288B
:1024E0002FDB0B983C282CDA0A98002829DB0A9865
:1024F0003C2826DA3A208DF852008DF855004846DF
:10250000DDE90A21FEF7E2FDFDF720FE4FF6FF7040
:10251000FEF77BFE40F21F1340F2DF12E521B520EB
:10252000FFF7F9F80020FEF770FE14AB00930923C3
:10253000002201E024E004E0E621C820FEF7ECFEE2
:102540001EE04FF6FF70FEF760FE40F21F1340F2F0
:10255000DF12E521B520FFF7DEF80020FEF755FE7B
:10256000B6480078C0EB0010B54901EB4010D0F838
:102570007031009306230022E621C820FEF7CCFE2E
:10258000012E74D1202FFCD1AB4800683F28F8D130
:10259000AC48007820B101286AD0022869D1EBE06C
:1025A000202006F07BF9A84908705820FDF775FE39
:1025B000A548027810210FA806F0B5F900210FA850
:1025C000A14A1278815414A906F079FAF0BB4FF6AB
:1025D000FF70FEF71AFE40F21F1340F2DF12E521F2
:1025E000B520FFF798F84FF4B4734FF4FA724FF434
:1025F0009671C820FFF78FF80020FEF706FE8F487F
:102600000078C0EB00108E4901EB4010D0F8543137
:102610000093062300224FF49671C820FEF77CFE3B
:1026200086480078C0EB0010854901EB4010D0F8D7
:102630005831009305230022F021C820FEF76CFEDC
:102640007E480078C0EB00107D4900E012E001EB0D
:102650004010D0F874310093052300224FF48771A5
:10266000C820FEF759FE0120764908702DE0CDE024
:102670002CE0C9E04FF6FF70FEF7C7FD40F21F13D4
:1026800040F2DF12E521B520FFF745F84FF4B473AF
:102690004FF4FA724FF49671C820FFF73CF800200F
:1026A000FEF7B3FD65480078C0EB0010644901EB0C
:1026B0004010D0F86431009306230022E621C820A0
:1026C000FEF72AFE00205F4908709EE014215F4853
:1026D00006F0D3F914A95D4806F0FFF94FF6FF7034
:1026E000FEF793FD40F21F1340F2DF12E521B52003
:1026F000FFF711F84FF4B4734FF4FA724FF4967178
:10270000C820FFF708F80020FEF77FFD4B4800784F
:10271000C0EB00104A4901EB4010D0F8783100932B
:10272000062300224FF49671C820FEF7F5FD4348BA
:102730000078C0EB0010424901EB4010D0F858314E
:10274000009305230022F021C820FEF7E5FD3B4859
:102750000078C0EB00103A4901EB4010D0F87C3112
:102760000093052300224FF48771C820FEF7D4FDA3
:1027700002203449087048E09DF85000E8BB334817
:1027800006F095F93049087020212F48007806F0AE
:102790006BF85820FDF781FD2B48027810212B485B
:1027A00006F09DF84FF6FF70FEF72FFD40F21F1365
:1027B00040F2DF12E521B520FEF7ADFF4FF4B47310
:1027C0004FF4FA724FF49671C820FEF7A4FF002070
:1027D000FEF71BFD19480078C0EB0010184901EB0B
:1027E0004010D0F88031009306230022E621C82053
:1027F000FEF792FD1421154800E004E006F03DF9D3
:1028000000201049087000E000BF00BF012E7ED1FB
:10281000202FFCD108480068B0F5FA7F77DB064826
:102820000068B0F5FC7F72DC002400200390029069
:10283000CDF80C800CE0000068000020C0000020F3
:10284000C4000020620000206400002098060020E0
:102850009DF8500008B900252CE0002428E00398DA
:10286000401EC0B203900398029014A8005D303857
:1028700014A9085514A8005D04A921F814000DE05E
:1028800004A830F8140000EB80004004000C04A9F8
:1028900021F814000298401EC0B20290029800284D
:1028A000EEDC04A830F81400284485B2601CC4B2E1
:1028B0004445D4DB4FF6FF70FEF7A7FC40F21F1330
:1028C00040F2DF12E521B520FEF725FF0020FEF7DC
:1028D0009CFCFF480068A0F5FA70052876D2DFE876
:1028E00000F0031A2F475F00FA480580FA49008874
:1028F000FFF734FBF84B009309230022E6214FF445
:102900008C70FEF709FD0221F248008800E060E0CB
:1029100005F0F6FE5BE0F1480580EF490088FFF71F
:102920001DFBED4B009309230022E6214FF48C7030
:10293000FEF7F2FC0421E948008805F0E1FE46E0DC
:10294000E7480580E4490088FFF708FBE24B009365
:1029500009230022E6214FF48C70FEF7DDFCE049EC
:10296000098801EB81014800062105F0C9FE2EE02F
:10297000DC480580D8490088FFF7F0FAD64B009371
:1029800009230022E6214FF48C70FEF7C5FCD549DF
:10299000098801EB81014800082105F0B1FE16E02D
:1029A000D1480580CC490088FFF7D8FACA4B00937C
:1029B00009230022E6214FF48C70FEF7ADFC0A21BA
:1029C000C948008805F09CFE01E0FFE700BF00BF9A
:1029D00000BF21B0BDE8F08F10B500280ADB092840
:1029E00008DC30220A704A708A7000F13002CA7026
:1029F00000220A710A2812DB632810DC30220A70D8
:102A00004A700A2290FBF2F230328A700A2290FB5E
:102A1000F2F302FB13023032CA7000220A716428FA
:102A20001CDBB0F57A7F19DA30220A70642290FB41
:102A3000F2F230324A700A2290FBF2F20A2392FB41
:102A4000F3F403FB142230328A700A2290FBF2F373
:102A500002FB13023032CA7000220A71B0F57A7F8D
:102A600025DB42F20F72904221DC4FF47A7290FB28
:102A7000F2F230320A70642290FBF2F20A2392FBE7
:102A8000F3F403FB142230324A700A2290FBF2F274
:102A900092FBF3F403FB142230328A700A2290FB7B
:102AA000F2F302FB13023032CA7000220A7110BD29
:102AB000002808DB092806DC30220A7000F1300209
:102AC0004A7000228A700A280FDB63280DDC0A2274
:102AD00090FBF2F230320A700A2290FBF2F302FB12
:102AE000130230324A7000228A707047F8B50446EB
:102AF000002C7EDD204605F068FF7C4908797C4982
:102B0000FFF7D6FF794948797A49FFF7D1FF77492E
:102B100088797949FFF7CCFF7449C8797749FFF77D
:102B2000C7FF7249087A7649FFF7C2FF6F49487AB2
:102B30007449FFF7BDFF74A1704805F0AAFF07466E
:102B40006F4905F0A6FF06466FA105F0A2FF0546F6
:102B50006C4905F09EFF6DA1654805F09AFF074698
:102B6000644905F096FF064668A105F092FF054608
:102B7000614905F08EFF4FF6FF70FEF746FB4FF4FC
:102B8000AF7340F2622278210120FEF7C4FD0020DD
:102B9000FEF73BFB594B0093022300227A210F20C2
:102BA000FEF7BAFB524B00930223002293210F2021
:102BB000FEF7B2FB56A30093092300227321912054
:102BC000FEF7AAFB53A30093092300227321EB20F5
:102BD000FEF7A2FB4549C8794849FFF769FF434919
:102BE000087A4749FFF764FF4049497A481C45493C
:102BF00000E04FE0FFF75CFF43A1404805F049FFCC
:102C000007463F4905F045FF06463FA105F041FF55
:102C100005463C4905F03DFF344948893E49FFF7E8
:102C2000DBFE364B0093022300227A214FF4AA7078
:102C3000FEF772FB2E4B00930223002293214FF4E8
:102C4000AA70FEF769FB344B00930923002273211D
:102C50004FF4EB70FEF760FB30480078C0EB0010DB
:102C60002F4901EB40104369009303230022AF2159
:102C70000F20FEF751FB29480078C0EB00102849CF
:102C800001EB4010836B009302230022CD210F2023
:102C9000FEF742FBF8BDF8B50446002C7EDD204669
:102CA000FEF7F8F81F4908791F49FFF701FF1D4992
:102CB00048791E49FFF7FCFE1A4988791C49FFF73D
:102CC000F7FE1849C8791B49FFF7F2FE154933E0B2
:102CD000680000203C0000201A0700203E00002071
:102CE000400000204200002044000020A0050020F9
:102CF000AC060020860000208B000020BB060020D0
:102D000090000020810000203A0000002E0000000A
:102D10004447000030303100AE000020C0000020E9
:102D2000C400002088050020CA0600209A00002068
:102D30009F000020D9060020087AFF49FFF7B8FE5F
:102D4000FE49487AFE49FFF7B3FEAFF24401FD4861
:102D500005F09FFE0746F84905F09BFE0646AFF2D8
:102D6000580105F096FE0546F54905F092FEAFF2D2
:102D70006401F54805F08DFE0746F44905F089FE2B
:102D80000646AFF2780105F084FE0546F04905F0ED
:102D900080FE4FF6FF70FEF738FA00E0AEE04FF429
:102DA000A57340F26222F1210120FEF7B4FC00205D
:102DB000FEF72BFAE34B009302230022F2210F20AF
:102DC000FEF7AAFAE04B00930223002240F20B1117
:102DD0000F20FEF7A1FAAFF2C803009309230022E7
:102DE000EB219120FEF798FAAFF2D8030093092364
:102DF0000022EB210846FEF78FFAD049C879D14965
:102E0000FFF756FECD49087ACB49FFF751FECB4973
:102E1000497A481DCA49FFF74BFEAFF21411C94861
:102E200005F037FE0746C44905F033FE0646AFF20B
:102E3000281105F02EFE0546C14905F02AFEBF49BE
:102E40004889C449FFF7C8FDBE4B00930223002206
:102E5000F2214FF4AA70FEF75FFABB4B00930223F6
:102E6000002240F20B114FF4AA70FEF755FAB94B4D
:102E7000009309230022EB214800FEF74DFAB648E3
:102E80000078C0EB0010B54901EB40104369009396
:102E9000032300224FF491710F20FEF73DFAA7495A
:102EA0000868AF49FFF75AF8AB480078C0EB00104C
:102EB000AA4A02EB4010D0F84811AA4805F0E9FDF3
:102EC0000646A74905F0E5FD0546A3480078C0EB96
:102ED0000010A24A02EB4010D0F84C11284605F031
:102EE000D8FDA04B0093022300224FF4A0710F20C5
:102EF000FEF712FA32219B4805F0BFFDF8BDF8B588
:102F00000446002C7EDD2046FDF7C4FF8B4908797E
:102F10009549FFF7CDFD894948799449FFF7C8FDE8
:102F2000864988799249FFF7C3FD8449C879914958
:102F3000FFF7BEFD8149087A8F49FFF7B9FD7F4948
:102F4000487A8E49FFF7B4FDAFF24421894805F075
:102F5000A0FD0746884905F09CFD0646AFF25821C2
:102F600005F097FD0546854905F093FDAFF2642114
:102F70007D4805F08EFD07467C4905F08AFD064632
:102F8000AFF2782105F085FD0546794905F081FD10
:102F90004FF6FF70FEF739F94FF4AF7340F262223B
:102FA00078210120FEF7B7FB0020FEF72EF9714BC8
:102FB0000093022300227A210F20FEF7ADF96A4B1D
:102FC00000930223002293210F20FEF7A5F9AFF210
:102FD000C02300930923002273219120FEF79CF95E
:102FE000AFF2D0230093092300227321EB20FEF7D8
:102FF00093F95249C8795F49FFF75AFD4F49087A5A
:103000005D4900E076E0FFF753FD4C49497A481DE1
:103010005A49FFF74DFDAFF21031564805F039FD22
:103020000746554905F035FD0646AFF2243105F057
:1030300030FD0546514905F02CFD40494889454978
:10304000FFF7CAFC4B4B0093022300227A214FF476
:10305000AA70FEF761F9444B0093022300229321EA
:103060004FF4AA70FEF758F93A4B00930923002257
:1030700073214FF4EB70FEF74FF937480078C0EB3F
:103080000010364901EB40104369009303230022EE
:10309000AF210F20FEF740F9284908683049FEF7B4
:1030A0005DFF2D480078C0EB00102C4A02EB401069
:1030B000D0F848112B4805F0ECFC0646284905F0ED
:1030C000E8FC054624480078C0EB0010234A02EBD8
:1030D0004010D0F84C11284605F0DBFC214B009342
:1030E00002230022CD210F20FEF716F932211D48C0
:1030F00005F0C3FCF8BDFEB50246144600200023CF
:10310000002C00DA524200BF0A2592FBF5F605FBBF
:1031100016253035EDB20DF800500A2592FBF5F278
:10312000401C002AF0DC002C04DA2D270546401C48
:103130000DF80570002523E0A4000020880500207C
:1031400095000020D9060020CA0600209A00002021
:103150009F000020AE000020C0000020C40000201E
:10316000A9000020E8060020AC0600208600002010
:103170008B000020BB060020900000208100002072
:103180000DF80050401E04E01DF80050CD545B1CAB
:10319000401E0028F8DA0025CD54FEBDF8B50446DF
:1031A000002C7EDD204605F04AFCFF490879FF49E6
:1031B000FFF77EFCFC494879FD49FFF779FCFA49A5
:1031C0008879FC49FFF774FCF749C879FA49FFF799
:1031D0006FFCF549087AF949FFF76AFCF249487A29
:1031E000F749FFF765FCAFF2E041F34805F051FC09
:1031F0000746F24905F04DFC0646AFF2F44105F0F2
:1032000048FC0546EE4905F044FCAFF20051E748A2
:1032100005F03FFC0746E64905F03BFC0646AFF2E9
:10322000145105F036FC0546E24905F032FC4FF634
:10323000FF70FDF7EAFF4FF4AF7340F2622278218E
:103240000120FEF768FA0020FDF7DFFFDA4B00935C
:10325000022300227A210F20FEF75EF8D34B009361
:103260000223002293210F20FEF756F8AFF260539D
:1032700000930923002273219120FEF74DF8AFF24D
:103280006C530093092300227321EB20FEF744F8CE
:10329000C549C879C849FFF70BFCC349087AC74933
:1032A00000E058E0FFF704FCBF49497A481CC449D4
:1032B000FFF7FEFBAFF2B051BF4805F0EAFB07464F
:1032C000BE4905F0E6FB0646AFF2C45105F0E1FB4E
:1032D0000546BB4905F0DDFBB3494889B949FFF70D
:1032E0007BFBB54B0093022300227A214FF4AA7096
:1032F000FEF712F8AD4B00930223002293214FF406
:10330000AA70FEF709F8AF4B00930923002273213E
:103310004FF4EB70FEF700F8AB480078C0EB0010FC
:10332000AA4901EB40104369009303230022AF2117
:103330000F20FDF7F1FFA4480078C0EB0010A3496F
:1033400001EB4010D0F8BC31009302230022CD21C4
:103350000F20FDF7E1FFF8BD00B58BB000200A900B
:1033600009900890079006900590049098488179FC
:10337000407941EA00200A909548017AC07941EAF3
:1033800000200990924800880E2844F07E839048DF
:10339000807A08908E48C07A07900898012844F0F7
:1033A0007B8300208B4908708B4908700A9801289C
:1033B00007D10998252804D1079810B9002087491A
:1033C00008700A9801280ED1099825280BD1079872
:1033D000012808D1814908700020814908704FF404
:1033E0000461FDF7A0FB0A98012804D1099805287B
:1033F00001D1012006907B48008800280DDD0A9845
:1034000001280AD10998112807D17748007820B9F6
:103410007648007808B9022006900A9801280BD156
:103420000998122808D17048007828B96F480078A8
:10343000012801D1032006900A9801280AD1099891
:10344000182807D16848007820B96848007808B97A
:10345000042006900A9801280ED1099813280BD150
:103460006148007840B962480078002804DD5F4870
:10347000007808B9052006900A98012804D1099817
:103480000A2801D1062006900A9801280ED1099831
:1034900011280BD154480078012807D153480078EF
:1034A00020B95448008808B1072006900A980128DE
:1034B0000CD10998122809D14B480078012805D170
:1034C0004A480078012801D1082006900A9801286E
:1034D00004D10998102801D1092006900A980128E2
:1034E00008D10998112805D13F480078022801D158
:1034F0000A2006900A98012802D109980B2810D0BA
:103500000A9801280FD10998122802D00998152885
:1035100009D135480078032805D1344800780128BE
:1035200001D10B2006900A98012808D10998182883
:1035300005D12D480078032801D10C2006900A9867
:10354000012808D10998132805D1274800780328B5
:1035500001D10D2006900A98012811D1099811284F
:1035600002D0099814280BD11F480078032807D1EE
:103570001F48007820B91D48007808B90E20069031
:103580000A98012846D10998112802D009981428D0
:1035900040D11548007803283CD1174800683228EC
:1035A00038D11248007829E0B8050020AC06002088
:1035B000860000208B000020BB0600209000002029
:1035C00081000020AE000020C0000020C4000020C8
:1035D0002E06002060000020620000204A0000202B
:1035E000480000202C000020670000206C00002014
:1035F0006D0000202E00002068000020022809D164
:10360000FF480078002805DBFD480078042801DC2D
:103610000F2006900A98012814D10998112802D089
:10362000099814280ED1F748007803280AD1F648E3
:103630000068052806D1F5480078012802D1F04835
:103640000078B0B10A98012815D10998122802D043
:10365000099815280FD1EC480068B0F5FA7F0ADB0D
:10366000E9480068B0F5FC7F05DCE84800780328ED
:1036700001D113200690E6480078002813DD0A984F
:10368000012810D10998112802D0099814280AD1CC
:10369000DC480078032806D1D9480078052802D1F3
:1036A000DA480078A0B10A98012813D109981228A5
:1036B00002D0099815280DD1D3480068322809DBBB
:1036C000D1480068352805DCD0480078022801D1AF
:1036D00014200690CE480078002813DD0A980128AF
:1036E00010D10998112802D0099814280AD1C54888
:1036F0000078032806D1C2480078062802D1C348C2
:103700000078A0B10A98012813D10998122802D094
:10371000099815280DD1BC4800683C2809DBBA4837
:103720000068442805DCB9480078022801D115203A
:1037300006900A98012816D10998112802D00998F4
:10374000142810D1AF48007803280CD1AE48006887
:10375000062808D1AD480078012804D1A84800788F
:1037600008B9252006900A98012817D10998112830
:1037700002D00998142811D1A248007803280DD14D
:10378000A1480068062809D1A0480078012805D181
:103790009B480078012801D1162006900A9801283C
:1037A00017D10998112802D00998142811D19548E9
:1037B000007803280DD194480068062809D1934861
:1037C0000078012805D18E480078022801D1172001
:1037D00006900A98012817D10998112802D0099853
:1037E000142811D18748007803280DD18648006835
:1037F000062809D185480078012805D1804800783D
:10380000032801D1182006900A98012810D10998A0
:10381000112802D0099814280AD17A480078032880
:1038200006D177480078012802D178480078A0B105
:103830000A98012813D10998122802D0099815284E
:103840000DD1714800680A2809DB6F4800680C2810
:1038500005DC6E480078022801D1192006900A98EC
:10386000012816D10998112802D00998142810D1DE
:103870006448007803280CD163480068012808D107
:1038800062480078012804D15D48007808B91A2000
:1038900006900A98012810D1099818280DD1594886
:1038A0000078032809D1584800680A2805D15748EC
:1038B0000078022801D11B2006900A98012814D113
:1038C0000998132811D14F48007803280DD14E488C
:1038D00000680A2809D14A480078002805DD4B48CD
:1038E0000078022801D11C2006900A98012815D1E1
:1038F0000998112802D0099814280FD1414800785E
:1039000003280BD140480068062807D13F480078BB
:10391000012803D13A480078042817D00A980128D2
:1039200016D10998122802D00998152810D13648C6
:103930000068B0F5207F0BDB3348006840F282213D
:10394000884205DC31480078032801D11D2006900B
:103950000A98012816D10998112802D0099814282C
:1039600010D12848007803280CD127480068402847
:1039700008D126480078022804D12148007808B9E7
:103980001E2006900A98012810D1099814280DD1FC
:103990001C480078032809D11B480068B0F5207F37
:1039A00004D11C48007808B91F20069018480078F8
:1039B000002815DD0A98012812D10998112802D093
:1039C000099814280CD10F480078032808D10C4816
:1039D0000078032804D10D48007808B9202006900B
:1039E0000A9801281CD10998142819D10548007893
:1039F000032815D104480068032811D105480BE0BD
:103A00006D00002067000020680000206C0000208E
:103A10006100002066000020007808B9212006908F
:103A2000FF480078002815DD0A98012812D109986E
:103A3000112802D0099814280CD1FA4800780328DC
:103A400008D1F9480078022804D1F848007808B96C
:103A500022200690F2480078002815DD0A980128F7
:103A600012D10998112802D0099814280CD1ED48D8
:103A70000078032808D1EC480078042804D1EB48EA
:103A8000007808B923200690E5480078002815DD65
:103A90000A98012812D10998112802D009981428EF
:103AA0000CD1E0480078032808D1DF4800780728C7
:103AB00004D1DE48007808B9242006900A9801282D
:103AC00012D10998112802D0099814280CD1D54890
:103AD0000078032808D1D64800683C2804D1D24891
:103AE000007808B9262006900A98012813D1099871
:103AF000112802D0099814280DD1CA48007803284B
:103B000009D1CB4800683C2805D1C7480078012876
:103B100001D127200690C2480078042815DA0A98B7
:103B2000012812D10998112802D0099814280CD123
:103B3000BC480078032808D1BB480078012804DD80
:103B4000BA48007808B9282006900A98012817D1A9
:103B50000998112802D00998142811D1B148007889
:103B600003280DD1B2480068062809D1AF48007873
:103B7000012805D1AC480078062801D129200690FB
:103B80000A98012812D10998112802D009981428FE
:103B90000CD1A4480078032808D1A5480068422821
:103BA00004D1A148007808B92A2006900A98012873
:103BB00013D10998112802D0099814280DD19948D9
:103BC0000078032809D19A480068422805D1964810
:103BD0000078012801D12B2006900A98012817D1DE
:103BE0000998112802D00998142811D18D4800781D
:103BF00003280DD18E480068012809D18B48007830
:103C0000012805D188480078012801D12C20069090
:103C10000A98012817D10998112802D00998142868
:103C200011D18048007803280DD1814800684028D0
:103C300009D17E480078022805D17B480078012808
:103C400001D12D2006900A98012811D10998142835
:103C50000ED17448007803280AD175480068A0F591
:103C60000071813904D17348007808B92E2006907C
:103C70006B480078002813DD0A98012810D10998B4
:103C8000112802D0099814280AD166480078032820
:103C900006D165480078022802D164480078A0B1B6
:103CA0000A98012813D10998122802D009981528DA
:103CB0000DD15F480068142809DB5D4800681928A9
:103CC00005DC5A480078022801D12F2006900A9876
:103CD000012816D10998112802D00998142810D16A
:103CE0005048007803280CD151480068022808D1B8
:103CF0004E480078012804D14B48007808B930209C
:103D000006900A98012813D10998112802D0099821
:103D100014280DD143480078032809D1444800688D
:103D2000142805D140480078012801D1312006909F
:103D30000A98012812D10998112802D0099814284C
:103D40000CD138480078032808D139480068142875
:103D500004D13548007808B93220069006983328F7
:103D600083F09186DFE810F033003500E3000602AF
:103D70000D035F0417058A050C0681060407050775
:103D8000D6073508940845098F1E8F1E8F1E8D0A91
:103D9000600B0B0C0A0DE40DAD0E400FDB0F78101D
:103DA000DC1180121D13AC133B14B0140216641600
:103DB000C6162817DE175418CA18EC188919211AC4
:103DC000A81A211B9B1B331CAE1C4A1DDF1D03F0D0
:103DD0005BBE002013490870144908700220164980
:103DE000087000201049087014480078FDF793FD12
:103DF0004FF6FF70FDF709FA482340F2F312012154
:103E00008320FDF788FC4FF4BE7340F26B224A21F9
:103E10000020FDF780FC0020FDF7F7F900230FE0FC
:103E200061000020670000206D0000206C00002071
:103E300068000020660000206E0000206500002061
:103E4000162210218720FDF7ECFAFF480078C0EB1E
:103E50000010FE4901EB4010036800930723002285
:103E6000172140F20F10FDF757FAF7480078C0EB22
:103E70000010F64901EB4010436800930323002231
:103E800055210F20FDF748FAEF480078C0EB0010ED
:103E9000EE4901EB40108368009303230022552173
:103EA0008800FDF739FAE8480078C0EB0010E749D0
:103EB00001EB4010C36800930323002255214FF407
:103EC000EB70FDF729FAE2480088E2490978884258
:103ED00012DBDF480088FFF712F8DD480088401E3B
:103EE0000390FEF7D8FEAF234FF41672732140F211
:103EF000D110FDF7E9FB0FE0D548008801280AD171
:103F0000FEF7FDFFAF234FF41672732140F2D1107C
:103F1000FDF7DAFB00E000BFCF480078FDF708FDB1
:103F2000CD480078C0F10300CB4908704FE7CB487B
:103F30000078401CC9490870C5480088C8490978FC
:103F4000401A0390FCF7A6FFC3480078FDF7E3FC96
:103F50004FF6FF70FDF759F9482340F2F3120121A3
:103F60008320FDF7D8FB0020FDF74FF90023162230
:103F700010218720FDF755FAB3480078C0EB0010F8
:103F8000B24901EB40100369009307230022172177
:103F9000FA20FDF7C1F94FF6FF70FDF736F94FF43F
:103FA000BE7340F26B224A210020FDF7B4FB0020D3
:103FB000FDF72BF9A4480078C0EB0010A34901EBF2
:103FC0004010436900930323002255210F20FDF781
:103FD000A3F9A4480068A4490390FDF7BFFFA3A17B
:103FE000A54804F056FD029097480078C0EB0010F9
:103FF000964901EB4010D0F8480101460190029823
:1040000004F047FD9849039004F043FD9A4B009358
:104010000223002273210F20FDF77EF932219648FA
:1040200004F02BFD88480078C0EB0010874901EBB5
:104030004010C36900930323002291210F20FDF754
:104040006BF98EA3009302230022AF210F20FDF70E
:1040500063F98CA3009302230022CD210F20FDF7EA
:104060005BF98BA3009302230022CD217820FDF77A
:1040700053F975480078C0EB0010744901EB40100B
:10408000036A009302230022CD214FF48C70FDF7C8
:1040900043F983A3009302230022EB217820FDF74C
:1040A0003BF969480078C0EB0010684901EB40100B
:1040B000436A009302230022EB214FF48C70FDF73A
:1040C0002BF97BA300930223002240F209117820F0
:1040D000FDF722F95C480078C0EB00105B4901EB6A
:1040E0004010836A00930223002240F209114FF42A
:1040F0008C70FDF711F972A300930223002240F2A5
:1041000027117820FDF708F94F480078C0EB001020
:104110004E4901EB4010C36A00930223002240F293
:1041200027114FF48C70FDF7F7F869A30093022371
:10413000002240F245117820FDF7EEF84248007861
:10414000C0EB0010414901EB4010036B00930223C8
:10415000002240F245114FF48C70FDF7DDF83E4827
:104160000078FDF7E5FB3C480078C0F103003A49D0
:1041700008702CE600205A49087038480078401E24
:104180003649087034480078FDF7C5FB4FF6FF70DC
:10419000FDF73BF8482340F2F31201218320FDF79D
:1041A000BAFA4FF4BE7340F26B224A210020FDF7A9
:1041B000B2FA0020FDF729F80023162210218720EB
:1041C000FDF72FF920480078C0EB00101F4901EBE4
:1041D00040100368009307230022172140F20F10BC
:1041E000FDF79AF818480078C0EB0010174901EB6A
:1041F0004010436800930323002255210F20FDF750
:104200008BF811480078C0EB0010104901EB40100A
:10421000836800930323002255218800FDF77CF872
:1042200009480078C0EB0010084901EB4010C36852
:1042300000930323002255214FF4EB70FDF76CF837
:104240000348008803494DE0C0000020C40000205E
:104250002C0000206E000020650000206C00002073
:104260006D00002088050020A90000204447303060
:104270003120202020000000E80600204547303093
:104280003200000031372E30312E31360000000070
:1042900031363A32383A34313A303339000000009E
:1042A00031363A32383A34313A333339000000008B
:1042B00031363A32383A34313A3531310000000083
:1042C00031363A32383A34363A3033390000000069
:1042D00031363A32383A34363A3237370000000055
:1042E000670000200978884212DBFF480088FF49F8
:1042F0000978401A801C0390FEF701FEFA480088F6
:10430000FA490978401A401C0390FEF7C4FC0EE0FD
:10431000F5480088F5490978884208DAF2480088AB
:10432000F2490978401A801C0390FEF7E8FDEE4838
:104330000088D8B1EE480078039000EBD0704110AF
:104340000398B0EB410008D1AF234FF416727321EC
:1043500040F2D110FDF7B8F908E040F227134FF40E
:104360001672EB2140F2D110FDF7AEF9E14800786A
:10437000FDF7DEFADF480078C0F10300DD49087080
:1043800025E5D948008802287DD1D9480078F0BBBE
:10439000D7480078401CD6490870D6480078FDF709
:1043A000BAFA4FF6FF70FCF730FF482340F2F312E1
:1043B00001218320FDF7AFF94FF4BE7340F26B2269
:1043C0004A210020FDF7A7F90020FCF71EFF00237B
:1043D000162210218720FDF724F8C7480078C0EB8B
:1043E0000010C64901EB4010036800930723002228
:1043F000172140F20F10FCF78FFFBF480078C0EB89
:104400000010BE4901EB40104368009300E0C6E095
:104410000323002255210F20FCF77EFFB6480078C9
:10442000C0EB0010B54901EB4010836800930323F3
:10443000002255218800FCF76FFFAF480078C0EBE1
:104440000010AE4901EB4010C36800930323002223
:1044500055214FF4EB70FCF75FFF0220FEF74FFD94
:104460000120FEF718FC40F227134FF41672EB21DF
:1044700040F2D110FDF728F99E480078FDF758FA70
:104480009C48007800E004E0C0F1030099490870FE
:10449000C8E09548018896480078401C81427EDD3E
:1044A00093480078401C92490870084600780390B1
:1044B00000EBD07041100398B0EB410004D18B4861
:1044C0000078801C894908708A480078FDF723FA33
:1044D0004FF6FF70FCF799FE482340F2F3120121DA
:1044E0008320FDF718F94FF4BE7340F26B224A2186
:1044F0000020FDF710F90020FCF787FE00231622AC
:1045000010218720FCF78DFF7B480078C0EB00105E
:104510007A4901EB4010036800930723002217211A
:1045200040F20F10FCF7F8FE73480078C0EB001063
:10453000724901EB40104368009303230022552188
:104540000F20FCF7E9FE6C480078C0EB00106B49C7
:1045500001EB40108368009303230022552188005B
:10456000FCF7DAFE64480078C0EB0010634901EB09
:104570004010C36800930323002255214FF4EB70D1
:10458000FCF7CAFE5848008858490978884214DB6D
:104590005548008855490978401A801C00E041E0E0
:1045A0000390FEF7ACFC5048008850490978401A47
:1045B000401C0390FEF76FFB0EE04B4800884B4910
:1045C0000978884208DA4848008848490978401A3A
:1045D000801C0390FEF793FC45480078039000EBA5
:1045E000D07041100398B0EB410008D1AF234FF4D5
:1045F0001672732140F2D110FDF766F808E040F220
:1046000027134FF41672EB2140F2D110FDF75CF83E
:1046100038480078FDF78CF936480078C0F103007F
:104620003449087082E432480078401E30490870EE
:1046300008460078039000EBD07041100398B0EB6F
:10464000410004D029480078801E28490870294874
:104650000078FDF760F94FF6FF70FCF7D6FD4823B0
:1046600040F2F31201218320FDF755F84FF4BE7399
:1046700040F26B224A210020FDF74DF80020FCF7A4
:10468000C4FD0023162210218720FCF7CAFE1A4819
:104690000078C0EB0010194901EB4010036800934B
:1046A00007230022172140F20F10FCF735FE1248B5
:1046B0000078C0EB0010114901EB401043680093F3
:1046C0000323002255210F20FCF726FE0A4800781C
:1046D000C0EB0010094901EB4010836800930323ED
:1046E0000022552188000BE02C0000206E000020E5
:1046F0006D00002065000020C0000020C4000020E4
:10470000FCF70AFEFF480078C0EB0010FE4901EB01
:104710004010C36800930323002255214FF4EB702F
:10472000FCF7FAFDF9480088F9490978401A801C1D
:104730000390FEF7E4FBF5480088F5490978401A34
:10474000401C0390FEF7A7FAF2480078039000EBB4
:10475000D07041100398B0EB410009D040F227130C
:104760004FF41672EB2140F2D110FCF7ADFF07E0D9
:10477000AF234FF41672732140F2D110FCF7A4FF5F
:10478000E5480078FDF7D4F8E3480078C0F103006D
:10479000E1490870EDE40120E04908700020E0499B
:1047A0000870DD480078FDF7B6F84FF6FF70FCF7AB
:1047B0002CFD482340F2F31201218320FCF7ABFFCC
:1047C0004FF4BE7340F26B224A210020FCF7A3FF96
:1047D0000020FCF71AFD0023132217218F20FCF77D
:1047E00020FEC8480078C0EB0010C74901EB40101C
:1047F000436B009307230022172140F20F10FCF7B0
:104800008BFDC0480078C0EB0010BF4901EB4010A1
:10481000436800930323002255210F20FCF77CFD01
:10482000B8480078C0EB0010B74901EB401083682E
:1048300000930323002255218800FCF76DFDB14849
:104840000078C0EB0010B04901EB4010C368009342
:104850000323002255214FF4EB70FCF75DFDB148B6
:104860000088FEF743F9AC480078FDF761F8AA48E4
:104870000078C0F10300A84908707AE4A8480078DD
:10488000401CA7490870A4480078FDF744F84FF68B
:10489000FF70FCF7BAFC482340F2F3120121832099
:1048A000FCF739FF0020FCF7B0FC0023132217218E
:1048B0008F20FCF7B6FD93480078C0EB00109249BA
:1048C00001EB4010036C0093072300221721FA200C
:1048D000FCF722FD4FF6FF70FCF797FC4FF4BE7318
:1048E00040F26B224A210020FCF715FF0020FCF764
:1048F0008CFC84480078C0EB0010834901EB401029
:10490000836B00930323002255210F20FCF704FD45
:104910007C480078C0EB00107B4901EB4010436CF1
:1049200000930223002282214120FCF7F5FC754808
:104930000078C0EB0010744901EB4010836C0093C9
:1049400002230022A0214120FCF7E6FC6D480078FC
:10495000C0EB00106C4901EB4010C36C00930223C4
:104960000022BE214120FCF7D7FC6B480078FCF701
:10497000DFFF69480078C0F1030067490870FFE471
:1049800001206649087066480078401E6449087036
:1049900061480078FCF7BFFF4FF6FF70FCF735FC6D
:1049A000482340F2F31201218320FCF7B4FE4FF4B8
:1049B000BE7340F26B224A210020FCF7ACFE0020BF
:1049C000FCF723FC0023132217218F20FCF729FD7D
:1049D0004C480078C0EB00104B4901EB4010436B92
:1049E000009307230022172140F20F10FCF794FCDC
:1049F00044480078C0EB0010434901EB4010436885
:104A000000930323002255210F20FCF785FC3D482D
:104A10000078C0EB00103C4901EB40108368009324
:104A20000323002255218800FCF776FC35480078E6
:104A3000C0EB0010344901EB4010C368009303231E
:104A4000002255214FF4EB70FCF766FC35480088D6
:104A5000FEF74CF830480078FCF76AFF2E480078E3
:104A6000C0F103002C4908708AE402202B49087029
:104A700029480078FCF74FFF4FF6FF70FCF7C5FBA5
:104A8000482340F2F31201218320FCF744FE4FF447
:104A9000BE7340F26B224A210020FCF73CFE00204E
:104AA000FCF7B3FB0023142217218F20FCF7B9FC7D
:104AB00014480078C0EB0010134901EB4010036D5F
:104AC000009307230022172140F20F10FCF724FC6B
:104AD0000C480078C0EB00100B4901EB4010436814
:104AE00000930323002255210F20FCF715FC0548F5
:104AF0000078C0EB0010044901EB4010836800937C
:104B0000032311E0C0000020C40000202C0000207E
:104B10006E0000206D00002065000020670000206E
:104B20006C0000202E000020002255218800FCF798
:104B3000F3FBFF480078C0EB0010FE4901EB40108A
:104B4000C36800930323002255214FF4EB70FCF758
:104B5000E3FBF9480088FEF721FBF8480078FCF7F2
:104B6000E7FEF6480078C0F10300F449087007E456
:104B700006E40320F24908700020F2490870F24967
:104B80000870401EF1490860EC480078FCF7C3FE4D
:104B90004FF6FF70FCF739FB482340F2F312012176
:104BA0008320FCF7B8FD4FF4BE7340F26B224A211C
:104BB0000020FCF7B0FD4FF4AF732C2278210A20BF
:104BC000FCF7A9FD0020FCF720FB0023152217218C
:104BD0008F20FCF726FCD6480078C0EB0010D549A2
:104BE00001EB4010C36D009307230022172140F210
:104BF0000F10FCF791FBCE480078C0EB0010CD49B8
:104C000001EB4010036E00930223002278212D2037
:104C1000FCF782FBC6480078C0EB0010C54901EBE9
:104C20004010436E00930223002291212D20FCF7B7
:104C300073FBBF480078C0EB0010BE4901EB401089
:104C4000836E009302230022AA212D20FCF764FB2F
:104C5000B7480078C0EB0010B64901EB4010C36EB6
:104C6000009302230022C3212D20FCF755FBB048FE
:104C70000078C0EB0010AF4901EB4010036F0093C8
:104C800002230022DC212D20FCF746FBA8480078F7
:104C9000C0EB0010A74901EB4010436F00930223C3
:104CA0000022F5212D20FCF737FBA1480078C0EB4E
:104CB0000010A04901EB4010836F009302230022F3
:104CC0004FF487712D20FCF727FB99480078C0EB43
:104CD0000010984901EB4010C36F0093022300229B
:104CE00040F227112D20FCF717FB7D209849088002
:104CF00000230222084601881420FCF792FB8F480B
:104D00000078FCF715FE8D480078C0F103008B4950
:104D1000087087E48C48007808B9082004908B4814
:104D20000068062801D109200490884800680128FD
:104D300003D086480068402801D1032004908348AE
:104D40000068052801D104200490804800683228BA
:104D500001D1052004907D4800683C2807D07B489D
:104D60000068422803D079480068142801D1022045
:104D70000490049860B34FF6FF70FCF746FA4FF4C6
:104D8000AF732C2278210A20FCF7C5FC049800EBB5
:104D9000C00101EB001064306D49098888420ADDCA
:104DA0006B48008819306A49088066480078401CC2
:104DB0006449087005E07D2065490880002061494C
:104DC000087000230222624801881420FCF729FBA6
:104DD00028E45D48007808B9082004905B48006822
:104DE000062801D10920049058480068012803D002
:104DF00056480068402801D10320049053480068B9
:104E0000052801D10420049050480068322801D1BF
:104E1000052004904D4800683C2807D04B480068A6
:104E2000422803D049480068142801D10220049088
:104E3000049860B34FF6FF70FCF7E7F94FF4AF73D7
:104E40002C2278210A20FCF766FC414800887D2846
:104E50000ADD3F48008819383D4908803948007804
:104E6000401E384908700BE0049800EBC00101EBCC
:104E700000106430364908800498401E314908709B
:104E800000230222324801881420FCF7CAFA81E488
:104E90002D480078401C2C49087000202B490860E0
:104EA00026480078FCF737FD4FF6FF70FCF7ADF9A8
:104EB000482340F2F31201218320FCF72CFC4FF42D
:104EC000BE7340F26B224A210020FCF724FC002034
:104ED000FCF79BF90023152217218F20FCF7A1FA7C
:104EE00013480078C0EB0010124901EB4010C36D6D
:104EF000009307230022172140F20F10FCF70CFA51
:104F00000B480078C0EB00100A4901EB4010036E1B
:104F100000930223002250210520FCF7FDF94FF4F5
:104F200090734FF4F072A821B420FCF7CDFB11E090
:104F3000C0000020C40000203000002065000020D8
:104F4000670000206D0000206C0000206800002039
:104F500070000020E4234FF4F0721946B420FCF7EF
:104F60000AFBFFA3009309230022AA21C820FCF713
:104F7000D3F9FE480078C0EB0010FD4901EB40106A
:104F8000D0F88030009305230022F021C820FCF7E0
:104F9000C3F9F6480078C0EB0010F54901EB40106A
:104FA000D0F884300093052300224FF48771C82085
:104FB000FCF7B2F944F66920FCF727F940F2211317
:104FC00040F2E112A721B320FCF77EFB4FF491736E
:104FD0004FF4F172A621B220FCF776FBE548007889
:104FE000FCF7A6FCE3480078C0F10300E149087033
:104FF00043E4E1480078401CDF490870DD48007850
:10500000FCF789FC4FF6FF70FCF7FFF8482340F2ED
:10501000F31201218320FCF77EFB4FF4BE7340F2B4
:105020006B224A210020FCF776FB0020FCF7EDF80C
:105030000023152217218F20FCF7F3F9CB480078C5
:10504000C0EB0010CA4901EB4010C36D0093072369
:105050000022172140F20F10FCF75EF9C7480078D4
:10506000052872D2DFE800F0031D375472000220D9
:1050700003F0D4FB80B205904FF4FA70C049086089
:10508000BA480078C0EB0010B94901EB4010D0F8E5
:10509000883000930223002250210520FCF73CF9C0
:1050A0006FE0042003F0BAFB80B2059040F2F510E7
:1050B000B3490860AD480078C0EB0010AC4901EB83
:1050C0004010D0F88C30009302230022502105209C
:1050D000FCF722F955E0062003F0A0FB0A2190FB23
:1050E000F1F080B205904FF4FB70A54908609F482D
:1050F0000078C0EB00109E4901EB4010D0F89030D2
:1051000000930223002250210520FCF705F938E026
:10511000082003F083FB0A2190FBF1F080B2059098
:1051200040F2F7109649086090480078C0EB0010F4
:105130008F4901EB4010D0F89430009302230022F5
:1051400050210520FCF7E8F81BE019E00A2003F0E5
:1051500065FB80B205904FF4FC7089490860834874
:105160000078C0EB0010824901EB4010D0F8983075
:1051700000930223002250210520FCF7CDF800E027
:1051800000BF00BF00207D4908704FF490734FF4BA
:10519000F072A821B420FCF797FAE4234FF4F072E0
:1051A0001946B420FCF7E7F976490598FCF7D6FED6
:1051B000744B009309230022AA214FF48C70FCF752
:1051C000ABF86A480078C0EB0010694901EB401069
:1051D000D0F88030009305230022F021C820FCF78E
:1051E0009BF862480078C0EB0010614901EB401069
:1051F000D0F89C300093052300224FF48771C8201B
:10520000FCF78AF859480078C0EB0010584901EBC8
:105210004010D0F8A030009307230022B4211420BE
:10522000FCF77AF851480078C0EB0010504901EBC8
:105230004010D0F8A430009307230022F02114205E
:10524000FCF76AF844F66920FBF7DFFF40F2211310
:1052500040F2E112A721B320FCF736FA4FF4917324
:105260004FF4F172A621B220FCF72EFA41480078E3
:10527000FCF75EFB3F480078C0F103003D49087031
:1052800075E43D480078012804D13B480078401C73
:105290003949087038480078032804D13648007826
:1052A000401E3549087000203449087032203449C6
:1052B000086030480078FCF72EFB4FF6FF70FBF7D4
:1052C000A4FF482340F2F31201218320FCF723FAC4
:1052D0004FF4BE7340F26B224A210020FCF71BFA08
:1052E0000020FBF792FF0023152217218F20FCF7E7
:1052F00098F81E480078C0EB00101D4901EB4010E3
:10530000C36D009307230022172140F20F10FCF712
:1053100003F816480078C0EB0010154901EB401067
:10532000D0F8A83000930223002250210520FBF77B
:10533000F3FF0E480078C0EB00100D4901EB401060
:10534000D0F8343100930223002278212D20FBF77E
:10535000E3FF06480078C0EB0010054914E00000A8
:105360002A2A2A2A2A2A2A2A00000000C00000200D
:10537000C4000020650000206C0000206D000020AB
:1053800068000020B300002001EB4010D0F8383155
:1053900000930223002291212D20FBF7BDFFFF483F
:1053A0000078C0EB0010FE4901EB4010D0F83C3112
:1053B000009302230022AA212D20FBF7ADFFF7481E
:1053C0000078C0EB0010F64901EB4010D0F84031F6
:1053D000009302230022C3212D20FBF79DFFEF48FD
:1053E0000078C0EB0010EE4901EB4010D0F84431DA
:1053F000009302230022DC212D20FBF78DFF7D206E
:10540000E849088000230222084601881420FCF79E
:1054100008F8E5480078FCF78BFAE3480078C0F11B
:105420000300E149087074E4E048007820B9DF48DF
:105430000078401CDD490870DC480078022804D15F
:10544000DA480078401ED94908700520D84908601C
:105450000020D8490870D4480078FCF75CFA4FF671
:10546000FF70FBF7D2FE482340F2F31201218320A4
:10547000FCF751F94FF4BE7340F26B224A21002031
:10548000FCF749F90020FBF7C0FE00231522172185
:105490008F20FBF7C6FFC1480078C0EB0010C04961
:1054A00001EB4010C36D009307230022172140F247
:1054B0000F10FBF731FFB9480078C0EB0010B84976
:1054C00001EB4010436F009302230022502105207E
:1054D000FBF722FFB1480078C0EB0010B04901EBA8
:1054E0004010D0F8A83000930223002278212D200C
:1054F000FBF712FFA9480078C0EB0010A84901EBA8
:105500004010D0F8AC3000930223002291212D20CE
:10551000FBF702FFA1480078C0EB0010A04901EBA7
:105520004010D0F8B030009302230022AA212D2091
:10553000FBF7F2FE99480078C0EB0010984901EBA8
:105540004010D0F8B430009302230022C3212D2054
:10555000FBF7E2FE7D2093490880002302220846E3
:1055600001881420FBF75DFF8F480078FCF7E0F915
:105570008D480078C0F103008B49087028E48B48FF
:10558000007820B989480078401C8849087087480D
:105590000078022804D185480078401E83490870AD
:1055A0000620834908600020824908707E48007800
:1055B000FCF7B1F94FF6FF70FBF727FE482340F2E6
:1055C000F31201218320FCF7A6F84FF4BE7340F2DA
:1055D0006B224A210020FCF79EF80020FBF715FE05
:1055E0000023152217218F20FBF71BFF6B48007843
:1055F000C0EB00106A4901EB4010C36D0093072314
:105600000022172140F20F10FBF786FE6348007856
:10561000C0EB0010624901EB4010D0F8B8300093A5
:105620000223002250210520FBF776FE5B4800781C
:10563000C0EB00105A4901EB4010D0F8BC30009389
:105640000223002278212D20FBF766FE53480078C4
:10565000C0EB0010524901EB4010D0F8C03000936D
:105660000223002291212D20FBF756FE4B480078A3
:10567000C0EB00104A4901EB4010D0F8C430009351
:1056800002230022AA212D20FBF746FE4348007882
:10569000C0EB0010424901EB4010D0F8C830009335
:1056A00002230022C3212D20FBF736FE3B48007861
:1056B000C0EB00103A4901EB4010D0F8CC30009319
:1056C00002230022DC212D20FBF726FE3348007840
:1056D000C0EB0010324901EB4010D0F8D0300093FD
:1056E00002230022F5212D20FBF716FE2B4800781F
:1056F000C0EB00102A4901EB4010D0F8D4300093E1
:10570000022300224FF487712D20FBF705FE23486A
:105710000078C0EB0010224901EB4010D0F8D830DF
:1057200000930223002240F227112D20FBF7F4FD05
:105730001A480078C0EB0010194901EB4010D0F86E
:10574000DC300093022300224FF4A0712D20FBF7E0
:10575000E3FD7D20134908800023022208460188CA
:105760001420FBF75EFE10480078FCF7E1F80E48C5
:105770000078C0F103000C49087039E40B48007848
:10578000401C0A49087000200A4908703D20084959
:105790000860FBF7E7FC084800780FE0C000002035
:1057A000C400002070000020650000206C00002074
:1057B000680000206D0000204F000020FB4903908E
:1057C000FDF799FCFA484078FA490390FDF770F923
:1057D000F7488078F8490390FDF76AF9F7A1F34894
:1057E00003F057F9F349019003F053F9F3A1029044
:1057F00003F04FF9F049039003F04BF9F0480078BB
:10580000FCF789F84FF6FF70FBF7FFFC4FF4BE730F
:1058100040F26B224A210020FBF77DFF0020FBF7BE
:10582000F4FCE8480078C0EB0010E74901EB4010B9
:10583000D0F8C03000930223002250210520FBF74E
:105840006BFD4FF490734FF4F072A821B420FBF776
:105850003BFFE4234FF4F0721946B420FBF78BFEB4
:10586000D24B009309230022AA21C820FBF754FD44
:10587000D4480078C0EB0010D34901EB4010D0F8B9
:10588000E030009305230022F021C820FBF744FDFF
:10589000CC480078C0EB0010CB4901EB4010D0F8A9
:1058A000E4300093052300224FF48771C820FBF7F2
:1058B00033FDC4480078C0EB0010C34901EB401031
:1058C000D0F8E830009307230022B4211420FBF71E
:1058D00023FDBC480078C0EB0010BB4901EB401031
:1058E000D0F8EC30009307230022F0211420FBF7BE
:1058F00013FD44F66920FBF788FC40F2211340F2C7
:10590000E112A721B320FBF7DFFE4FF491734FF4B0
:10591000F172A621B220FBF7D7FEA9480078FCF768
:1059200007F8A7480078C0F10300A5490870A7E46C
:10593000A6480078401CA54908700020A4490870BA
:105940003E20A4490860FBF70DFC9948C078A249A5
:105950000390FDF7ADF896480079A0490390FDF754
:10596000A7F8934840799E490390FDF7A1F89DA1BF
:10597000994803F08EF89949019003F08AF899A1AB
:10598000029003F086F89649039003F082F88C4861
:105990000078FBF7C0FF4FF6FF70FBF736FC4FF4C3
:1059A000BE7340F26B224A210020FBF7B4FE0020B8
:1059B000FBF72BFC83480078C0EB0010824901EB19
:1059C0004010D0F8C430009302230022502105205B
:1059D000FBF7A2FC4FF490734FF4F072A821B420AF
:1059E000FBF772FEE4234FF4F0721946B420FBF784
:1059F000C2FD794B009309230022AA21C820FBF79E
:105A00008BFC70480078C0EB00106F4901EB401030
:105A1000D0F8E030009305230022F021C820FBF7E6
:105A20007BFC68480078C0EB0010674901EB401030
:105A3000D0F8E4300093052300224FF48771C8208A
:105A4000FBF76AFC5F480078C0EB00105E4901EB91
:105A50004010D0F8E830009307230022B42114202E
:105A6000FBF75AFC57480078C0EB0010564901EB91
:105A70004010D0F8EC30009307230022F0211420CE
:105A8000FBF74AFC44F66920FBF7BFFB40F2211309
:105A900040F2E112A721B320FBF716FE4FF49173F9
:105AA0004FF4F172A621B220FBF70EFE44480078B5
:105AB000FBF73EFF42480078C0F103004049087000
:105AC000B1E442480078401C404908700020404939
:105AD00008703F203F49086039480078FBF71BFFFA
