:020000040800F2
:10000000080C0020450100088D700008B77000083A
:10001000BB700008BF700008C3700008000000003B
:10002000000000000000000000000000C97000088F
:10003000C770000800000000CB700008CD700008F9
:10004000CF700008D1700008D3700008D570000888
:10005000F1700008F37000082F710008317100087A
:1000600033710008357100083771000839710008D4
:100070003B7100083D7100083F71000841710008A4
:100080004371000845710008477100084971000874
:100090004B7100084D7100084F7100085171000844
:1000A0005371000855710008577100085971000814
:1000B0005B710008F9710008F3720008F57200081E
:1000C000F7720008F9720008FB720008FD72000860
:1000D000FF7200080173000803730008CD73000865
:1000E000CF730008D1730008D3730008D5730008DC
:1000F000D7730008D9730008DB730008DD730008AC
:10010000DF730008E1730008E3730008E57300087B
:10011000E7730008E9730008EB730008ED7300084B
:10012000EF730008F1730008F3730008F57300081B
:10013000DFF80CD009F002FA004800477F050008FC
:10014000080C0020004800473101000870B598B045
:1001500007F0F4FFFF48007801284BD1FE490878EA
:1001600010A901F0EFFBFC4948780CA901F049F80F
:10017000F949887808A901F044F8F8A110A809F015
:10018000B0F906460CA909F0ACF90546F3A109F04F
:10019000A8F9044608A909F0A4F9EF49C87804A908
:1001A00001F02FF8EC490879694601F02AF8EA498C
:1001B000487914A901F025F8E9A104A809F091F9FA
:1001C0000646694609F08DF90546E5A109F089F969
:1001D000044614A909F085F910AA0321012008F0AA
:1001E000E6FE04AA1E21012008F0E1FE0020D94904
:1001F000087050E0D848407948BBD748007930BBF8
:10020000D548C07818BBD449087810A901F09AFBEA
:10021000D14948780CA900F0F4FFCF49887808A9A3
:1002200000F0EFFFCDA110A809F05BF906460CA97C
:1002300009F057F90546C9A109F053F9044608A980
:1002400009F04FF910AA0321012008F0B0FEC249BD
:10025000C87804A900F0D5FFBF490879694600F0C5
:10026000D0FFBD49487914A900F0CBFFBCA104A878
:1002700009F037F90646694609F033F90546B8A191
:1002800009F02FF9044614A909F02BF904AA1E213C
:10029000012008F08CFE18B070BD002106E0782126
:1002A00000BF0A00A1F1010399B2FAD10200A0F146
:1002B000010398B2F3D1704708B500214FF00060F8
:1002C00009F0AEFA4FF4A06009F0A0FA26208DF8EC
:1002D000000003208DF8010000208DF802000120AD
:1002E0008DF80300684609F056FA1C208DF80000CE
:1002F00000208DF801008DF8020001208DF8030028
:10030000684609F048FA1D208DF8000001208DF89C
:10031000010000208DF8020001208DF803006846DE
:1003200009F039FA03208DF8000002208DF8010051
:1003300000208DF8020001208DF80300684609F0C6
:100340002AFA08BD70470EB5864809F063FC854857
:1003500009F0CEFCC820ADF8040048F69F40ADF887
:1003600000000020ADF80600ADF8020069467D48A7
:1003700009F0C4FC01217B4809F03BFC00217948CD
:1003800009F02CFC01224121764809F0A9FC00214A
:10039000744809F034FC0EBD0EB54FF0804009F0F2
:1003A00039FC4FF0804009F0A3FC4FF47A70ADF8AF
:1003B000040048F69F40ADF800000020ADF80600AC
:1003C000ADF8020069464FF0804009F097FC01212A
:1003D000880709F00EFC00214FF0804009F0FEFB79
:1003E00001224121880709F07BFC00214FF0804069
:1003F00009F005FC0EBD00B587B00020ADF8040083
:10040000ADF806004FF40070ADF808000020ADF81C
:100410000A0001A9544809F095FC4FF4E13003901B
:100420000020ADF81000ADF81200ADF81400ADF8E2
:1004300018000C20ADF8160003A94B4809F0DAFCAF
:10044000012240F22551484809F0BBFC01214648F1
:1004500009F087FC07B000BD08B54FF4A060ADF807
:10046000000010208DF8030003208DF8020069467B
:100470003E4809F035F90420ADF8000018208DF849
:10048000030003208DF802006946394809F028F975
:100490000820ADF8000003208DF8020004208DF83C
:1004A00003006946324809F01BF92020ADF800002E
:1004B00004208DF8030003208DF8020069462D48C2
:1004C00009F00EF908BD10B509F002FA4FF48030BA
:1004D00009F09AFA09F00AFB0446012C24D1002005
:1004E00009F088FA002009F0CFFAA00209F0C2FA58
:1004F000022009F079F8102009F06AF84FF4E011B1
:10050000200409F0D1FA012009F0C8FA00BF39200F
:1005100009F046FA0028FAD0022009F0DDFA00BFFF
:1005200009F060FA0828FBD1012140F2ED1009F032
:10053000ABF90121480409F08FF90121080209F003
:100540007FF90121032009F087F901214FF0C05004
:1005500012E00000B9000020BB0000202E000000C7
:100560003A0000000004004000440040001C01402C
:10057000000801400020014009F06EF910BD40F272
:100580002551384809F0D8FBFFF79DFFFFF764FFBE
:1005900006F05CFF06F0DAFFFFF72DFFFFF7FCFE29
:1005A000FFF7D1FEFFF7CEFEFFF786FE07F0F8F962
:1005B00007F000FB07F0FEFC4FF6FF70FFF76DFE43
:1005C000012008F09DFC05F0EDFE3021002007F031
:1005D000AFFB05F0FCFE05F053FF2CE0224800784D
:1005E000012804D106F0EBFA00201F4908701F48CB
:1005F0000078012818D1FFF7A9FD00201B490870D9
:100600001B48007880B91B480078401C19490870C5
:1006100008460078032807D10020174908701549BB
:1006200008700120124908701448B0F866000128CB
:1006300001D105F086FED1E770B504460D46E1B262
:10064000084809F01FFC00BF4021064809F093FB51
:100650000028F9D0204670BD00BF0100A0F10100C4
:10066000FBD17047004400408C000020B8000020FF
:100670008D0000208E000020B600002034070020EE
:1006800010B5002809DB092807DC30220A704A70FF
:1006900000F130028A700022CA700A2811DB632838
:1006A0000FDC30220A700A2290FBF2F230324A70DC
:1006B0000A2290FBF2F302FB130230328A7000220E
:1006C000CA7064281ADBB0F57A7F17DA642290FBCF
:1006D000F2F230320A700A2290FBF2F20A2392FB05
:1006E000F3F403FB142230324A700A2290FBF2F337
:1006F00002FB130230328A700022CA7010BD2DE94D
:10070000F04FA1B00026002700200E900D904FF072
:10071000080A804683460C9081460B900A90099007
:100720000025FF488179407941EA0026FC48017A9A
:10073000C07941EA002700BFF948801C10F80A0080
:1007400014A901F808000AF1010000F0FF0A08F1FD
:10075000010000F0FF08F2480088401F5045EBDC24
:10076000002001F80800012E7ED1202FFCD1ED4899
:1007700000680028F8D1202007F0A8FBEA4908709B
:100780005820FFF78AFDE848027810210FA807F0EB
:10079000E2FB00200FA9E44A12788854E349097863
:1007A000C1F1030008F067FBE148007810B10128AF
:1007B0007DD19BE014A90FA808F0A9FE002867D1FD
:1007C0004FF6FF7007F0D1FF40F21F1340F2DF1227
:1007D000E521B52008F04FFA4FF4B4734FF4FA72E4
:1007E0004FF49671C82008F046FA002007F0BDFFCC
:1007F000D0480078C0EB0010CF4901EB4010D0F892
:1008000054310093062300224FF49671C82008F05B
:1008100033F8C8480078C0EB0010C74901EB40101E
:10082000D0F85831009305230022F021C82008F0A9
:1008300023F8C248007880B9BE480078C0EB0010A9
:10084000BD4901EB4010D0F85C3100930523002234
:100850004FF48771C82008F00FF8B84800780128D5
:1008600012D1B448007800E0BBE0C0EB0010B24900
:1008700001EB4010D0F860310093052300224FF4C3
:100880008771C82007F0F8FF0120A94908702CE003
:100890004FF6FF7007F069FF40F21F1340F2DF12BE
:1008A000E521B52008F0E7F94FF4B47300E088E0E3
:1008B0004FF4FA724FF49671C82008F0DCF900206A
:1008C00007F053FF9B480078C0EB00109A4901EBFA
:1008D0004010D0F86431009306230022E621C8209E
:1008E00007F0CAFF0020924908706BE09DF85100A4
:1008F000002865D14FF6FF7007F037FF40F21F1355
:1009000040F2DF12E521B52008F0B5F94FF4B473D9
:100910004FF4FA724FF49671C82008F0ACF94823EE
:1009200040F26B22002140F2F51008F0A4F90020FB
:1009300007F01BFF8148007810B101283BD11DE072
:100940007C480078C0EB00107B4901EB4010D0F8E8
:100950006831009306230022E621C82007F08CFFAF
:1009600000231A460C2140F2162008F00AF8012054
:10097000724908700420724908701DE06D480078C3
:10098000C0EB00106C4901EB4010D0F86C310093C3
:1009900006230022E621C82007F06EFF0023012273
:1009A0000C2140F2162007F0ECFF0020634908708C
:1009B0006349087000E000BF00BF00205C49087078
:1009C00000E000BF00BF59490978C1F1030008F0F9
:1009D0005FFA56490978C1F103005449097808F0D3
:1009E00064FA012E7ED1202F7CD14E4800683D282C
:1009F00078D19DF851109DF85000303800EB800000
:100A000001EB40003038C0B209909DF854109DF8B9
:100A10005300303800EB800001EB4000303800F02C
:100A2000FF0B9DF857109DF85600303800EB800002
:100A300001EB40003038C0B20C909DF850002E28D9
:100A400055D09DF851002E2851D09DF852002E28E7
:100A50004DD19DF853002E2849D09DF854002E28E2
:100A600045D09DF855002E2841D19DF856002E28DE
:100A70003DD09DF857002E2839D09DF8580090BBE6
:100A80000998002833DBB9F1640F30DABBF1000FAD
:100A90002DDDBBF10D0F2ADA0C98002827DD0C980C
:100AA000202824DA59460C9A099807F0AFFA012059
:100AB00024490870FFF74AFB4FF6FF7007F055FE18
:100AC00040F21F1340F2DF12E521B52008F0D3F801
:100AD000002007F04AFE14AB009309230022E62110
:100AE000C82001E037E002E007F0C6FE33E04FF631
:100AF000FF7007F03AFE40F21F1340F2DF12E521CB
:100B0000B52008F0B8F8002007F02FFE094800785B
:100B1000C0EB0010084901EB4010D0F8703113E031
:100B20009E070020200000201C0000201D00002047
:100B300018000020C4000020C80000201B00002076
:100B400019000020B9000020009306230022E621AE
:100B5000C82007F091FE012E7ED1202F7CD1FF48C6
:100B600000683E2878D19DF851109DF8500030382B
:100B700000EB800001EB4000303800F0FF099DF8E9
:100B800054109DF85300303800EB800001EB40001A
:100B90003038C0B20B909DF857109DF85600303891
:100BA00000EB800001EB40003038C0B20A909DF8A5
:100BB00050002E2857D09DF851002E2853D09DF874
:100BC00052002E284FD19DF853002E284BD09DF86F
:100BD00054002E2847D09DF855002E2843D19DF86B
:100BE00056002E283FD09DF857002E283BD09DF868
:100BF000580090BBB9F1000F35DBB9F1180F32DAAC
:100C00000B9800282FDB0B983C282CDA0A98002838
:100C100029DB0A983C2826DA3A208DF852008DF814
:100C200055004846DDE90A2107F03CFAFFF78EFA45
:100C30004FF6FF7007F099FD40F21F1340F2DF12EC
:100C4000E521B52008F017F8002007F08EFD14AB61
:100C500000930923002201E024E004E0E621C820FB
:100C600007F00AFE1EE04FF6FF7007F07EFD40F22F
:100C70001F1340F2DF12E521B52007F0FCFF002032
:100C800007F073FDB6480078C0EB0010B54901EBE2
:100C90004010D0F87031009306230022E621C820CE
:100CA00007F0EAFD012E65D1202FFCD1AB4800688A
:100CB0003F28F8D1AC48007820B101287ED0022826
:100CC0007DD1EDE0202007F001F9A84908705820F7
:100CD000FFF7E3FAA548027810210FA807F03BF9C7
:100CE00000200FA9A14A1278885414A90FA808F06F
:100CF0000EFCF0BB4FF6FF7007F037FD40F21F13FC
:100D000040F2DF12E521B52007F0B5FF4FF4B473D0
:100D10004FF4FA724FF49671C82007F0ACFF002030
:100D200007F023FD8E480078C0EB00108D4901EBE1
:100D30004010D0F854310093062300224FF49671EE
:100D4000C82007F099FD86480078C0EB001085495F
:100D500001EB4010D0F85831009305230022F02118
:100D6000C82007F089FD7E480078C0EB00107D495F
:100D700001E010E0DEE001EB4010D0F874310093A8
:100D8000052300224FF48771C82007F075FD01206C
:100D9000754908702DE04FF6FF7007F0E6FC40F251
:100DA0001F1340F2DF12E521B52007F064FF4FF476
:100DB000B4734FF4FA724FF4967101E01AE0B7E0A1
:100DC000C82007F058FF002007F0CFFC64480078E7
:100DD000C0EB0010634901EB4010D0F86431009380
:100DE00006230022E621C82007F046FD00205E49C8
:100DF00008709EE014215E4808F067FB14A95C4867
:100E000008F093FB4FF6FF7007F0AFFC40F21F13A2
:100E100040F2DF12E521B52007F02DFF4FF4B47347
:100E20004FF4FA724FF49671C82007F024FF0020A7
:100E300007F09BFC4A480078C0EB0010494901EBE1
:100E40004010D0F878310093062300224FF49671B9
:100E5000C82007F011FD42480078C0EB001041495E
:100E600001EB4010D0F85831009305230022F02107
:100E7000C82007F001FD3A480078C0EB001039495E
:100E800001EB4010D0F87C310093052300224FF491
:100E90008771C82007F0F0FC02203349087048E051
:100EA0009DF85000E8BB324808F029FB2F49087034
:100EB00020212E48007806F0EFFF5820FFF7EDF9CB
:100EC0002A48027810212A4807F021F84FF6FF70CF
:100ED00007F04BFC40F21F1340F2DF12E521B52072
:100EE00007F0C9FE4FF4B4734FF4FA724FF49671E1
:100EF000C82007F0C0FE002007F037FC1848007833
:100F0000C0EB0010174901EB4010D0F8803100937E
:100F100006230022E621C82007F0AEFC1421144865
:100F200000E004E008F0D1FA00200F49087000E06A
:100F300000BF00BF012E7ED1202FFCD107480068E2
:100F4000B0F5FA7F77DB05480068B0F5FD7F72DA0F
:100F500000240020039002900CE0000020000020FC
:100F6000C4000020C80000201A0000201C0000203F
:100F700090040020CDF80C809DF8500008B90025A1
:100F80002CE0002428E00398401EC0B20390039890
:100F9000029014A8005D303814A9085514A8005D0B
:100FA00004A921F814000DE004A830F8140000EBA7
:100FB00080004004000C04A921F814000298401E8F
:100FC000C0B2029002980028EEDC04A830F81400A9
:100FD000284485B2601CC4B24445D4DB4FF6FF7090
:100FE00007F0C3FB40F21F1340F2DF12E521B520EA
:100FF00007F041FE002007F0B8FBFF480068A0F5AD
:10100000FA70062875D2DFE800F0031A2F475F75E3
:10101000FA480580FA490088FFF732FBF84B009345
:1010200009230022E6214FF48C7007F025FC0221F1
:10103000F248008800E075E006F07AFE70E0F148C2
:101040000580EF490088FFF71BFBED4B0093092358
:101050000022E6214FF48C7007F00EFC0421E948D1
:10106000008806F065FE5BE0E7480580E4490088FB
:10107000FFF706FBE24B009309230022E6214FF421
:101080008C7007F0F9FBE049098801EB8101480009
:10109000062106F04DFE43E0DC480580D849008873
:1010A000FFF7EEFAD64B009309230022E6214FF416
:1010B0008C7007F0E1FBD549098801EB81014800FC
:1010C000082106F035FE2BE0D1480580CC49008888
:1010D000FFF7D6FACA4B009309230022E6214FF40A
:1010E0008C7007F0C9FB0A21C948008806F020FE71
:1010F00016E014E0C7480580C1490088FFF7C0FA30
:10110000BF4B009309230022E6214FF48C7007F0B7
:10111000B3FB2421BF48008806F00AFE00E000BFB0
:1011200000BF00BF21B0BDE8F08F10B500280ADB7A
:10113000092808DC30220A704A708A7000F13002F7
:10114000CA7000220A710A2812DB632810DC3022E0
:101150000A704A700A2290FBF2F230328A700A2238
:1011600090FBF2F302FB13023032CA7000220A71C4
:1011700064281CDBB0F57A7F19DA30220A70642209
:1011800090FBF2F230324A700A2290FBF2F20A230C
:1011900092FBF3F403FB142230328A700A2290FB94
:1011A000F2F302FB13023032CA7000220A71B0F56A
:1011B0007A7F25DB42F20F72904221DC4FF47A7283
:1011C00090FBF2F230320A70642290FBF2F20A23B2
:1011D00092FBF3F403FB142230324A700A2290FB94
:1011E000F2F292FBF3F403FB142230328A700A22EB
:1011F00090FBF2F302FB13023032CA7000220A7134
:1012000010BD002808DB092806DC30220A7000F136
:1012100030024A7000228A700A280FDB63280DDC36
:101220000A2290FBF2F230320A700A2290FBF2F3AB
:1012300002FB130230324A7000228A707047F8B500
:101240000446002C7EDD204607F009FA7249087931
:101250007249FFF7D6FF704948797149FFF7D1FF0E
:101260006D4988796F49FFF7CCFF6B49C8796E49A2
:10127000FFF7C7FF6849087A6C49FFF7C2FF664964
:10128000487A6B49FFF7BDFF6AA1674808F029F962
:101290000746664908F025F9064666A108F021F9D7
:1012A0000546634908F01DF963A15C4808F019F987
:1012B00007465B4908F015F906465FA108F011F9E9
:1012C0000546584908F00DF94FF6FF7007F04DFA42
:1012D0004FF4AF7340F262227821012007F0CBFC7B
:1012E000002007F042FA504B0093022300227A219B
:1012F0000F2007F0C1FA494B0093022300229321EB
:101300000F2007F0B9FA4DA300930923002273219F
:10131000912007F0B1FA4AA3009309230022732118
:10132000EB2007F0A9FA40490020FFF76AFF3F4988
:101330000020FFF766FF3E490020FFF762FF3749B4
:10134000002000E095E0FFF75CFF35490020FFF743
:1013500058FF34490020FFF754FF36A1324808F007
:10136000C0F80746314908F0BCF8064631A108F03C
:10137000B8F805462E4908F0B4F82FA1274808F020
:10138000B0F80746264908F0ACF806462AA108F04E
:10139000A8F80546234908F0A4F81F4948892949B7
:1013A000FFF7C3FE204B0093022300227A214FF463
:1013B000AA7007F061FA194B0093022300229321CF
:1013C0004FF4AA7007F058FA1E4B0093092300222D
:1013D00073214FF4EB7007F04FFA1B480078C0EB15
:1013E00000101A4901EB40104369009303230022C7
:1013F000AF210F202CE0000020000020A0000020E2
:1014000012050020A2000020A4000020A600002059
:10141000AA000020A800002010070020A40400203B
:101420003E00002043000020B304002048000020BC
:10143000390000203A0000002E0000004447000060
:101440003030310066000020C4000020C8000020B9
:1014500007F012FAFF480078C0EB0010FE4901EBDC
:101460004010836B009302230022CD210F2007F050
:1014700003FAF8BDF8B50446002C7DDD204607F0E0
:1014800074F8F6490879F649FFF7BBFEF349487945
:10149000F449FFF7B6FEF1498879F349FFF7B1FE49
:1014A000EE49C879F149FFF7ACFEEC49087AF049FA
:1014B000FFF7A7FEE949487AEE49FFF7A2FEAFF22F
:1014C0008C01EA4808F00DF80746E94908F009F8E8
:1014D0000646AFF2A00108F004F80546E54908F019
:1014E00000F8AFF2AC01DE4807F0FBFF0746DD492C
:1014F00007F0F7FF0646AFF2C00107F0F2FF05461E
:10150000D94907F0EEFF4FF6FF7007F02EF94FF4C0
:10151000A57340F26222F121012007F0ACFB00200C
:1015200007F023F9D14B009302230022F2210F2070
:1015300007F0A2F9CA4B00930223002240F20B11DC
:101540000F2007F099F9AFF20C1300930923002242
:10155000EB21912007F090F9AFF21C1300930923BF
:101560000022EB21084607F087F9204607F040F8F3
:10157000C1490879BA4900E09DE0FFF742FEBE4943
:101580004879B849FFF73DFEBB498879B649FFF76E
:1015900038FEB949C879B549FFF733FEB649087A2C
:1015A000B349FFF72EFEB449487AB249FFF729FE46
:1015B000AFF28011AD4807F094FF0746AC4907F041
:1015C00090FF0646AFF2941107F08BFF0546A9493C
:1015D00007F087FFAFF2A011A14807F082FF07468E
:1015E000A04907F07EFF0646AFF2B41107F079FF7D
:1015F00005469D4907F075FF9F4948899F49FFF7B8
:1016000094FD9A4B009302230022F2214FF4AA701A
:1016100007F032F9924B00930223002240F20B11A3
:101620004FF4AA7007F028F9944B00930923002285
:10163000EB21480007F020F986480078C0EB001045
:10164000854901EB401043690093032300224FF4C6
:1016500091710F2007F010F9804908688849FFF759
:101660000FF87C480078C0EB00107B4A02EB40107A
:10167000D0F84811834807F034FF0646804907F048
:1016800030FF054673480078C0EB0010724A02EB49
:101690004010D0F8C011284607F023FF794B009383
:1016A000022300224FF4A0710F2007F0E5F8322149
:1016B000744807F00AFFF8BDF8B50446002C7EDD3B
:1016C000204606F052FF654908796F49FFF799FDFA
:1016D000624948796D49FFF794FD604988796C4902
:1016E000FFF78FFD5D49C8796A49FFF78AFD5B49BD
:1016F000087A6949FFF785FD5849487A6749FFF735
:1017000080FDAFF2D021634807F0EBFE0746624947
:1017100007F0E7FE0646AFF2E42107F0E2FE0546D9
:101720005E4907F0DEFEAFF2F021574807F0D9FE20
:101730000746564907F0D5FE0646AFF2043107F0DA
:10174000D0FE0546524907F0CCFE4FF6FF7007F079
:101750000CF84FF4AF7340F262227821012007F0B9
:101760008AFA002007F001F84A4B00930223002276
:101770007A210F2007F080F8434B009302230022C8
:1017800093210F2007F078F8AFF25033009309232C
:1017900000227321912007F06FF8AFF25C330093C1
:1017A000092300227321EB2007F066F8204606F09B
:1017B0001FFF314908793449FFF723FD00E0C0E0FD
:1017C0002D4948793149FFF71CFD2B49887930496B
:1017D000FFF717FD2849C8792E49FFF712FD264962
:1017E000087A2D49FFF70DFD2349487A2B49FFF769
:1017F00008FDAFF2C031274807F073FE07462649BF
:1018000007F06FFE0646AFF2D43107F06AFE0546D8
:10181000224907F066FEAFF2E0311B4807F061FE97
:1018200007461A4907F05DFE0646AFF2F43107F0AD
:1018300058FE0546164907F054FE0F4948890F49DE
:10184000FFF773FC134B0093022300227A214FF41D
:10185000AA7025E0C4000020C8000020E006002097
:10186000C20400205200002057000020D1040020B4
:101870005C0000204D000020F806002066000020DB
:1018800061000020E0040020A40400203E000020AD
:1018900043000020B304002048000020390000204D
:1018A00006F0EAFFFF4B00930223002293214FF43E
:1018B000AA7006F0E1FFFC4B00930923002273217C
:1018C0004FF4EB7006F0D8FFF8480078C0EB00103A
:1018D000F74901EB40104369009303230022AF2135
:1018E0000F2006F0C9FFF3490868F349FEF7C8FE68
:1018F000EE480078C0EB0010ED4A02EB4010D0F843
:101900004811EE4807F0EDFD0646EB4907F0E9FD0A
:101910000546E6480078C0EB0010E54A02EB4010AF
:10192000D0F8C011284607F0DCFDE44B00930223F9
:101930000022CD210F2006F09FFF3221DF4807F063
:10194000C4FDF8BDFEB50246144600200023002C5D
:1019500000DA524200BF0A2592FBF5F605FB162578
:101960003035EDB20DF800500A2592FBF5F2401C1F
:10197000002AF0DC002C04DA2D270546401C0DF867
:10198000057000250DF80050401E04E01DF80050C1
:10199000CD545B1C401E0028F8DA0025CD54FEBD56
:1019A000F8B50446002C7EDD204606F092FEC449C0
:1019B0000879BC49FFF725FCC1494879C149FFF7BF
:1019C00020FCBF498879C049FFF71BFCBC49C87996
:1019D000BE49FFF716FCBA49087ABD49FFF711FC6A
:1019E000B749487ABB49FFF70CFCAFF2B851B7488A
:1019F00007F077FD0746B64907F073FD0646AFF2DC
:101A0000CC5107F06EFD0546B24907F06AFDAFF212
:101A1000D851A44807F065FD0746AA4907F061FDC3
:101A20000646AFF2EC5107F05CFD0546A64907F00B
:101A300058FD4FF6FF7006F098FE4FF4AF7340F27A
:101A400062227821012007F016F9002006F08DFEB1
:101A50009E4B0093022300227A210F2006F00CFFF8
:101A6000904B00930223002293210F2006F004FFE5
:101A7000AFF238630093092300227321912006F00E
:101A8000FBFEAFF244630093092300227321EB2095
:101A900006F0F2FE8D490020FFF7B3FB8C490020D1
:101AA000FFF7AFFB00E072E08A490020FFF7A9FBD7
:101AB0007C490020FFF7A5FB82490020FFF7A1FB2E
:101AC00081490020FFF79DFBAFF298617F4807F046
:101AD00008FD07467E4907F004FD0646AFF2AC61FB
:101AE00007F0FFFC05467B4907F0FBFCAFF2B8614D
:101AF0006C4807F0F6FC0746724907F0F2FC064610
:101B0000AFF2CC6107F0EDFC05466F4907F0E9FC48
:101B10006B4948896449FFF708FB6C4B009302232B
:101B200000227A214FF4AA7006F0A6FE5D4B0093C6
:101B30000223002293214FF4AA7006F09DFE5A4B17
:101B400000930923002273214FF4EB7006F094FEFA
:101B500056480078C0EB0010554901EB401043692E
:101B6000009303230022AF210F2006F085FE4F488B
:101B70000078C0EB00104E4901EB4010D0F8BC31AA
:101B8000009302230022CD210F2006F075FEF8BD40
:101B900000B58BB000200A9009900890079006903D
:101BA000059004904C488179407941EA00200A90E0
:101BB0004948017AC07941EA0020099046480088E6
:101BC0000E2844F0AA834448807A08904248C07A9C
:101BD00007900898012844F0A78300203F49087027
:101BE0003F4908700A98012807D10998252804D18F
:101BF000079810B900203B4908700A98012815D1B0
:101C00000998252812D1079801280FD13549087065
:101C10000020354908703548007820F0010033492C
:101C200008704FF40461039005F02FFD0A98012815
:101C300004D10998052801D1012006902C4800887C
:101C400000280DDD0A9801280AD10998112807D12A
:101C50002848007820B92848007808B90220069062
:101C60000A9801280BD10998122808D12148007838
:101C700028B921480078012801D1032006900A984C
:101C800001280AD10998182807D11A48007820B9E4
:101C90001948007808B9042006900A9801283BD119
:101CA00009982BE0A404002066000020C400002056
:101CB000C8000020E006002061000020E0040020B1
:101CC000280700203E00002043000020B30400202D
:101CD00048000020390000209E0700201800002046
:101CE0001A000020B5000020AE000020BA0000203D
:101CF000900000201F0000202400002013280BD19A
:101D0000FF48007840B9FF480078002804DDFE480D
:101D1000007808B9052006900A98012804D109988E
:101D20000A2801D1062006900A9801280ED10998A8
:101D300011280BD1F2480078012807D1F248007829
:101D400020B9F248008808B1072006900A980128B7
:101D50000CD10998122809D1E9480078012805D149
:101D6000E9480078012801D1082006900A98012846
:101D700004D10998102801D1092006900A98012859
:101D800008D10998112805D1DD480078022801D131
:101D90000A2006900A98012802D109980B2810D031
:101DA0000A9801280FD10998122802D009981528FD
:101DB00009D1D3480078032805D1D34800780128F9
:101DC00001D10B2006900A98012808D109981828FB
:101DD00005D1CB480078032801D10C2006900A9841
:101DE000012808D10998132805D1C548007803288F
:101DF00001D10D2006900A98012811D109981128C7
:101E000002D0099814280BD1BD480078032807D1C7
:101E1000BC48007820B9BC48007808B90E2006906C
:101E20000A9801281BD10998112802D00998142872
:101E300015D1B3480078032811D1B548006832287D
:101E40000DD1B1480078022809D1AE4800780028A9
:101E500005DBAC480078052801DC0F2006900A98C5
:101E6000012814D10998112802D0099814280ED1FC
:101E7000A348007803280AD1A5480068052806D1A0
:101E8000A1480078012802D19E480078B0B10A9894
:101E9000012815D10998122802D0099815280FD1C8
:101EA0009B480068B0F5FA7F0ADB99480068B0F5F6
:101EB000FD7F05DA94480078032801D113200690AD
:101EC00094480078002813DD0A98012810D1099859
:101ED000112802D0099814280AD1894800780328CB
:101EE00006D188480078052802D187480078A0B13B
:101EF0000A98012813D10998122802D009981528A8
:101F00000DD183480068322809DB814800683528F4
:101F100005DC7D480078022801D1142006907D4818
:101F20000078002813DD0A98012810D1099811289B
:101F300002D0099814280AD171480078032806D1E4
:101F400070480078062802D16F480078A0B10A983E
:101F5000012813D10998122802D0099815280DD10B
:101F60006B4800683C2809DB69480068442805DCA8
:101F700065480078022801D1152006900A980128AA
:101F800016D10998112802D00998142810D15C485C
:101F9000007803280CD15E480068062808D15A480A
:101FA0000078012804D15748007808B92520069008
:101FB0000A98012817D10998112802D009981428E5
:101FC00011D14F48007803280DD1514800680628E8
:101FD00009D14D480078012805D14A4800780128E8
:101FE00001D1162006900A98012817D109981128C6
:101FF00002D00998142811D14148007803280DD146
:1020000043480068062809D13F480078012805D1D7
:102010003C480078022801D1172006900A98012830
:1020200017D10998112802D00998142811D13448E1
:10203000007803280DD136480068062809D13248B7
:102040000078012805D12F480078032801D11820F5
:1020500006900A98012810D10998112802D00998F1
:1020600014280AD126480078032806D1254800788C
:10207000012802D124480078A0B10A98012813D180
:102080000998122802D0099815280DD12048006817
:102090000A2809DB1E4800680C2805DC1A4800786D
:1020A000022801D1192006900A98012816D1099812
:1020B000112802D00998142810D11148007803285B
:1020C0000CD113480068012808D10F480078012876
:1020D00004D10C48007808B91A2006900A98012803
:1020E0001DD1099818281AD105480078032816D15F
:1020F000074800680A2812D10348007802280BE03C
:102100001F00002025000020240000209400002053
:10211000200000201900002001D11B2006900A9801
:10212000012814D10998132811D1FF4800780328F9
:102130000DD1FE4800680A2809D1FD480078002822
:1021400005DDFC480078022801D11C2006900A9881
:10215000012815D10998112802D0099814280FD107
:10216000F148007803280BD1F0480068062807D111
:10217000F0480078012803D1ED480078042817D0F2
:102180000A98012816D10998122802D00998152812
:1021900010D1E6480068B0F5207F0BDBE34800680B
:1021A00040F28221884205DCE2480078032801D110
:1021B0001D2006900A98012816D10998112802D0EE
:1021C0000998142810D1D848007803280CD1D74892
:1021D0000068402808D1D7480078022804D1D448A4
:1021E000007808B91E2006900A98012810D1099895
:1021F00014280DD1CC480078032809D1CB480068B9
:10220000B0F5207F04D1CC48007808B91F20069093
:10221000CA480078002815DD0A98012812D10998CB
:10222000112802D0099814280CD1BF48007803283F
:1022300008D1BF480078032804D1BE48007808B907
:10224000202006900A9801280FD1099814280CD153
:10225000B5480078032808D1B4480068032804D1A1
:10226000B548007808B921200690B44800780028C5
:1022700015DD0A98012812D10998112802D0099871
:1022800014280CD1A8480078032808D1A848007861
:10229000022804D1A748007808B922200690A74850
:1022A0000078002815DD0A98012812D10998112814
:1022B00002D0099814280CD19B480078032808D133
:1022C0009B480078042804D19A48007808B9232054
:1022D00006909A480078002815DD0A98012812D146
:1022E0000998112802D0099814280CD18E4800783A
:1022F000032808D18E480078072804D18D4800783B
:1023000008B9242006900A98012812D109981128AA
:1023100002D0099814280CD183480078032808D1EA
:10232000824800683C2804D18148007808B92620FA
:1023300006900A98012813D10998112802D009980B
:1023400014280DD178480078032809D1774800680F
:102350003C2805D176480078012801D12720069035
:1023600076480078042815DA0A98012812D10998CD
:10237000112802D0099814280CD16B480078032842
:1023800008D16B480078012804DD6A48007808B954
:10239000282006900A98012817D10998112802D000
:1023A0000998142811D16048007803280DD15F489E
:1023B0000068062809D15F480078012805D15C48EB
:1023C0000078062801D1292006900A98012812D108
:1023D0000998112802D0099814280CD15248007885
:1023E000032808D151480068422804D15048007899
:1023F00008B92A2006900A98012813D109981128B3
:1024000002D0099814280DD147480078032809D133
:1024100046480068422805D145480078012801D186
:102420002B2006900A98012817D10998112802D06C
:102430000998142811D13C48007803280DD13B4855
:102440000068012809D13B480078012805D13848A7
:102450000078012801D12C2006900A98012817D174
:102460000998112802D00998142811D12E48007813
:1024700003280DD12D480068402809D12D48007847
:10248000022805D12A480078012801D12D20069084
:102490000A98012811D1099814280ED122480078F1
:1024A00003280AD121480068A0F50071813904D1C0
:1024B0002148007808B92E2006902048007800288E
:1024C00013DD0A98012810D10998112802D0099823
:1024D00014280AD114480078032806D1144800783B
:1024E000022802D113480078A0B10A98012813D11C
:1024F0000998122802D0099815280DD10B480068B8
:10250000142809DB09480068192805DC0948007807
:10251000022801D12F2006900A98012823D109987A
:1025200011280FD009980BE01F0000202000002088
:1025300025000020240000201E000020190000209B
:10254000142810D1FF48007803280CD1FE480068F9
:10255000022808D1FD480078012804D1FC48007801
:1025600008B9302006900A98012813D1099811283B
:1025700002D0099814280DD1F2480078032809D117
:10258000F1480068142805D1F1480078012801D1EC
:10259000312006900A98012812D10998112802D0FA
:1025A000099814280CD1E7480078032808D1E64898
:1025B0000068142804D1E648007808B93220069053
:1025C0000698332883F0A786DFE810F03300350043
:1025D000D2003F02F70261040C057F0501068A065E
:1025E000FA06FB06CC072B089F083D09A51EA51E71
:1025F000A51EB60A830B2E0C3C0D050EEF0E640FC4
:10260000FF0FAE10FF11B0124D13C7135014DC149E
:102610002416861601176317EF176318D7181C19AD
:10262000B919401AC71A511BCB1B4E1CC91C7A1D65
:102630000F1E03F071BE0020C2490870C349087024
:102640000220C44908700020C1490870C2480078BF
:1026500006F011FC4FF6FF7006F087F8482340F2B1
:10266000F3120121832006F006FB4FF4BE7340F203
:102670006B224A21002006F0FEFA002006F075F8D1
:10268000002316221021872006F07BF9B34800783A
:10269000C0EB0010B24901EB401003680093072320
:1026A0000022172140F20F1006F0E6F8AB48007840
:1026B000C0EB0010AA4901EB4010436800930323CC
:1026C000002255210F2006F0D7F8A4480078C0EB6F
:1026D0000010A34901EB40108368009303230022FC
:1026E0005521880006F0C8F89C480078C0EB00101F
:1026F0009B4901EB4010C36800930323002255213E
:102700004FF4EB7006F0B8F89648008891490978C4
:10271000884212DB93480088FEF7CEFF914800887C
:10272000401E0390FEF7A6FEAF234FF416727321EE
:1027300040F2D11006F078FA0FE08A4800880128AC
:102740000AD1FEF7B9FFAF234FF41672732140F29E
:10275000D11006F069FA00E000BF7F48007806F06B
:1027600097FB7D480078C0F103007B49087060E763
:1027700076480078401C754908707A48008874498A
:102780000978401A039005F0F0FE7348007806F0CF
:1027900072FB4FF6FF7005F0E8FF482340F2F3129A
:1027A0000121832006F067FA002005F0DEFF0023F8
:1027B00016221021872006F0E4F868480078C0EB64
:1027C0000010674901EB40100369009307230022C2
:1027D0001721FA2006F050F84FF6FF7005F0C5FFFC
:1027E0004FF4BE7340F26B224A21002006F043FAF8
:1027F000002005F0BAFF59480078C0EB0010584996
:1028000001EB4010436900930323002255210F2060
:1028100006F032F85448006854490390FDF730FF41
:1028200053A1564806F05DFE02904C480078C0EB7C
:1028300000104B4901EB4010D0F8480101460190CF
:10284000029806F04EFE4949039006F04AFE4B4BB3
:1028500000930223002273210F2006F00DF832218D
:10286000464806F032FE3D480078C0EB00103C4977
:1028700001EB4010C36900930323002291210F2034
:1028800005F0FAFF3EA3009302230022AF210F20A0
:1028900005F0F2FF3CA3009302230022CD210F207C
:1028A00005F0EAFF3BA3009302230022CD2178200C
:1028B00005F0E2FF29480078C0EB0010284901EB41
:1028C0004010036A009302230022CD214FF48C7044
:1028D00005F0D2FF33A3009302230022EB217820DE
:1028E00005F0CAFF1D480078C0EB00101C4901EB41
:1028F0004010436A009302230022EB214FF48C70B6
:1029000005F0BAFF2BA300930223002240F2091125
:10291000782005F0B1FF11480078C0EB0010104995
:1029200001EB4010836A00930223002240F2091158
:102930004FF48C7005F0A0FF22A300930223002225
:1029400048E000001F00002020000020240000209C
:1029500025000020260000201D000020C4000020CB
:10296000C800002090000020E00600206100002048
:10297000444730303120202020000000E0040020B7
:10298000454730303200000031372E30312E31369D
:102990000000000031363A32383A34313A303339B7
:1029A0000000000031363A32383A34313A333339A4
:1029B0000000000031363A32383A34313A3531319C
:1029C0000000000031363A32383A34363A30333982
:1029D0000000000040F22711782005F04DFFFE486E
:1029E0000078C0EB0010FD4901EB4010C36A009372
:1029F0000223002240F227114FF48C7005F03CFFB7
:102A0000F7A300930223002240F24511782005F03D
:102A100033FFF1480078C0EB0010F04901EB4010A3
:102A2000036B00930223002240F245114FF48C7097
:102A300005F022FFEE48007806F02AFAEC4800780C
:102A4000C0F10300EA490870F3E50020E949087085
:102A5000E9480078401EE8490870E548007806F02B
:102A60000AFA4FF6FF7005F080FE482340F2F31299
:102A70000121832006F0FFF84FF4BE7340F26B2271
:102A80004A21002006F0F7F8002005F06EFE002332
:102A900016221021872005F074FFCF480078C0EB84
:102AA0000010CE4901EB4010036800930723002279
:102AB000172140F20F1005F0DFFEC7480078C0EB89
:102AC0000010C64901EB4010436800930323002225
:102AD00055210F2005F0D0FEBF480078C0EB001054
:102AE000BE4901EB40108368009303230022552167
:102AF000880005F0C1FEB8480078C0EB0010B74967
:102B000001EB4010C36800930323002255214FF4CA
:102B1000EB7005F0B1FEB9480088B94909788842E0
:102B200012DBB6480088B6490978401A801C039029
:102B3000FEF7C2FDB1480088B1490978401A401C2F
:102B40000390FEF797FC0EE0AC480088AC4909788A
:102B5000884208DAA9480088A9490978401A801CE7
:102B60000390FEF7A9FDA5480088D8B1A5480078D4
:102B7000039000EBD07041100398B0EB410008D1F6
:102B8000AF234FF41672732140F2D11006F04CF8C7
:102B900008E040F227134FF41672EB2140F2D110F7
:102BA00006F042F89248007806F072F990480078F2
:102BB000C0F103008E4908703BE590480088022868
:102BC0007DD190480078F0BB8E480078401C8D493C
:102BD00008708748007806F04EF94FF6FF7005F050
:102BE000C4FD482340F2F3120121832006F043F88C
:102BF0004FF4BE7340F26B224A21002006F03BF8EE
:102C0000002005F0B2FD002316221021872005F0D8
:102C1000B8FE71480078C0EB0010704901EB40101D
:102C20000368009307230022172140F20F1005F0DC
:102C300023FE69480078C0EB0010684901EB4010A2
:102C40004368009300E0C6E00323002255210F20D3
:102C500005F012FE60480078C0EB00105F4901EB00
:102C6000401083680093032300225521880005F05B
:102C700003FE59480078C0EB0010584901EB4010A2
:102C8000C36800930323002255214FF4EB7005F035
:102C9000F3FD0220FEF710FD0120FEF7EBFB40F2F2
:102CA00027134FF41672EB2140F2D11005F0BCFF50
:102CB0004F48007806F0ECF84D48007800E004E05A
:102CC000C0F103004A490870E0E04C4801884D48D3
:102CD0000078401C81427EDD4A480078401C49490A
:102CE000087008460078039000EBD07041100398FC
:102CF000B0EB410004D142480078801C4049087084
:102D00003B48007806F0B7F84FF6FF7005F02DFD50
:102D1000482340F2F3120121832005F0ACFF4FF469
:102D2000BE7340F26B224A21002005F0A4FF002070
:102D300005F01BFD002316221021872005F021FE3F
:102D400025480078C0EB0010244901EB40100368CF
:102D5000009307230022172140F20F1005F08CFD8D
:102D60001D480078C0EB00101C4901EB401043687F
:102D700000930323002255210F2005F07DFD164806
:102D80000078C0EB0010154901EB401083680093F8
:102D9000032300225521880005F06EFD0E480078BF
:102DA000C0EB00100D4901EB4010C36800930323F2
:102DB000002255214FF4EB7005F05EFD0F480088AE
:102DC0000F49097888422CDB0C4800880C490978A7
:102DD000401A801C18E059E0C4000020C800002000
:102DE00031363A32383A34363A323737000000005A
:102DF0001D0000201F000020240000209000002063
:102E000026000020250000200390FEF755FCFF4817
:102E10000088FF490978401A401C0390FEF72AFBFE
:102E20000EE0FA480088FA490978884208DAF7483B
:102E30000088F7490978401A801C0390FEF73CFC93
:102E4000F4480078039000EBD07041100398B0EB89
:102E5000410008D1AF234FF41672732140F2D11014
:102E600005F0E2FE08E040F227134FF41672EB2162
:102E700040F2D11005F0D8FEE748007806F008F8D7
:102E8000E5480078C0F10300E34908706FE4E148C9
:102E90000078401EDF49087008460078039000EB78
:102EA000D07041100398B0EB410004D0D8480078AE
:102EB000801ED7490870D848007805F0DCFF4FF62F
:102EC000FF7005F052FC482340F2F31201218320E9
:102ED00005F0D1FE4FF4BE7340F26B224A21002070
:102EE00005F0C9FE002005F040FC00231622102149
:102EF000872005F046FDC9480078C0EB0010C8499E
:102F000001EB40100368009307230022172140F2D1
:102F10000F1005F0B1FCC1480078C0EB0010C049AB
:102F200001EB4010436800930323002255210F203A
:102F300005F0A2FCB9480078C0EB0010B84901EBDD
:102F4000401083680093032300225521880005F078
:102F500093FCB2480078C0EB0010B14901EB40107F
:102F6000C36800930323002255214FF4EB7005F052
:102F700083FCA6480088A6490978401A801C039063
:102F8000FEF79AFBA1480088A1490978401A401C25
:102F90000390FEF76FFA9F480078039000EBD07023
:102FA00041100398B0EB410009D040F227134FF4D1
:102FB0001672EB2140F2D11005F036FE07E0AF2388
:102FC0004FF41672732140F2D11005F02DFE924895
:102FD000007805F05DFF90480078C0F103008E494D
:102FE000087031E501208F49087000208E49087073
:102FF0008948007805F03FFF4FF6FF7005F0B5FBFC
:10300000482340F2F3120121832005F034FE4FF4EF
:10301000BE7340F26B224A21002005F02CFE0020F6
:1030200005F0A3FB0023132217218F2005F0A9FC34
:103030007A480078C0EB0010794901EB4010436BEF
:10304000009307230022172140F20F1005F014FC13
:1030500072480078C0EB0010714901EB40104368E2
:1030600000930323002255210F2005F005FC6B4837
:103070000078C0EB00106A4901EB401083680093B0
:10308000032300225521880005F0F6FB63480078F1
:10309000C0EB0010624901EB4010C36800930323AA
:1030A000002255214FF4EB7005F0E6FB5F480088E5
:1030B000FEF7C5F85848007805F0EAFE5648007853
:1030C000C0F1030054490870BEE457480078401C22
:1030D000554908705048007805F0CDFE4FF6FF7056
:1030E00005F043FB482340F2F3120121832005F051
:1030F000C2FD002005F039FB0023132217218F2089
:1031000005F03FFC45480078C0EB0010444901EB56
:103110004010036C0093072300221721FA2005F0CA
:10312000ABFB4FF6FF7005F020FB4FF4BE7340F28F
:103130006B224A21002005F09EFD002005F015FBC2
:1031400036480078C0EB0010354901EB4010836B26
:1031500000930323002255210F2005F08DFB2F48FB
:103160000078C0EB00102E4901EB4010436C009337
:10317000022300228221412005F07EFB27480078AF
:10318000C0EB0010264901EB4010836C0093022332
:103190000022A021412005F06FFB20480078C0EB01
:1031A00000101F4901EB4010C36C00930223002262
:1031B000BE21412005F060FB1748007805F068FE4D
:1031C00015480078C0F10300134908703CE4012061
:1031D0001449087014480078401E134908700E48BE
:1031E000007805F048FE4FF6FF7005F0BEFA482360
:1031F00040F2F3120121832005F03DFD4FF4BE7330
:1032000040F26B224A21002012E0000090000020D2
:1032100026000020250000201D000020C400002002
:10322000C80000201F00002024000020940000207F
:1032300005F021FD002005F098FA00231322172144
:103240008F2005F09EFBFF480078C0EB0010FE4980
:1032500001EB4010436B009307230022172140F23B
:103260000F1005F009FBF7480078C0EB0010F64995
:1032700001EB4010436800930323002255210F20E7
:1032800005F0FAFAEF480078C0EB0010EE4901EBC8
:10329000401083680093032300225521880005F025
:1032A000EBFAE8480078C0EB0010E74901EB40106A
:1032B000C36800930323002255214FF4EB7005F0FF
:1032C000DBFAE2480088FDF7BAFFE148007805F034
:1032D000DFFDDF480078C0F10300DD4908706BE4D2
:1032E0000220DC490870DA48007805F0C4FD4FF68A
:1032F000FF7005F03AFA482340F2F31201218320CF
:1033000005F0B9FC4FF4BE7340F26B224A21002055
:1033100005F0B1FC002005F028FA00231422172143
:103320008F2005F02EFBC7480078C0EB0010C6497F
:1033300001EB4010036D009307230022172140F298
:103340000F1005F099FABF480078C0EB0010BE4995
:1033500001EB4010436800930323002255210F2006
:1033600005F08AFAB7480078C0EB0010B64901EBC7
:10337000401083680093032300225521880005F044
:103380007BFAB0480078C0EB0010AF4901EB401069
:10339000C36800930323002255214FF4EB7005F01E
:1033A0006BFAAD480088FEF7FBFAA948007805F0F3
:1033B0006FFDA7480078C0F10300A549087065E5D6
:1033C00064E50320A34908700020A4490870A449BB
:1033D0000870401EA34908609D48007805F04BFD29
:1033E0004FF6FF7005F0C1F9482340F2F3120121B6
:1033F000832005F040FC4FF4BE7340F26B224A215B
:10340000002005F038FC4FF4AF732C2278210A20FD
:1034100005F031FC002005F0A8F900231522172142
:103420008F2005F0AEFA87480078C0EB001086497F
:1034300001EB4010C36D009307230022172140F2D7
:103440000F1005F019FA7F480078C0EB00107E4994
:1034500001EB4010036E00930223002278212D20FF
:1034600005F00AFA77480078C0EB0010764901EBC6
:103470004010436E00930223002291212D2005F07D
:10348000FBF970480078C0EB00106F4901EB401069
:10349000836E009302230022AA212D2005F0ECF96F
:1034A00068480078C0EB0010674901EB4010C36E1C
:1034B000009302230022C3212D2005F0DDF961488D
:1034C0000078C0EB0010604901EB4010036F0093DF
:1034D00002230022DC212D2005F0CEF95948007886
:1034E000C0EB0010584901EB4010436F00930223DA
:1034F0000022F5212D2005F0BFF952480078C0EBDD
:103500000010514901EB4010836F00930223002209
:103510004FF487712D2005F0AFF94A480078C0EBD1
:103520000010494901EB4010C36F009302230022B1
:1035300040F227112D2005F09FF97D204A4908808F
:103540000023022208460188142005F01AFA404898
:10355000007805F09DFC3E480078C0F103003C492E
:10356000087093E43E48007808B9082004903D486C
:103570000068062801D1092004903A480068012813
:1035800003D038480068402801D103200490354812
:103590000068052801D104200490324800683228D0
:1035A00001D1062004902F4800683C2807D02D4800
:1035B0000068422803D02B480068142801D102205B
:1035C0000490049860B34FF6FF7005F0CEF84FF406
:1035D000AF732C2278210A2005F04DFB049800EBF4
:1035E000C00101EB001064301F49098888420ADDE0
:1035F0001D48008819301C49088018480078401C74
:103600001649087005E07D201749088000201349FD
:1036100008700023022214480188142005F0B1F933
:1036200034E40F48007808B9082004900D48006879
:10363000062801D1092004900A480068012818D002
:10364000084813E0C4000020C800002094000020B7
:103650001D0000201F0000209600002025000020F3
:1036600024000020200000202800002000684028BE
:1036700001D103200490FF480068052801D10420EF
:103680000490FC480068322801D106200490F948D3
:1036900000683C2807D0F7480068422803D0F54866
:1036A0000068142801D102200490049860B34FF6FA
:1036B000FF7005F05AF84FF4AF732C2278210A20DE
:1036C00005F0D9FAEC4800887D280ADDEA48008830
:1036D0001938E9490880E9480078401EE749087030
:1036E0000BE0049800EBC00101EB00106430E249EC
:1036F00008800498401EE149087000230222DE4839
:103700000188142005F03DF96BE4DD480078401C89
:10371000DB4908700020D7490860DA48007805F0D6
:10372000AAFB4FF6FF7005F020F8482340F2F31291
:103730000121832005F09FFA4FF4BE7340F26B2203
:103740004A21002005F097FA002005F00EF800232A
:10375000152217218F2005F014F9CB480078C0EB13
:103760000010CA4901EB4010C36D009307230022EB
:10377000172140F20F1005F07FF8C3480078C0EB26
:103780000010C24901EB4010036E00930223002297
:103790005021052005F070F84FF490734FF4F0724B
:1037A000A821B42005F040FAE4234FF4F072194642
:1037B000B42005F090F9B6A3009309230022AA21B2
:1037C000C82005F059F8B0480078C0EB0010AF49A8
:1037D00001EB4010D0F88030009305230022F02147
:1037E000C82005F049F8A8480078C0EB0010A749A8
:1037F00001EB4010D0F884300093052300224FF4F1
:103800008771C82005F038F844F6692004F0ADFF50
:1038100040F2211340F2E112A721B32005F004FA8F
:103820004FF491734FF4F172A621B22005F0FCF928
:103830009448007805F02CFB92480078C0F1030012
:103840009049087040E48E480078401C8C4908700C
:103850008C48007805F00FFB4FF6FF7004F085FFF1
:10386000482340F2F3120121832005F004FA4FF4BB
:10387000BE7340F26B224A21002005F0FCF90020C3
:1038800004F073FF0023152217218F2005F079F82B
:103890007D480078C0EB00107C4901EB4010C36DFF
:1038A000009307230022172140F20F1004F0E4FFD9
:1038B00072480078062872D2DFE800F0031D375402
:1038C000728C022004F0C2FA80B205904FF4FA70B4
:1038D000684908606C480078C0EB00106B4901EB48
:1038E0004010D0F888300093022300225021052098
:1038F00004F0C2FF89E0042004F0A8FA80B2059029
:1039000040F2F5105B4908605F480078C0EB00109A
:103910005E4901EB4010D0F88C3000930223002266
:103920005021052004F0A8FF6FE0062004F08EFA75
:103930000A2190FBF1F080B205904FF4FB704D49E5
:10394000086051480078C0EB0010504901EB40106E
:10395000D0F890300093022300225021052004F07B
:103960008BFF52E0082004F071FA0A2190FBF1F07D
:1039700080B2059040F2F7103E4908604248007856
:10398000C0EB0010414901EB4010D0F89430009397
:10399000022300225021052004F06EFF35E033E0C1
:1039A0000A2004F053FA80B205904FF4FC703149BC
:1039B000086035480078C0EB0010344901EB401036
:1039C000D0F898300093022300225021052004F003
:1039D00053FF1AE0242004F039FA80B2059040F237
:1039E000F9102449086028480078C0EB00102749E6
:1039F00001EB4010D0F8C83100930223002250217F
:103A0000052004F039FF00E000BF00BF00201B4983
:103A100008704FF490734FF4F072A821B42005F0B1
:103A200003F9E4234FF4F0721946B42005F053F87B
:103A30001A490598FCF724FE184B0093092300222D
:103A4000AA214FF48C7004F017FF0F480078C0EBE8
:103A500000100E4901EB4010D0F880300093052390
:103A60000022F021C82004F007FF07480078C0EBCF
:103A7000001015E020000020280000202500002074
:103A8000240000201D000020C4000020C8000020E9
:103A90002A2A2A2A2A2A2A2A000000006B0000204B
:103AA000FF4901EB4010D0F89C3000930523002221
:103AB0004FF48771C82004F0DFFEFA480078C0EBAD
:103AC0000010F74901EB4010D0F8A0300093072315
:103AD0000022B421142004F0CFFEF2480078C0EB9D
:103AE0000010EF4901EB4010D0F8A43000930723F9
:103AF0000022F021142004F0BFFE44F6692004F0F7
:103B000034FE40F2211340F2E112A721B32005F068
:103B10008BF84FF491734FF4F172A621B22005F0A7
:103B200083F8E148007805F0B3F9DF480078C0F188
:103B30000300DD49087042E4DC480078012804D124
:103B4000DA480078401CD9490870D8480078032822
:103B500004D1D6480078401ED44908700020D449CA
:103B600008703220D3490860CF48007805F083F907
:103B70004FF6FF7004F0F9FD482340F2F3120121E3
:103B8000832005F078F84FF4BE7340F26B224A218F
:103B9000002005F070F8002004F0E7FD0023152256
:103BA00017218F2004F0EDFEBE480078C0EB001016
:103BB000BB4901EB4010C36D00930723002217217E
:103BC00040F20F1004F058FEB6480078C0EB001029
:103BD000B34901EB4010D0F8A83000930223002233
:103BE0005021052004F048FEAE480078C0EB0010DC
:103BF000AB4901EB4010D0F834310093022300228E
:103C000078212D2004F038FEA6480078C0EB001083
:103C1000A34901EB4010D0F8383100930223002271
:103C200091212D2004F028FE9E480078C0EB001062
:103C30009B4901EB4010D0F83C3100930223002255
:103C4000AA212D2004F018FE96480078C0EB001041
:103C5000934901EB4010D0F8403100930223002239
:103C6000C3212D2004F008FE8E480078C0EB001020
:103C70008B4901EB4010D0F844310093022300221D
:103C8000DC212D2004F0F8FD86480078C0EB001000
:103C9000834901EB4010D0F8C43100930223002285
:103CA000F5212D2004F0E8FD7D20834908800023C4
:103CB000022208460188142004F063FE7A48007846
:103CC00005F0E6F878480078C0F1030076490870FE
:103CD00047E47648007820B974480078401C73495E
:103CE000087072480078022804D170480078401E9D
:103CF0006E49087005206F49086000206C49087003
:103D00006948007805F0B7F84FF6FF7004F02DFD14
:103D1000482340F2F3120121832004F0ACFF4FF45A
:103D2000BE7340F26B224A21002004F0A4FF002061
:103D300004F01BFD0023152217218F2004F021FE23
:103D400058480078C0EB0010554901EB4010C36D96
:103D5000009307230022172140F20F1004F08CFD7E
:103D600050480078C0EB00104D4901EB4010436F04
:103D70000093022300225021052004F07DFD4948D4
:103D80000078C0EB0010464901EB4010D0F8A83095
:103D900000930223002278212D2004F06DFD41487C
:103DA0000078C0EB00103E4901EB4010D0F8AC3079
:103DB00000930223002291212D2004F05DFD39485B
:103DC0000078C0EB0010364901EB4010D0F8B0305D
:103DD000009302230022AA212D2004F04DFD31483A
:103DE0000078C0EB00102E4901EB4010D0F8B43041
:103DF000009302230022C3212D2004F03DFD7D20ED
:103E00002D4908800023022208460188142004F06E
:103E1000B8FD2548007805F03BF823480078C0F14C
:103E20000300214908706FE42048007820B91F483A
:103E30000078401C1D4908701C480078022804D1F5
:103E40001A480078401E1949087006201949086070
:103E50000020174908701448007805F00CF84FF658
:103E6000FF7004F082FC482340F2F312012183200A
:103E700004F001FF4FF4BE7340F26B224A21002090
:103E800004F0F9FE002004F070FC00231522172135
:103E90008F2004F076FD03480078C0EB00100DE0A1
:103EA000C8000020C40000201D00002024000020C5
:103EB000250000202000002028000020FF4901EB01
:103EC0004010C36D009307230022172140F20F100A
:103ED00004F0D2FCFA480078C0EB0010F74901EB7F
:103EE0004010D0F8B8300093022300225021052062
:103EF00004F0C2FCF2480078C0EB0010EF4901EB7F
:103F00004010D0F8BC3000930223002278212D20ED
:103F100004F0B2FCEA480078C0EB0010E74901EB7E
:103F20004010D0F8C03000930223002291212D20B0
:103F300004F0A2FCE2480078C0EB0010DF4901EB7E
:103F40004010D0F8C430009302230022AA212D2073
:103F500004F092FCDA480078C0EB0010D74901EB7E
:103F60004010D0F8C830009302230022C3212D2036
:103F700004F082FCD2480078C0EB0010CF4901EB7E
:103F80004010D0F8CC30009302230022DC212D20F9
:103F900004F072FCCA480078C0EB0010C74901EB7E
:103FA0004010D0F8D030009302230022F5212D20BC
:103FB00004F062FCC2480078C0EB0010BF4901EB7E
:103FC0004010D0F8D4300093022300224FF48771C0
:103FD0002D2004F051FCBA480078C0EB0010B7491E
:103FE00001EB4010D0F8D83000930223002240F2B9
:103FF00027112D2004F040FCB1480078C0EB0010E0
:10400000AE4901EB4010D0F8DC30009302230022CF
:104010004FF4A0712D2004F02FFC7D20A9490880C9
:104020000023022208460188142004F0AAFCA648B6
:10403000007804F02DFFA4480078C0F10300A249E5
:10404000087078E5A1480078401CA049087000205D
:104050009F4908703D209F49086004F06FF89E4812
:1040600000789E490390FDF76DFC9B4840789C4981
:104070000390FDF7C6F8984880789A490390FDF7B9
:10408000C0F899A1954805F02CFA9549019005F0E2
:1040900028FA95A1029005F024FA9249039005F0C0
:1040A00020FA8948007804F0E6FE4FF6FF7004F02D
:1040B0005CFB4FF4BE7340F26B224A21002004F0F7
:1040C000DAFD002004F051FB7D480078C0EB0010C1
:1040D0007A4901EB4010D0F8C0300093022300224F
:1040E0005021052004F0C8FB4FF490734FF4F07298
:1040F000A821B42004F098FDE4234FF4F07219468F
:10410000B42004F0E8FC754B009309230022AA2197
:10411000C82004F0B1FB6A480078C0EB0010674982
:1041200001EB4010D0F8E030009305230022F0218D
:10413000C82004F0A1FB62480078C0EB00105F4982
:1041400001EB4010D0F8E4300093052300224FF437
:104150008771C82004F090FB59480078C0EB00102C
:10416000564901EB4010D0F8E830009307230022B5
:10417000B421142004F080FB51480078C0EB0010FB
:104180004E4901EB4010D0F8EC3000930723002299
:10419000F021142004F070FB44F6692004F0E5FAE5
:1041A00040F2211340F2E112A721B32004F03CFDBC
:1041B0004FF491734FF4F172A621B22004F034FD54
:1041C0004148007804F064FE3F480078C0F10300E5
:1041D0003D490870AFE43D480078401C3B490870F9
:1041E00000203B4908703E203A49086003F0A6FFD2
:1041F0003948C0783D490390FDF703F83648007907
:104200003B490390FCF7FDFF33484079394903905F
:10421000FCF7F7FF38A1354805F063F93449019000
:1042200005F05FF934A1029005F05BF93149039084
:1042300005F057F92448007804F01DFE4FF6FF7092
:1042400004F093FA4FF4BE7340F26B224A2100202F
:1042500004F011FD002004F088FA19480078C0EB42
:104260000010164901EB4010D0F8C430009302232F
:1042700000225021052004F0FFFA4FF490734FF410
:10428000F072A821B42004F0CFFCE4234FF4F072C4
:104290001946B42004F01FFC144B0093092300229C
:1042A000AA21C82004F0E8FA05480078C0EB001005
:1042B000024901EB4010D0F8E0301FE0C8000020B8
:1042C000C4000020280000201D0000202400002041
:1042D0002500002020000020BB000020A4040020B6
:1042E0003E000020430000202E000000B304002008
:1042F00048000020390000203A0000000093052308
:104300000022F021C82004F0B7FAF8480078C0EB8A
:104310000010F74901EB4010D0F8E430009305237A
:1043200000224FF48771C82004F0A6FAEF48007805
:10433000C0EB0010EE4901EB4010D0F8E8300093DC
:1043400007230022B421142004F096FAE7480078ED
:10435000C0EB0010E64901EB4010D0F8EC300093C0
:1043600007230022F021142004F086FA44F6692085
:1043700004F0FBF940F2211340F2E112A721B3202F
:1043800004F052FC4FF491734FF4F172A621B22065
:1043900004F04AFCD748007804F07AFDD54800784C
:1043A000C0F10300D349087092E4D3480078401C60
:1043B000D14908700020D14908703F20D0490860D9
:1043C000CC48007804F057FD4FF6FF7004F0CDF9AB
:1043D0004FF4BE7340F26B224A21002004F04BFCE4
:1043E000002004F0C2F9C1480078C0EB0010C049B9
:1043F00001EB4010D0F8C830009302230022502176
:10440000052004F039FA4FF490734FF4F072A821AC
:10441000B42004F009FCE4234FF4F0721946B420F0
:1044200004F059FBAFF69813009309230022AA2148
:10443000C82004F021FAAD480078C0EB0010AC4968
:1044400001EB4010D0F8F030009306230022E62163
:10445000C82004F011FA44F6692004F086F940F20D
:10446000211340F2E112A721B32004F0DDFB4FF449
:1044700091734FF4F172A621B22004F0D5FB9D4850
:10448000007804F005FD9B480078C0F103009949CD
:1044900008701DE49848007820B997480078401CBF
:1044A0009549087094480078022804D19248007811
:1044B000401E9149087001209149086000208F49F1
:1044C00008708C48007804F0D6FC4FF6FF7004F0BA
:1044D0004CF9482340F2F3120121832004F0CBFB76
:1044E0004FF4BE7340F26B224A21002004F0C3FB5C
:1044F000002004F03AF90023152217218F2004F040
:1045000040FA7A480078C0EB0010794901EB40107E
:10451000C36D009307230022172140F20F1004F00F
:10452000ABF972480078C0EB0010714901EB401004
:10453000436E0093022300225021052004F09CF9D1
:104540006A480078C0EB0010694901EB4010D0F8D0
:10455000F43000930223002278212D2004F08CF9FE
:1045600062480078C0EB0010614901EB4010D0F8C0
:10457000F83000930223002291212D2004F07CF9D1
:104580005A480078C0EB0010594901EB4010D0F8B0
:10459000FC30009302230022AA212D2004F06CF9A4
:1045A0007D205849088000230222084601881420F3
:1045B00004F0E7F94F48007804F06AFC4D480078B1
:1045C000C0F103004B4908702DE44B480078401CB3
:1045D000494908700020494908700A204849086084
:1045E0000220494908704348007804F044FC4FF623
:1045F000FF7004F0BAF8482340F2F312012183203F
:1046000004F039FB4FF4BE7340F26B224A210020C4
:1046100004F031FB002004F0A8F80023162210213A
:10462000872004F0AEF931480078C0EB0010304923
:1046300001EB4010D0F8003100930723002217212E
:1046400040F20F1004F018F928480078C0EB001071
:10465000274901EB401043680093032300225521B2
:104660000F2004F009F921480078C0EB0010204920
:1046700001EB40108368009303230022552188003A
:1046800004F0FAF819480078C0EB0010184901EB63
:104690004010C36800930323002255214FF4EB70B0
:1046A00004F0EAF8194800881749097888420EDBB7
:1046B0000120FDF701F80220FCF7DCFEAF234FF4E8
:1046C0001672732140F2D11004F0AEFA21E00F48C7
:1046D000008801281CD1FCF7EFFFAF234FF41672BE
:1046E000732140F2D11004F09FFA12E0C4000020C0
:1046F000C80000201D00002024000020250000200C
:10470000200000202800002026000020900000202B
:1047100000BFFF48007804F0BBFBFD480078C0F103
:104720000300FB4908708CE4FA480088FA490978CC
:1047300088427ED1F8480078F8490978401A022862
:1047400078D1F6480078401CF4490870F0480078A9
:1047500004F091FB4FF6FF7004F007F8482340F295
:10476000F3120121832004F086FA4FF4BE7340F265
:104770006B224A21002004F07EFA002003F0F5FFAE
:10478000002316221021872004F0FBF8E44800786B
:10479000C0EB0010E34901EB4010D0F8003100936A
:1047A00007230022172140F20F1004F065F8DC48BF
:1047B0000078C0EB0010DB4901EB40104368009328
:1047C0000323002255210F2004F056F8D448007826
:1047D000C0EB0010D34901EB401083680093032322
:1047E00000225521880004F047F8CD480078C0EB3E
:1047F0000010CC4901EB4010C36800930323002252
:1048000055214FF4EB7004F037F8C3480078401E90
:104810000390FCF751FFC0480078FCF72BFE40F2F4
:1048200027134FF41672EB2140F2D11004F0FCF97B
:1048300001E00BE08EE0B648007804F029FBB448B4
:104840000078C0F10300B2490870BDE0B1480088AB
:10485000B149097888427DDDB0480078401CAF49F5
:10486000087008460078039000EBD0704110039860
:10487000B0EB410004D1A8480078801CA64908701C
:10488000A348007804F0F7FA4FF6FF7003F06DFFCD
:10489000482340F2F3120121832004F0ECF94FF495
:1048A000BE7340F26B224A21002004F0E4F900209C
:1048B00003F05BFF002316221021872004F061F82B
:1048C00097480078C0EB0010964901EB4010D0F8F3
:1048D0000031009307230022172140F20F1003F04C
:1048E000CBFF8F480078C0EB00108E4901EB4010E1
:1048F000436800930323002255210F2003F0BCFFDF
:1049000087480078C0EB0010864901EB40108368AF
:104910000093032300225521880003F0ADFF804857
:104920000078C0EB00107F4901EB4010C368009392
:104930000323002255214FF4EB7003F09DFF7548CF
:1049400000887549097888420CDB73480078401E5E
:10495000039000E038E0FCF7AFFE6F480078FCF70A
:1049600089FD0BE06B4800886B490978884205DABD
:1049700069480078401E0390FCF79EFE6748007867
:10498000039000EBD07041100398B0EB410008D1C8
:10499000AF234FF41672732140F2D11004F044F9A2
:1049A00008E040F227134FF41672EB2140F2D110C9
:1049B00004F03AF95648007804F06AFA544800784E
:1049C000C0F103005249087004E454480078401EC6
:1049D0005249087008460078039000EBD0704110EF
:1049E0000398B0EB410004D04B480078801E4A4940
:1049F00008704748007804F03EFA4FF6FF7003F065
:104A0000B4FE482340F2F3120121832004F033F96D
:104A10004FF4BE7340F26B224A21002004F02BF9C0
:104A2000002003F0A2FE002316221021872003F0AD
:104A3000A8FF3B480078C0EB00103A4901EB40105A
:104A4000D0F80031009307230022172140F20F1005
:104A500003F012FF32480078C0EB0010314901EB3F
:104A60004010436800930323002255210F2003F0D8
:104A700003FF2B480078C0EB00102A4901EB4010DF
:104A800083680093032300225521880003F0F4FE7D
:104A900023480078C0EB0010224901EB4010C368A6
:104AA00000930323002255214FF4EB7003F0E4FE42
:104AB00019480078401E0390FCF7FEFD1648007868
:104AC000FCF7D8FC15480078039000EBD07041103B
:104AD0000398B0EB410009D040F227134FF416724F
:104AE000EB2140F2D11004F09FF807E0AF234FF420
:104AF0001672732140F2D11004F096F80448007841
:104B000004F0C6F902480078C0F1030000490BE048
:104B10001D0000209000002026000020250000201D
:104B2000C4000020C800002008703DE4FF48007861
:104B3000012804D1FD480078401CFC490870FB485E
:104B40000078032804D1F9480078401EF74908701E
:104B50000020F74908704020F6490860F6480078C0
:104B600004F089F94FF6FF7003F0FFFD482340F28F
:104B7000F3120121832004F07EF84FF4BE7340F25B
:104B80006B224A21002004F076F8002003F0EDFDAE
:104B90000023152217218F2003F0F3FEE748007849
:104BA000C0EB0010E64901EB4010C36D00930723F2
:104BB0000022172140F20F1003F05EFEDF4800785C
:104BC000C0EB0010DE4901EB4010D0F8CC30009370
:104BD000022300225021052003F04EFED748007822
:104BE000C0EB0010D64901EB4010D0F8043100931F
:104BF0000223002278212D2003F03EFECF480078CA
:104C0000C0EB0010CE4901EB4010D0F80831009302
:104C10000223002291212D2003F02EFEC7480078A8
:104C2000C0EB0010C64901EB4010D0F80C310093E6
:104C300002230022AA212D2003F01EFE7D20C1495F
:104C400008800023022208460188142003F099FE00
:104C5000B948007804F01CF9B7480078C0F10300A7
:104C6000B549087015E4B1480078401CAF49087098
:104C70000020AF4908704FF42070AE490860002052
:104C8000B1490870AC48007804F0F5F84FF6FF70B1
:104C900003F06BFD482340F2F3120121832003F05F
:104CA000EAFF4FF4BE7340F26B224A21002003F06A
:104CB000E2FF002003F059FD0023152217218F2069
:104CC00003F05FFE9D480078C0EB00109C4901EBAB
:104CD0004010C36D009307230022172140F20F10EC
:104CE00003F0CAFD95480078C0EB0010944901EB31
:104CF0004010D0F8043100930223002250210520F7
:104D000003F0BAFD8D480078C0EB00108C4901EB30
:104D10004010D0F81031009307230022BE216E20EE
:104D200003F0AAFD85480078C0EB0010844901EB30
:104D30004010D0F81431009307230022FA213220CA
:104D400003F09AFD7C48007804F0A2F87A480078D5
:104D5000C0F103007849087036E40021084602F0EB
:104D6000E7FF002079490880222102F0E1FF0020BE
:104D7000774908800120744908706F48007804F072
:104D80007AF849F6F97003F0F0FC0522502140F260
:104D90009A2003F0FAFE4FF6FF7003F0E6FC48237A
:104DA00040F2F3120121832003F065FF4FF4BE733C
:104DB00040F26B224A21002003F05DFF002003F047
:104DC000D4FC0023152217218F2003F0DAFD5B4865
:104DD0000078C0EB00105A4901EB4010C36D0093FE
:104DE00007230022172140F20F1003F045FD53481E
:104DF0000078C0EB0010524901EB4010D0F80431AC
:104E00000093022300225021052003F035FD4B487A
:104E10000078C0EB00104A4901EB4010D0F818317F
:104E2000009307230022AA21962003F025FD49497B
:104E300046480088FBF724FC464A2621012004F05E
:104E4000B6F83D48007804F023F83B480078C0F1FC
:104E50000300014603903848007804F026F83648ED
:104E60000078C0F10300344908705CE42F480078F2
:104E7000401C2E49087003202E490860002032494A
:104E800008702D48007803F0F6FF4FF6FF7003F02E
:104E90006CFC482340F2F3120121832003F0EBFE67
:104EA0004FF4BE7340F26B224A21002003F0E3FE70
:104EB000002003F05AFC0023152217218F2003F055
:104EC00060FD1E480078C0EB00101D4901EB40104A
:104ED000C36D009307230022172140F20F1003F047
:104EE000CBFC16480078C0EB0010154901EB4010D0
:104EF000C36E0093022300225021052003F0BCFC66
:104F00000E480078C0EB00100D4901EB4010D0F8BE
:104F10001C31009307230022BE21822003F0ACFC49
:104F200006480078C0EB0010054915E02400002079
:104F300025000020200000201D000020C4000020CB
:104F4000C8000020280000201E0000209000002043
:104F5000920000202A00002001EB4010D0F814310C
:104F6000009307230022FA212D2003F085FCFF483F
:104F7000007803F08DFFFD480078C0F10300FB4985
:104F8000087021E50120FA490870FA4908700121EA
:104F9000800704F034FEF548007803F06CFF4FF60C
:104FA000FF7003F0E2FB482340F2F312012183205B
:104FB00003F061FE4FF4BE7340F26B224A210020E1
:104FC00003F059FE002003F0D0FB00231522172127
:104FD0008F2003F0D6FCE8480078C0EB0010E749CA
:104FE00001EB4010C36D009307230022172140F20C
:104FF0000F1003F041FCE0480078C0EB0010DF49DF
:1050000001EB4010C36E00930223002250210520C3
:1050100003F032FCD8480078C0EB0010D74901EB10
:105020004010D0F82031009307230022AA219620B7
:1050300003F022FCD0480078C0EB0010CF4901EB10
:105040004010D0F82431009307230022FA21C82011
:1050500003F012FCC548007803F01AFFC34800783B
:10506000C0F10300C14908701721552002F00DFB63
:105070004FF6FF70FBF711F94FF6FF70FBF70DF9D4
:1050800000BFBF4800780028FBD0B848007803F084
:10509000F2FE4FF6FF7003F068FB4FF4BE7340F270
:1050A0006B227D21002003F0E6FD002003F05DFB74
:1050B000B348007801284DD1AF480078C0EB00100C
:1050C000AE4901EB4010D0F88C3100930723002249
:1050D0009621322003F0D0FBA7480078C0EB0010E7
:1050E000A64901EB4010D0F8943100930723002229
:1050F000FA21322003F0C0FB4FF4784003F035FB77
:105100000522502140F2CF2003F03FFD302002F075
:105110009DFE9C49088003F07FFA9A4800889949CF
:105120000988491C974A11803021039002F000FE43
:10513000954994480088FBF7A3FA934A2721012058
:1051400003F035FF00214FF0804004F058FD0120AE
:105150008E4908708A480078022839D1864800783C
:10516000C0EB0010854901EB4010D0F8903100935E
:10517000072300229621322003F07EFB7E48007830
:10518000C0EB00107D4901EB4010D0F89431009342
:1051900007230022FA21322003F06EFB49F6F97052
:1051A00003F0E3FA0522502140F2CF2003F0EDFC9A
:1051B000002074490880302102F0BAFD724971481C
:1051C0000088FBF75DFA704A2721012003F0EFFE0B
:1051D0006648007803F05CFE64480078C0F1030084
:1051E000014603906148007803F05FFE5F48007855
:1051F000C0F103005D4908701721002002F045FA54
:105200004FF6FF70FBF749F80020614908705C49D0
:1052100008708AE45F480078401C5E4908700220EC
:105220005D4908605148007803F025FE4FF6FF7095
:1052300003F09BFA482340F2F3120121832003F08C
:105240001AFD4FF4BE7340F26B224A21002003F096
:1052500012FD002003F089FA0023152217218F2068
:1052600003F08FFB44480078C0EB0010434901EB8A
:105270004010C36D009307230022172140F20F1046
:1052800003F0FAFA3C480078C0EB00103B4901EB10
:105290004010836E0093022300225021052003F06A
:1052A000EBFA35480078C0EB0010344901EB4010B0
:1052B000D0F82831009307230022BE21822003F07A
:1052C000DBFA2A48007803F0E3FD28480078C0F1B3
:1052D00003002649087028E42E480078401C2D4918
:1052E000087004202C4908602048007803F0C3FDB2
:1052F0004FF6FF7003F039FA482340F2F312012110
:10530000832003F0B8FC4FF4BE7340F26B224A21B5
:10531000002003F0B0FC002003F027FA0023152240
:1053200017218F2003F02DFB13480078C0EB0010ED
:10533000124901EB4010C36D00930723002217218F
:1053400040F20F1003F098FA0B480078C0EB001001
:105350000A4901EB4010036F009302230022502101
:10536000052003F089FA0448007817E01D000020AA
:105370001E000020B6000020C4000020C80000204D
:10538000B7000020940000202F0000209E00002085
:105390008D0000202400002020000020C0EB001021
:1053A000FF4901EB4010D0F8283100930723002279
:1053B000BE21822003F060FAFA48007803F068FD0D
:1053C000F8480078C0F10300F64908704AE4F6484E
:1053D0000078401CF44908700720F4490860F1483F
:1053E000007803F048FD4FF6FF7003F0BEF9482344
:1053F00040F2F3120121832003F03DFC4FF4BE7311
:1054000040F26B224A21002003F035FC002003F01B
:10541000ACF90023152217218F2003F0B2FAE448DB
:105420000078C0EB0010DE4901EB4010C36D009323
:1054300007230022172140F20F1003F01DFADC4869
:105440000078C0EB0010D64901EB4010C36F009309
:10545000022300225021052003F00EFAD4480078E0
:10546000C0EB0010CE4901EB4010D0F8283100937A
:1054700007230022BE21822003F0FEF9C9480078EC
:1054800003F006FDC7480078C0F10300C549087065
:1054900062E4C5480078401CC34908700020C54933
:1054A00008703C20C1490860BE48007803F0E3FC66
:1054B0004FF6FF7003F059F9482340F2F31201212F
:1054C000832003F0D8FB4FF4BE7340F26B224A21D5
:1054D000002003F0D0FB002003F047F90023152241
:1054E00017218F2003F04DFAB1480078C0EB00106F
:1054F000AB4901EB4010C36D009307230022172135
:1055000040F20F1003F0B8F9A9480078C0EB001082
:10551000A34901EB4010D0F8BC30009302230022D5
:105520005021052003F0A8F9A3A300930223002231
:1055300078212D2003F0A0F9A5A3009302230022D7
:1055400091212D2003F098F99948007860B98A23B9
:10555000672280215D2003F067FBA3236722992146
:105560005D2003F088FB0BE08A23672280215D2009
:1055700003F081FBA323672299215D2003F054FBF4
:105580007D209749088000230222084601881420C4
:1055900003F0F7F98348007803F07AFC814800783B
:1055A000C0F103007F4908705FE401208049087062
:1055B0000C2102F0BDFB7B48007803F05CFC4FF649
:1055C000FF7003F0D2F8482340F2F3120121832048
:1055D00003F051FB4FF4BE7340F26B224A210020CE
:1055E00003F049FB002003F0C0F800231522172127
:1055F0008F2003F0C6F96E480078C0EB00106849B0
:1056000001EB4010C36D009307230022172140F2E5
:105610000F1003F031F966480078C0EB00106049C4
:1056200001EB4010D0F8BC3000930223002250213F
:10563000052003F021F960A30093022300227821C2
:105640002D2003F019F962A3009302230022912177
:105650002D2003F011F98A23672280215D2003F0B9
:105660000AFBA323672299215D2003F0DDFA0023C2
:1056700002225B480188142003F083F9494800782E
:1056800003F006FC47480078C0F103004549087064
:1056900077E40020464908700C2102F049FB41489C
:1056A000007803F0E8FB4FF6FF7003F05EF8482344
:1056B00040F2F3120121832003F0DDFA4FF4BE73B0
:1056C00040F26B224A21002003F0D5FA002003F0BB
:1056D0004CF80023152217218F2003F052F934488B
:1056E0000078C0EB00102E4901EB4010C36D009311
:1056F00007230022172140F20F1003F0BDF82C48B9
:105700000078C0EB0010264901EB4010D0F8BC3007
:105710000093022300225021052003F0ADF826A3B8
:1057200000930223002278212D2003F0A5F828A35E
:1057300000930223002291212D2003F09DF88A235B
:10574000672280215D2003F06FFAA323672299214D
:105750005D2003F090FA00230222214801881420E2
:1057600003F00FF90F48007803F092FB0D48007822
:10577000C0F103000B4908704BE54FF6FF7002F0D3
:10578000F4FF4FF4B9734FF4FA724FF4A0712D2067
:1057900003F071FA002002F0E8FF0548007821E0EC
:1057A000C80000201D000020240000202000002050
:1057B000C4000020250000203731312020204C611A
:1057C0006E677561676520456E676C697368000078
:1057D000373132202020BCF2CCE5D6D0CEC4000038
:1057E00028000020C0EB0010FF4901EB4010D0F86A
:1057F00050310093022300224FF4A5712D2003F0B5
:105800003BF833E2F9480078401CF8490870002062
:10581000F74908704220F7490860F748007803F01C
:105820002AFB4FF6FF7002F0A0FF482340F2F3126C
:105830000121832003F01FFA4FF4BE7340F26B2264
:105840004A21002003F017FA002002F08EFF002307
:10585000152217218F2003F094F8E8480078C0EB58
:105860000010E14901EB4010C36D009307230022B3
:10587000172140F20F1002F0FFFFE0480078C0EB64
:105880000010D94901EB4010D0F8D4300093022326
:1058900000225021052002F0EFFFD8480078C0EB2D
:1058A0000010D14901EB4010D0F88431009302235D
:1058B000002278212D2002F0DFFFD0480078C0EBD5
:1058C0000010C94901EB4010D0F888310093022341
:1058D000002291212D2002F0CFFFC9480078012835
:1058E0000CD18A23672280215D2003F0C4F9A32311
:1058F000672299215D2003F097F90BE08A23672244
:1059000080215D2003F090F9A323672299215D2077
:1059100003F0B1F97D20BB4908800023022208462C
:105920000188142003F02DF8B348007803F0B0FA92
:10593000B1480078C0F10300AF49087096E101203A
:10594000AF4908700E2102F0F3F9132003F074FA46
:10595000A948007803F08FFA4FF6FF7002F005FFB8
:10596000482340F2F3120121832003F084F94FF41D
:10597000BE7340F26B224A21002003F07CF9002024
:1059800002F0F3FE0023152217218F2002F0F9FF09
:105990009A480078C0EB0010934901EB4010C36DAA
:1059A000009307230022172140F20F1002F064FF3A
:1059B00092480078C0EB00108B4901EB4010D0F802
:1059C000D4300093022300225021052002F054FF1E
:1059D0008A480078C0EB0010834901EB4010D0F8F2
:1059E000843100930223002278212D2002F044FF0D
:1059F00082480078C0EB00107B4901EB4010D0F8E2
:105A0000883100930223002291212D2002F034FFDF
:105A10008A23672280215D2003F02DF9A3236722CA
:105A200099215D2003F000F90023022275480188C6
:105A3000142002F0A6FF7048007803F029FA6E489F
:105A40000078C0F103006C4908700FE100206C4938
:105A500008700E2102F06CF9112003F0EDF9664890
:105A6000007803F008FA4FF6FF7002F07EFE48233C
:105A700040F2F3120121832003F0FDF84FF4BE73CE
:105A800040F26B224A21002003F0F5F8002002F0DA
:105A90006CFE0023152217218F2002F072FF574859
:105AA0000078C0EB0010504901EB4010C36D00932B
:105AB00007230022172140F20F1002F0DDFE4F48AD
:105AC0000078C0EB0010484901EB4010D0F8D4300A
:105AD0000093022300225021052002F0CDFE47480A
