:020000040800F2
:10000000280B002045010008650600088F0600083F
:1000100093060008970600089B06000800000000F1
:10002000000000000000000000000000A106000821
:100030009F06000800000000A3060008A5060008AF
:10004000A7060008A9060008AB060008AD060008D0
:10005000C9060008CB0600080707000809070008C2
:100060000B0700080D0700080F070008110700081C
:1000700013070008150700081707000819070008EC
:100080001B0700081D0700081F07000821070008BC
:10009000230700082507000827070008290700088C
:1000A0002B0700082D0700082F070008310700085C
:1000B00033070008D1070008D3070008D507000858
:1000C000D7070008D9070008DB070008DD0700088C
:1000D000DF070008E1070008E3070008AD08000893
:1000E000AF080008B1080008B3080008B508000808
:1000F000B7080008B9080008BB080008BD080008D8
:10010000BF080008C1080008C3080008C5080008A7
:10011000C7080008C9080008CB080008CD08000877
:10012000CF080008D1080008D3080008D508000847
:10013000DFF80CD008F0F6FC00480047E7040008A0
:10014000280B0020004800473101000870B598B026
:1001500001F01EF8FC48007801284BD1FB490878D3
:1001600010A902F0DEFFF94948780CA902F0B6FCAC
:10017000F649887808A902F0B1FCF5A110A808F0AA
:10018000A4FC06460CA908F0A0FC0546F0A108F066
:100190009CFC044608A908F098FCEC49C87804A91E
:1001A00002F09CFCE9490879694602F097FCE749AE
:1001B000487914A902F092FCE6A104A808F085FC95
:1001C0000646694608F081FC0546E2A108F07DFC80
:1001D000044614A908F079FC10AA0321012001F0BB
:1001E0004CFC04AA1E21012001F047FC0020D64946
:1001F000087050E0D548407948BBD448007930BBFE
:10020000D248C07818BBD149087810A902F089FFFC
:10021000CE4948780CA902F061FCCC49887808A93D
:1002200002F05CFCCAA110A808F04FFC06460CA91D
:1002300008F04BFC0546C6A108F047FC044608A997
:1002400008F043FC10AA0321012001F016FCBF496D
:10025000C87804A902F042FCBC490879694602F05A
:100260003DFCBA49487914A902F038FCB9A104A8A8
:1002700008F02BFC0646694608F027FC0546B5A1A8
:1002800008F023FC044614A908F01FFC04AA1E2150
:10029000012001F0F2FB18B070BD002106E07821CA
:1002A00000BF0A00A1F1010399B2FAD10200A0F146
:1002B000010398B2F3D1704708B500214FF00060F8
:1002C00008F042FE4FF4A06008F034FE26208DF8BE
:1002D000000002208DF8010000208DF802000120AE
:1002E0008DF80300684608F0EAFD1C208DF8000038
:1002F00000208DF801008DF8020001208DF8030028
:10030000684608F0DCFD03208DF8000001208DF820
:10031000010000208DF8020001208DF803006846DE
:1003200008F0CDFD08BD70470EB54FF0804009F0D4
:1003300005F84FF0804009F06FF84FF47A70ADF88F
:10034000040048F69F40ADF800000020ADF806001C
:10035000ADF8020069464FF0804009F063F80121D2
:10036000880708F0DAFF00214FF0804008F0CAFF4C
:1003700001224121880709F047F800214FF0804011
:1003800008F0D1FF0EBD00B587B00020ADF8040025
:10039000ADF806004FF40070ADF808000020ADF88D
:1003A0000A0001A96C4809F061F84FF4E1300390AC
:1003B0000020ADF81000ADF81200ADF81400ADF853
:1003C00018000C20ADF8160003A9634809F0A6F840
:1003D000012240F22551604809F087F801215E486A
:1003E00009F053F807B000BD08B54FF4A060ADF8B0
:1003F000000010208DF8030003208DF802006946EC
:10040000564808F001FD0420ADF8000018208DF8D2
:10041000030003208DF802006946514808F0F4FCFF
:100420000820ADF8000003208DF8020004208DF8AC
:10043000030069464A4808F0E7FC2020ADF80000B8
:1004400004208DF8030003208DF80200694645481A
:1004500008F0DAFC08BD10B508F0CEFD4FF480308E
:1004600008F066FE08F0D6FE0446012C24D10020D8
:1004700008F054FE002008F09BFEA00208F08EFE5B
:10048000022008F025FC102008F0D8FB4FF4E01102
:10049000200408F09DFE012008F094FE00BF3920E2
:1004A00008F012FE0028FAD0022008F0A9FE00BFD2
:1004B00008F02CFE0828FBD1012140F2ED1008F0D5
:1004C00077FD0121480408F05BFD0121080208F0D6
:1004D0004BFD0121032008F053FD01214FF0C050D6
:1004E00008F04EFD10BD40F225511B4808F0B8FF42
:1004F000FFF7B1FFFFF778FF00F006FA00F084FA8B
:10050000FFF741FFFFF710FFFFF70DFFFFF7D4FEE6
:1005100007F042FF08F04AF800F076FD4FF6FF7052
:10052000FFF7BBFE012001F051FA07F007FB302175
:10053000002008F0F9F807F016FB07F053FB012044
:1005400001F0E0F961E000004E0000204F000020C3
:100550002E0000003A00000000440040001C014052
:10056000000801400020014033480078012804D1F0
:1005700007F083FC002030490870304800780128DB
:1005800006D100202E4908704FF4046100F0DBFA18
:100590002C480078012831D1FFF7D8FD00202949E7
:1005A00008702948007880B928480078401C2749FD
:1005B000087008460078032807D1002024490870F5
:1005C000224908700120204908701D480078012840
:1005D00014D120480088401C1E4908800846008825
:1005E0001D490988884209D14FF40461002000F0B8
:1005F000AAFA002017490880114908701748B0F876
:100600006600012801D107F068FAADE770B504462D
:100610000D46E1B2124808F0C9FF00BF4021104862
:1006200008F03DFF0028F9D0204670BD00BF010052
:10063000A0F10100FBD17047280000204A000020F3
:10064000480000204D000020290000202A00002042
:100650004B0000204600002044000020C40500207C
:100660000044004010B5802008F046FD70B14FF402
:10067000803008F05DFD0121082008F073FD0121A4
:10068000102008F06FFD802008F0B0FC10BD00BF06
:10069000FEE700BFFEE700BFFEE700BFFEE77047D2
:1006A00070477047704770477047704710B501201A
:1006B00008F0E2FD38B1012008F0C6FD08F008FEA0
:1006C00001208549087010BD704710B5082008F05A
:1006D00013FD48B1082008F089FC312008F0F4FC33
:1006E00010B1012008F06EFD102008F005FD48B1A2
:1006F000102008F07BFC392008F0E6FC10B1022045
:1007000008F07EFD10BD7047704770477047704716
:100710007047704770477047704770477047704721
:100720007047704770477047704770477047704711
:10073000704710B50121880708F05AFE002846D0FE
:100740000121880708F0ECFD64480078012808D1F1
:10075000112000F0FCF96249087000205F49087020
:100760002BE0112000F0F3F95E490870084600788C
:100770005B490978401A5C4908605A480078584932
:10078000087059480068002805DA5748006800F5E5
:100790008070554908605548007810B900F01FFA7C
:1007A0000BE05148006810B90120514908704E48CB
:1007B000006810B102204E490870002008F042F88D
:1007C0004C490988884202D001204B49087010BD6D
:1007D0007047704770477047704770477047704761
:1007E000704710B5002440F22551444808F05EFEE1
:1007F00001284FD1414808F0D5FEC4B2EE2C07D1F4
:1008000001203F49A1F868000020A1F86600088097
:100810003B4801880088401C394A1080901C445491
:100820003848007830B101280ED0022816D00328AD
:100830002ED11DE0FF2C03D101203249087002E0C7
:1008400000203049087024E0FC2C03D102202D49FF
:10085000087002E000202B4908701AE0FF2C03D139
:1008600003202849087002E000202649087010E0A3
:10087000FF2C09D10020234908702149A1F8680004
:100880000120A1F8660002E000201E49087000E087
:1008900000BF00BF40F22551184808F007FE20B104
:1008A00040F22551154808F0DBFD10BD7047704738
:1008B0007047704770477047704770477047704780
:1008C0007047704770477047704770477047704770
:1008D00070477047704700004D0000203A0000202C
:1008E0003800002039000020340000204B00002098
:1008F0004C0000202C000020280000200044004074
:10090000C40500201600002000B597B0012140F278
:10091000ED1008F04DFB4CF20370ADF8000018200C
:100920008DF8030003208DF8020069468A4808F01C
:100930006BFA4FF68070ADF800006946874808F002
:1009400063FA4FF23F00ADF800006946844808F0B2
:100950005BFA3F20ADF800006946824808F054FA7F
:100960004FF4C050ADF8000069467B4808F04CFADF
:100970003020ADF8000018208DF8030003208DF81A
:1009800002006946744808F03FFA4FF48060ADF801
:10099000000018208DF8030003208DF8020069463E
:1009A000704808F031FA0320ADF8000069466B4842
:1009B00008F02AFA00200190029005200390002000
:1009C000049005900690079004200890002009905C
:1009D0000A9010200B9000200C900D900E900F901C
:1009E0004FF48050109000201190129013901490AA
:1009F00001A81590169008A808F0A6F90121042076
:100A000008F092F917B000BD00B597B0012140F28F
:100A1000ED1008F0CDFA4CF20300ADF800001820FC
:100A20008DF8030003208DF8020069464A4808F05B
:100A3000EBF94FF4F060ADF800006946474808F064
:100A4000E3F94FF23F00ADF800006946444808F072
:100A5000DBF90320ADF800006946424808F0D4F9FC
:100A60003020ADF8000018208DF8030003208DF829
:100A700002006946384808F0C7F94FF48050ADF8D5
:100A8000000018208DF8030003208DF8020069464D
:100A9000344808F0B9F90020019002900520039035
:100AA00000200490059006900790062008900020F2
:100AB00009900A900B900C900D900E900F904FF4AF
:100AC000805010900020119012901390149001A863
:100AD0001590169008A808F037F90121062008F0B3
:100AE00023F917B000BD10B50C2207E010F8014B38
:100AF0004FF0D0435C54491C531EDAB2002AF5D1A2
:100B000010BD06E04FF0D0435B5C00F8013B491C90
:100B1000521E002AF6D1704710B506E030F8024B9D
:100B20004FF0D0435C52891C521E002AF6D110BDF2
:100B300006E04FF0D0435B5A20F8023B891C521E5E
:100B4000002AF6D170474FF0D84250547047014602
:100B50004FF0D842505C704700140140001801402B
:100B6000001C01400020014070B5054600245820BB
:100B7000FFF793FB002007F065FE84B2601C84B28F
:100B8000B4F57A7F15DA00F003FBD8480560D84940
:100B90000A6842608988018144810646601E00EB34
:100BA000400081003046FFF79EFF0021204607F0FD
:100BB000BBFD70BD10B5CF480078012803D10020DF
:100BC000CD4908700AE04FF404610120FFF7BBFF34
:100BD0000120C94908700020C849088010BD10B51F
:100BE000C7480068C7490988884233DBFFF7E2FF3E
:100BF000C3480068FFF7B8FF0020C34908700AE047
:100C00000021C248C04A127840F82210BE4800783D
:100C1000401CBD490870BC4800781E28F0D3002055
:100C2000BB490870BB490870B74908700AE0002149
:100C3000B948B54A127840F82210B3480078401CF1
:100C4000B1490870B04800781E28F0D30020B3499D
:100C5000087035E1AA48006800287ED00120AD491F
:100C60000870A7480168AA4802780078401CA84B81
:100C70001870A64840F822100020A9490860A2492F
:100C800008700EE0A148A049097850F82100A44955
:100C900009680844A24908609B480078401C9A49AA
:100CA0000870994800789F4909888842EADB9C4887
:100CB00000689D49098888421DD3FFF77BFF98484B
:100CC0000068FFF751FF00208F4908700AE00021FB
:100CD0008E488D4A127840F822108B480078401CCC
:100CE00089490870884800781E28F0D30020884978
:100CF000087088490870864800788A4909888842BF
:100D000017DB0020804908700AE000207F497E4AF6
:100D1000127841F822007C480078401C7A4908701B
:100D2000794800781E28F0D3002079490870794965
:100D3000087073480168794802780078401C774B46
:100D40001870754840F822101846007877490988CD
:100D5000884238DBFFF72EFF00E034E000207449C2
:100D60000860694908700EE06B486749097850F8D7
:100D700021006F49096808446D490860624800789D
:100D8000401C6149087060480078684909888842B9
:100D9000EADB67480068FFF7E7FE00205A49087061
:100DA0000AE000205C49584A127841F8220056486F
:100DB0000078401C54490870534800781E28F0D32E
:100DC0000020564908704E480068002878D15148E4
:100DD0000078B8B900204C4908700AE000204B495F
:100DE000494A127841F8220047480078401C464999
:100DF0000870454800781E28F0D300204449087048
:100E00004449087043480078012843D13C480168B0
:100E10003F4802780078401C3D4B18703B4840F832
:100E2000221000203E490860374908700EE037481C
:100E30003549097850F8210039490968084438498A
:100E4000086031480078401C2F4908702E4800780F
:100E5000344909888842EADB2D48007831490988FD
:100E6000884217DB0020284908700AE00021274843
:100E7000254A127840F8221023480078401C224965
:100E80000870214800781E28F0D3002020490870FF
:100E90002049087000201C4908700AE000201E4903
:100EA000194A127841F8220017480078401C164968
:100EB0000870154800781E28F0D3002017490870E4
:100EC00010BD70B504461B4E44B1601E00EB4000DF
:100ED00085000C2229463046FFF713FE70BD10B581
:100EE00004221549504200F029F810BD7C0500206D
:100EF0004F0000204A00002048000020460000204B
:100F0000340000203C000020180000208C04002049
:100F1000190000201B000020040500201A000020FA
:100F20001C000020400000203E0000204200002065
:100F300020000020880500202400002010B50B466A
:100F400000212F4C204404E050F8014B43F821408D
:100F5000491C9142F8D310BD30B50023284C2044E1
:100F600004E050F8015B0D705B1C491C9342F8D300
:100F700030BD70B504460D4607F0B6FE352007F0CB
:100F80001BFE1F4807F01EFE1E4908700846007829
:100F9000042806D11A496018294607F077FE194936
:100FA0000870352007F008FE07F040FE70BD2DE9FF
:100FB000F04104460D460026062707F095FE352031
:100FC00007F0FAFD0E4807F0FDFD0E4908700846CF
:100FD000007804280DD10AE02988094AA01807F0F2
:100FE00039FE08490870A41CAD1C701CC6B2BE4274
:100FF000F2DB352007F0E0FD07F018FEBDE8F081D8
:1010000000F807085500002010B501214FF0C0502E
:1010100007F0B6FF012007F0A1FF07F0C3FD012094
:1010200008F0ACF800BF412008F04EF80028FAD0D4
:101030004FF4807008F0DCF8012008F0D3F808F0D5
:1010400051F908F045F90121084608F023F908F0A4
:101050003FF947F6FF7008F02BF908F039F910BD99
:101060002DE9F04104460D461646554884714571F8
:10107000C6702021002007F0A6F85148C0780A2148
:1010800090FBF1F201FB12004D49C9780A2291FB55
:10109000F2F100EB0110C7B23946052007F093F8D2
:1010A000474840790A2190FBF1F201FB12004449C4
:1010B00049790A2291FBF2F100EB0110C7B23946DF
:1010C000072007F080F83E4880790A2190FBF1F272
:1010D00001FB12003A4989790A2291FBF2F100EBF7
:1010E0000110C7B23946082007F06DF80021084604
:1010F00007F069F8BDE8F0812DE9F04104460D469E
:1011000016462F480670457084702021002007F095
:101110005AF82B4800780A2190FBF1F201FB1200EB
:10112000274909780A2291FBF2F100EB0110C7B2BE
:101130003946022007F047F8214840780A2190FB01
:10114000F1F201FB12001E4949780A2291FBF2F1EB
:1011500000EB0110C7B23946032007F034F81848F5
:1011600080780A2190FBF1F201FB12001449897882
:101170000A2291FBF2F100EB0110C7B239460420BC
:1011800007F021F80021084607F01DF8BDE8F081BE
:1011900010B507F061F90B4880790B4908700948D0
:1011A000407948700748C078887006488078C870D1
:1011B00004484078087103480078487110BD000069
:1011C00056000020B80000204F00002010B5044653
:1011D0002146FF4808F0EAF900BF8021FC4808F0EA
:1011E0005EF90028F9D010BD10B5044603E0207860
:1011F000FFF7ECFF641C20780028F8D110BD10B573
:10120000EE20FFF7E3FF10BD10B5FF20FFF7DEFF74
:10121000FC20FFF7DBFFFF20FFF7D8FFFF20FFF7E1
:10122000D5FF10BD10B5FFF7EAFF0020FFF7CEFF96
:10123000FFF7EAFF10BD10B50446FFF7E0FF4120BD
:10124000FFF7C4FF200AFFF7C1FFE0B2FFF7BEFFC0
:10125000FFF7DAFF10BD10B50446FFF7D0FF4220BC
:10126000FFF7B4FF200AFFF7B1FFE0B2FFF7AEFFD0
:10127000FFF7CAFF10BD70B506460C461546FFF7CE
:10128000BEFFA320FFF7A2FF3046FFF79FFF200A13
:10129000FFF79CFFE0B2FFF799FF280AFFF796FFE0
:1012A000E8B2FFF793FFFFF7AFFF70BD10B5FFF790
:1012B000A6FF0120FFF78AFFFFF7A6FF10BD70B55C
:1012C00005460C46FFF79BFF4320FFF77FFF2846AC
:1012D000FFF77CFF2046FFF779FFFFF795FF70BD12
:1012E00070B506460C461546FFF789FF4520FFF707
:1012F0006DFF3046FFF76AFF200AFFF767FFE0B295
:10130000FFF764FF280AFFF761FFE8B2FFF75EFF0F
:10131000FFF77AFF70BD70B504460D46FFF76FFF0B
:101320004420FFF753FF200AFFF750FFE0B2FFF71A
:101330004DFF280AFFF74AFFE8B2FFF747FFFFF724
:1013400063FF70BD2DE9F04104460D4616461F4669
:10135000DDF81880FFF753FF2020FFF737FF200A42
:10136000FFF734FFE0B2FFF731FF280AFFF72EFF47
:10137000E8B2FFF72BFF3046FFF728FF3846FFF7AC
:1013800025FF4046FFF730FFFFF73EFFBDE8F08145
:101390002DE9F04104460D4616461F46DDF818803B
:1013A000FFF72DFF2020FFF711FF200AFFF70EFFA8
:1013B000E0B2FFF70BFF280AFFF708FFE8B2FFF7DC
:1013C00005FF3046FFF702FF3846FFF7FFFE4046B5
:1013D000FFF7FCFEFFF718FFBDE8F0812DE9F041B3
:1013E00080460D4616461C46069FFFF708FF212043
:1013F000FFF7ECFE4046FFF7E9FE280AFFF7E6FE9E
:10140000E8B2FFF7E3FE300AFFF7E0FEF0B2FFF7C5
:10141000DDFE2046FFF7DAFE3846FFF7D7FEFFF77E
:10142000F3FEBDE8F08170B504460D46FFF7E7FE18
:101430003120FFF7CBFE200AFFF7C8FEE0B2FFF72E
:10144000C5FE2846FFF7C2FEFFF7DEFE70BD2DE9A0
:10145000F04104460D4616461F46FFF7D0FE3220E7
:10146000FFF7B4FE200AFFF7B1FEE0B2FFF7AEFED1
:10147000280AFFF7ABFEE8B2FFF7A8FE300AFFF735
:10148000A5FEF0B2FFF7A2FE3846FFF79FFEFFF77A
:10149000BBFEBDE8F0812DE9F05F04460D4616461F
:1014A0001F46DDE90CABDDE90A89FFF7A8FE332012
:1014B000FFF78CFE200AFFF789FEE0B2FFF786FEF9
:1014C000280AFFF783FEE8B2FFF780FE300AFFF735
:1014D0007DFEF0B2FFF77AFE380AFFF777FEF8B22A
:1014E000FFF774FE4FEA1820FFF770FE08F0FF00C8
:1014F000FFF76CFE4FEA1920FFF768FE09F0FF00C6
:10150000FFF764FE4FEA1A20FFF760FE0AF0FF00C3
:10151000FFF75CFE5846FFF759FEFFF775FEBDE882
:10152000F09F2DE9F04104460D4616461F46DDF8B2
:101530001880FFF764FE8020FFF748FE200AFFF7BF
:1015400045FEE0B2FFF742FE280AFFF73FFEE8B291
:10155000FFF73CFE300AFFF739FEF0B2FFF736FE28
:101560003846FFF733FE4046FFF730FEFFF74CFEEC
:10157000BDE8F08170B504460D46FFF740FE5020EF
:10158000FFF724FE200AFFF721FEE0B2FFF71EFE60
:10159000280AFFF71BFEE8B2FFF718FEFFF734FE3C
:1015A00070BD2DE9F04104460D4616461F46FFF773
:1015B00026FE5120FFF70AFE200AFFF707FEE0B2E1
:1015C000FFF704FE280AFFF701FEE8B202E0000080
:1015D00000440040FFF7FAFD300AFFF7F7FDF0B2D4
:1015E000FFF7F4FD380AFFF7F1FDF8B2FFF7EEFD63
:1015F000FFF70AFEBDE8F08170B505460C46FFF71F
:10160000FEFD6320FFF7E2FD2846FFF7DFFD2046E1
:10161000FFF7EAFDFFF7F8FD70BD70B504460D4613
:101620001646FFF7ECFD5220FFF7D0FD200AFFF72A
:10163000CDFDE0B2FFF7CAFD280AFFF7C7FDE8B20B
:10164000FFF7C4FD300AFFF7C1FDF0B2FFF7BEFDA2
:10165000FFF7DAFD70BD70B504460D461646FFF77C
:10166000CEFD5320FFF7B2FD200AFFF7AFFDE0B239
:10167000FFF7ACFD280AFFF7A9FDE8B2FFF7A6FDCA
:10168000300AFFF7A3FDF0B2FFF7A0FDFFF7BCFDA6
:1016900070BD2DE9F04104460D4616461F46DDF8A3
:1016A0001880FFF7ACFD6720FFF790FD200AFFF7D9
:1016B0008DFDE0B2FFF78AFD280AFFF787FDE8B24B
:1016C000FFF784FD300AFFF781FDF0B2FFF77EFDE2
:1016D000380AFFF77BFDF8B2FFF778FD4FEA1820D4
:1016E000FFF774FD08F0FF00FFF770FDFFF78CFDBA
:1016F000BDE8F0812DE9F04104460D4616461F462F
:10170000FFF77DFD5420FFF761FD200AFFF75EFD26
:10171000E0B2FFF75BFD280AFFF758FDE8B2FFF7DC
:1017200055FD300AFFF752FDF0B2FFF74FFD380AC2
:10173000FFF74CFDF8B2FFF749FDFFF765FDBDE887
:10174000F0812DE9F04104460D4616461F46FFF78D
:1017500056FD5520FFF73AFD200AFFF737FDE0B2AE
:10176000FFF734FD280AFFF731FDE8B2FFF72EFD41
:10177000300AFFF72BFDF0B2FFF728FD380AFFF71C
:1017800025FDF8B2FFF722FDFFF73EFDBDE8F08131
:101790002DE9F04104460D4616461F46FFF72FFD82
:1017A0006520FFF713FD200AFFF710FDE0B2FFF7F9
:1017B0000DFD280AFFF70AFDE8B2FFF707FD300A22
:1017C000FFF704FDF0B2FFF701FD380AFFF7FEFC5A
:1017D000F8B2FFF7FBFCFFF717FDBDE8F0812DE93C
:1017E000F04104460D4616461F46FFF708FD5620F9
:1017F000FFF7ECFC200AFFF7E9FCE0B2FFF7E6FC9C
:10180000280AFFF7E3FCE8B2FFF7E0FC300AFFF735
:10181000DDFCF0B2FFF7DAFC380AFFF7D7FCF8B2CC
:10182000FFF7D4FCFFF7F0FCBDE8F0812DE9F041B3
:1018300004460D4616461F46FFF7E1FC5720FFF70A
:10184000C5FC200AFFF7C2FCE0B2FFF7BFFC280A84
:10185000FFF7BCFCE8B2FFF7B9FC300AFFF7B6FCB3
:10186000F0B2FFF7B3FC380AFFF7B0FCF8B2FFF7AD
:10187000ADFCFFF7C9FCBDE8F08170B504460D462C
:101880001646FFF7BCFC6420FFF7A0FC200AFFF718
:101890009DFCE0B2FFF79AFC280AFFF797FCE8B23C
:1018A000FFF794FC300AFFF791FCF0B2FFF78EFCD3
:1018B000FFF7AAFC70BD10B50446FFF7A0FC60203E
:1018C000FFF784FC2046FFF781FCFFF79DFC10BD6D
:1018D00010B50446FFF793FC6120FFF777FC204624
:1018E000FFF774FCFFF790FC10BD10B50446FFF73E
:1018F00086FCA020FFF76AFC2046FFF767FCFFF795
:1019000083FC10BD10B50446FFF779FC7020FFF78B
:101910005DFC2046FFF75AFCFFF776FC10BD10B5C2
:10192000FFF76DFC7220FFF751FCFFF76DFC10BD57
:1019300010B5FFF764FC7320FFF748FCFFF764FC69
:1019400010BD10B50446FFF75AFCA120FFF73EFC7E
:101950002046FFF73BFCFFF757FC10BD10B50446CF
:10196000FFF74DFCA220FFF731FC2046FFF72EFCCD
:10197000FFF74AFC10BD70B505460C46FFF73FFC6B
:10198000A420FFF723FC2846FFF720FC2046FFF7A2
:101990001DFCFFF739FC70BD10B50446FFF72FFCA6
:1019A0000520FFF713FC2046FFF710FCFFF72CFC87
:1019B00010BD10B50446FFF722FC0620FFF706FC19
:1019C0002046FFF703FCFFF71FFC10BD10B50446CF
:1019D000FFF715FCB120FFF7F9FB0020FFF7F6FB3E
:1019E0002012FFF7F3FBE0B2FFF7F0FBFFF70CFC70
:1019F00010BD10B5FFF703FCB120FFF7E7FB012096
:101A0000FFF7E4FBFFF700FC10BD70B504460D4680
:101A10001646FFF7F4FBB120FFF7D8FB1020FFF7C5
:101A2000D5FB2012FFF7D2FBE0B2FFF7CFFB281265
:101A3000FFF7CCFBE8B2FFF7C9FB3046FFF7C6FB68
:101A4000FFF7E2FB70BD70B504460D46FFF7D7FB0C
:101A5000B120FFF7BBFB1120FFF7B8FB2012FFF707
:101A6000B5FBE0B2FFF7B2FB2812FFF7AFFBE8B21D
:101A7000FFF7ACFBFFF7C8FB70BD70B505460E461F
:101A80001446FFF7BCFBB120FFF7A0FB1020FFF7C7
:101A90009DFB2812FFF79AFBE8B2FFF797FB301285
:101AA000FFF794FBF0B2FFF791FB00BF2078FFF740
:101AB0008DFB14F8011B0029F8D1FFF7A5FB70BDC1
:101AC00070B504460D46FFF79AFBB120FFF77EFB89
:101AD0001120FFF77BFB2012FFF778FBE0B2FFF746
:101AE00075FB2812FFF772FBE8B2FFF76FFBFFF7F9
:101AF0008BFB70BD70B504460D461646FFF77FFBA5
:101B0000B120FFF763FB0220FFF760FB2012FFF715
:101B10005DFBE0B2FFF75AFB2812FFF757FBE8B274
:101B2000FFF754FB3046FFF751FBFFF76DFB70BD2D
:101B300070B505460E461446FFF761FBB120FFF76E
:101B400045FB1020FFF742FB2812FFF73FFBE8B2EE
:101B5000FFF73CFB3012FFF739FBF0B2FFF736FB23
:101B6000200EFFF733FBC4F30740FFF72FFBC4F34E
:101B70000720FFF72BFBE0B2FFF728FBFFF744FB42
:101B800070BD70B504460D46FFF739FBB120FFF775
:101B90001DFB1120FFF71AFB2012FFF717FBE0B225
:101BA000FFF714FB2812FFF711FBE8B2FFF70EFB5B
:101BB000FFF72AFB70BD70B505460E461446FFF7C9
:101BC0001EFBB120FFF702FB1020FFF7FFFA2812DF
:101BD000FFF7FCFAE8B2FFF7F9FA3012FFF7F6FA6E
:101BE000F0B2FFF7F3FA200EFFF7F0FAC4F3074064
:101BF000FFF7ECFAC4F30720FFF7E8FAE0B2FFF7CB
:101C0000E5FAFFF701FB70BD70B504460D46FFF71E
:101C1000F6FAB120FFF7DAFA1120FFF7D7FA20120F
:101C2000FFF7D4FAE0B2FFF7D1FA2812FFF7CEFAA5
:101C3000E8B2FFF7CBFAFFF7E7FA70BD70B50546DB
:101C40000E461446FFF7DBFAB120FFF7BFFA10206B
:101C5000FFF7BCFA2812FFF7B9FAE8B2FFF7B6FAB5
:101C60003012FFF7B3FAF0B2FFF7B0FA200EFFF729
:101C7000ADFAC4F30740FFF7A9FAC4F30720FFF752
:101C8000A5FAE0B2FFF7A2FAFFF7BEFA70BD70B591
:101C900004460D46FFF7B3FAB120FFF797FA11207B
:101CA000FFF794FA2012FFF791FAE0B2FFF78EFAED
:101CB0002812FFF78BFAE8B2FFF788FAFFF7A4FAC9
:101CC00070BD70B506460C461546FFF798FAB12070
:101CD000FFF77CFA3046FFF779FA2012FFF776FA21
:101CE000E0B2FFF773FA2812FFF770FAE8B2FFF7D5
:101CF0006DFAFFF789FA70BD70B504460D461646B9
:101D0000FFF77DFAB120FFF761FA2320FFF75EFAB3
:101D10002012FFF75BFAE0B2FFF758FA2812FFF73C
:101D200055FAE8B2FFF752FA3046FFF74FFAFFF7DD
:101D30006BFA70BD2DE9F04104460D4617461E466C
:101D4000FFF75DFAB120FFF741FA3020FFF73EFAC6
:101D50002012FFF73BFAE0B2FFF738FA2812FFF73C
:101D600035FAE8B2FFF732FA3846FFF72FFA3012A9
:101D7000FFF72CFAF0B2FFF729FAFFF745FABDE8B2
:101D8000F08170B504460D461646FFF738FAB120CB
:101D9000FFF71CFA3120FFF719FA2012FFF716FAA5
:101DA000E0B2FFF713FA2812FFF710FAE8B2FFF7D4
:101DB0000DFA3046FFF70AFAFFF726FA70BD2DE953
:101DC000F04104460D4617461E46DDF81880FFF721
:101DD00016FAB120FFF7FAF93220FFF7F7F92012CF
:101DE000FFF7F4F9E0B2FFF7F1F92812FFF7EEF987
:101DF000E8B2FFF7EBF93846FFF7E8F93012FFF7E2
:101E0000E5F9F0B2FFF7E2F94046FFF7DFF9FFF737
:101E1000FBF9BDE8F08170B504460D461646FFF7A4
:101E2000EEF9B120FFF7D2F93320FFF7CFF92012F6
:101E3000FFF7CCF9E0B2FFF7C9F92812FFF7C6F9AE
:101E4000E8B2FFF7C3F93046FFF7C0F9FFF7DCF956
:101E500070BD2DE9F04704460D4616461F46DDE9E4
:101E60000889FFF7CCF9B120FFF7B0F93420FFF76C
:101E7000ADF92012FFF7AAF9E0B2FFF7A7F928128F
:101E8000FFF7A4F9E8B2FFF7A1F93012FFF79EF9C6
:101E9000F0B2FFF79BF93812FFF798F9F8B2FFF7A5
:101EA00095F94FEA2820FFF791F908F0FF00FFF7B6
:101EB0008DF94FEA2920FFF789F909F0FF00FFF7B4
:101EC00085F9FFF7A1F9BDE8F0872DE9F0478146D4
:101ED0000D4616461C46DDE90878FFF790F9852087
:101EE000FFF774F94846FFF771F92846FFF76EF9D6
:101EF0003046FFF76BF92012FFF768F9E0B2FFF701
:101F000065F93812FFF762F9F8B2FFF75FF94FEAA7
:101F10002820FFF75BF908F0FF00FFF757F9FFF7FC
:101F200073F9BDE8F0872DE9F04707460C461546E2
:101F30001E46DDE9099ADDF82080FFF760F985206B
:101F4000FFF744F93846FFF741F92046FFF73EF91D
:101F50002846FFF73BF93046FFF738F94046FFF7D0
:101F600035F94846FFF732F95046FFF72FF9FFF7EA
:101F70004BF9BDE8F08710B5FFF741F98120FFF775
:101F800025F9FFF741F910BD10B5002809DB092834
:101F900007DC30220A704A7000F130028A70002299
:101FA000CA700A2811DB63280FDC30220A700A226B
:101FB00090FBF2F230324A700A2290FBF2F302FBFD
:101FC000130230328A700022CA7064281ADBB0F51E
:101FD0007A7F17DA642290FBF2F230320A700A221A
:101FE00090FBF2F20A2392FBF3F403FB142230324B
:101FF0004A700A2290FBF2F302FB130230328A701D
:102000000022CA7010BD2DE9F04FA1B000260027B4
:1020100000200E900D904FF0080A804683460C90E9
:1020200081460B900A9009900025FF4881794079FC
:1020300041EA0026FC48017AC07941EA002700BF46
:10204000F948801C10F80A0014A901F808000AF1E8
:10205000010000F0FF0A08F1010000F0FF08F2485B
:102060000088401F5045EBDC002001F80800012EDD
:102070007ED1202FFCD1ED4800680028F8D1202027
:1020800006F020FCEA4908705820FEF706F9E848F7
:10209000027810210FA806F05AFC00200FA9E44A8C
:1020A00012788854E3490978C1F10300FFF749FC2D
:1020B000E148007810B101287DD19BE014A90FA858
:1020C00006F019FD002867D14FF6FF70FFF7B3F84F
:1020D00040F21F1340F2DF12E521B520FFF731FB7C
:1020E0004FF4B4734FF4FA724FF49671C820FFF7AF
:1020F00028FB0020FFF79FF8D0480078C0EB0010C5
:10210000CF4901EB4010D0F8543100930623002250
:102110004FF49671C820FFF715F9C8480078C0EB56
:102120000010C74901EB4010D0F858310093052347
:102130000022F021C820FFF705F9C248007880B9D5
:10214000BE480078C0EB0010BD4901EB4010D0F84C
:102150005C310093052300224FF48771C820FFF7FC
:10216000F1F8B8480078012812D1B448007800E0AE
:10217000BBE0C0EB0010B24901EB4010D0F8603179
:102180000093052300224FF48771C820FFF7DAF887
:102190000120A94908702CE04FF6FF70FFF74BF8BB
:1021A00040F21F1340F2DF12E521B520FFF7C9FA14
:1021B0004FF4B47300E088E04FF4FA724FF4967174
:1021C000C820FFF7BEFA0020FFF735F89B480078DB
:1021D000C0EB00109A4901EB4010D0F86431009335
:1021E00006230022E621C820FFF7ACF80020924920
:1021F00008706BE09DF85100002865D14FF6FF7024
:10220000FFF719F840F21F1340F2DF12E521B52065
:10221000FFF797FA4FF4B4734FF4FA724FF49671D4
:10222000C820FFF78EFA482340F26B22002140F2CB
:10223000F510FFF786FA0020FEF7FDFF81480078D1
:1022400010B101283BD11DE07C480078C0EB0010A4
:102250007B4901EB4010D0F868310093062300223F
:10226000E621C820FFF76EF800231A460C2140F241
:102270001620FFF7ECF8012072490870042072491B
:1022800008701DE06D480078C0EB00106C4901EB50
:102290004010D0F86C31009306230022E621C820BC
:1022A000FFF750F8002301220C2140F21620FFF71F
:1022B000CEF80020634908706349087000E000BF51
:1022C00000BF00205C49087000E000BF00BF594912
:1022D0000978C1F10300FFF741FB56490978C1F1C4
:1022E000030054490978FFF746FB012E7ED1202FC9
:1022F0007CD14E4800683D2878D19DF851109DF85A
:102300005000303800EB800001EB40003038C0B2A4
:1023100009909DF854109DF85300303800EB800070
:1023200001EB4000303800F0FF0B9DF857109DF88E
:102330005600303800EB800001EB40003038C0B26E
:102340000C909DF850002E2855D09DF851002E2855
:1023500051D09DF852002E284DD19DF853002E28C3
:1023600049D09DF854002E2845D09DF855002E28C0
:1023700041D19DF856002E283DD09DF857002E28BB
:1023800039D09DF8580090BB0998002833DBB9F18B
:10239000640F30DABBF1000F2DDDBBF10D0F2ADA2F
:1023A0000C98002827DD0C98202824DA59460C9A2E
:1023B0000998FEF755FE012024490870FDF7C6FE76
:1023C0004FF6FF70FEF737FF40F21F1340F2DF12A7
:1023D000E521B520FFF7B5F90020FEF72CFF14AB7F
:1023E000009309230022E621C82001E037E002E043
:1023F000FEF7A8FF33E04FF6FF70FEF71CFF40F238
:102400001F1340F2DF12E521B520FFF79AF90020F3
:10241000FEF711FF09480078C0EB0010084901EBF6
:102420004010D0F8703113E02E0600206800002024
:10243000640000206500002060000020C000002033
:10244000C400002063000020610000204E00002036
:10245000009306230022E621C820FEF773FF012E19
:102460007ED1202F7CD1FF4800683E2878D19DF88E
:1024700051109DF85000303800EB800001EB400017
:10248000303800F0FF099DF854109DF853003038A3
:1024900000EB800001EB40003038C0B20B909DF89B
:1024A00057109DF85600303800EB800001EB4000DB
:1024B0003038C0B20A909DF850002E2857D09DF8B1
:1024C00051002E2853D09DF852002E284FD19DF850
:1024D00053002E284BD09DF854002E2847D09DF84D
:1024E00055002E2843D19DF856002E283FD09DF848
:1024F00057002E283BD09DF8580090BBB9F1000F33
:1025000035DBB9F1180F32DA0B9800282FDB0B9866
:102510003C282CDA0A98002829DB0A983C2826DA7D
:102520003A208DF852008DF855004846DDE90A2121
:10253000FEF7E2FDFDF70AFE4FF6FF70FEF77BFEA9
:1025400040F21F1340F2DF12E521B520FFF7F9F842
:102550000020FEF770FE14AB00930923002201E077
:1025600024E004E0E621C820FEF7ECFE1EE04FF672
:10257000FF70FEF760FE40F21F1340F2DF12E5210C
:10258000B520FFF7DEF80020FEF755FEB6480078CC
:10259000C0EB0010B54901EB4010D0F8703100934A
:1025A00006230022E621C820FEF7CCFE012E74D1BE
:1025B000202FFCD1AB4800683F28F8D1AC48007808
:1025C00020B101286AD0022869D1EBE0202006F072
:1025D00079F9A84908705820FDF75FFEA5480278F0
:1025E00010210FA806F0B3F900210FA8A14A127814
:1025F000815414A906F07FFAF0BB4FF6FF70FEF786
:102600001AFE40F21F1340F2DF12E521B520FFF75A
:1026100098F84FF4B4734FF4FA724FF49671C820DF
:10262000FFF78FF80020FEF706FE8F480078C0EB1A
:1026300000108E4901EB4010D0F85431009306236E
:1026400000224FF49671C820FEF77CFE8648007881
:10265000C0EB0010854901EB4010D0F858310093D1
:1026600005230022F021C820FEF76CFE7E4800788A
:10267000C0EB00107D4900E012E001EB4010D0F803
:1026800074310093052300224FF48771C820FEF7B0
:1026900059FE0120764908702DE0CDE02CE0C9E01C
:1026A0004FF6FF70FEF7C7FD40F21F1340F2DF1236
:1026B000E521B520FFF745F84FF4B4734FF4FA72F3
:1026C0004FF49671C820FFF73CF80020FEF7B3FDE9
:1026D00065480078C0EB0010644901EB4010D0F869
:1026E0006431009306230022E621C820FEF72AFE6B
:1026F00000205F4908709EE014215F4806F0D9F978
:1027000014A95D4806F005FA4FF6FF70FEF793FD39
:1027100040F21F1340F2DF12E521B520FFF711F858
:102720004FF4B4734FF4FA724FF49671C820FFF768
:1027300008F80020FEF77FFD4B480078C0EB001042
:102740004A4901EB4010D0F878310093062300226B
:102750004FF49671C820FEF7F5FD43480078C0EBB2
:102760000010424901EB4010D0F858310093052386
:102770000022F021C820FEF7E5FD3B480078C0EBC1
:1027800000103A4901EB4010D0F87C31009305234A
:1027900000224FF48771C820FEF7D4FD022034498F
:1027A000087048E09DF85000E8BB334806F09BF9FC
:1027B0003049087020212F48007806F069F8582029
:1027C000FDF76BFD2B48027810212B4806F09BF893
:1027D0004FF6FF70FEF72FFD40F21F1340F2DF129D
:1027E000E521B520FEF7ADFF4FF4B4734FF4FA7254
:1027F0004FF49671C820FEF7A4FF0020FEF71BFDE2
:1028000019480078C0EB0010184901EB4010D0F8CF
:102810008031009306230022E621C820FEF792FDB6
:102820001421154800E004E006F043F900201049A7
:10283000087000E000BF00BF012E7ED1202FFCD128
:1028400008480068B0F5FA7F77DB06480068B0F505
:10285000FC7F72DC0024002003900290CDF80C80F5
:102860000CE0000068000020C0000020C400002030
:102870006200002064000020980600209DF85000AF
:1028800008B900252CE0002428E00398401EC0B2BF
:1028900003900398029014A8005D303814A90855DD
:1028A00014A8005D04A921F814000DE004A830F874
:1028B000140000EB80004004000C04A921F814006F
:1028C0000298401EC0B2029002980028EEDC04A8D4
:1028D00030F81400284485B2601CC4B24445D4DBEF
:1028E0004FF6FF70FEF7A7FC40F21F1340F2DF1215
:1028F000E521B520FEF725FF0020FEF79CFCFF48F0
:102900000068A0F5FA70052876D2DFE800F0031A17
:102910002F475F00FA480580FA490088FFF734FB2B
:10292000F84B009309230022E6214FF48C70FEF748
:1029300009FD0221F248008800E060E005F0F4FEA5
:102940005BE0F1480580EF490088FFF71DFBED4B88
:10295000009309230022E6214FF48C70FEF7F2FC6D
:102960000421E948008805F0DFFE46E0E7480580DD
:10297000E4490088FFF708FBE24B0093092300229B
:10298000E6214FF48C70FEF7DDFCE049098801EB8D
:1029900081014800062105F0C7FE2EE0DC480580D5
:1029A000D8490088FFF7F0FAD64B0093092300229C
:1029B000E6214FF48C70FEF7C5FCD549098801EB80
:1029C00081014800082105F0AFFE16E0D1480580DE
:1029D000CC490088FFF7D8FACA4B0093092300229C
:1029E000E6214FF48C70FEF7ADFC0A21C94800883F
:1029F00005F09AFE01E0FFE700BF00BF00BF21B075
:102A0000BDE8F08F10B500280ADB092808DC302269
:102A10000A704A708A7000F13002CA7000220A718E
:102A20000A2812DB632810DC30220A704A700A225E
:102A300090FBF2F230328A700A2290FBF2F302FB32
:102A400013023032CA7000220A7164281CDBB0F510
:102A50007A7F19DA30220A70642290FBF2F2303267
:102A60004A700A2290FBF2F20A2392FBF3F403FB72
:102A7000142230328A700A2290FBF2F302FB130216
:102A80003032CA7000220A71B0F57A7F25DB42F23B
:102A90000F72904221DC4FF47A7290FBF2F23032E6
:102AA0000A70642290FBF2F20A2392FBF3F403FB18
:102AB000142230324A700A2290FBF2F292FBF3F4B5
:102AC00003FB142230328A700A2290FBF2F302FBDD
:102AD00013023032CA7000220A7110BD002808DBD0
:102AE000092806DC30220A7000F130024A70002208
:102AF0008A700A280FDB63280DDC0A2290FBF2F2B1
:102B000030320A700A2290FBF2F302FB13023032D9
:102B10004A7000228A707047F8B50446002C7EDDAA
:102B2000204605F069FF7C4908797C49FFF7D6FF0C
:102B3000794948797A49FFF7D1FF77498879794906
:102B4000FFF7CCFF7449C8797749FFF7C7FF72498F
:102B5000087A7649FFF7C2FF6F49487A7449FFF750
:102B6000BDFF74A1704805F0B0FF07466F4905F03E
:102B7000ACFF06466FA105F0A8FF05466C4905F0BD
:102B8000A4FF6DA1654805F0A0FF0746644905F064
:102B90009CFF064668A105F098FF0546614905F0CF
:102BA00094FF4FF6FF70FEF746FB4FF4AF7340F211
:102BB000622278210120FEF7C4FD0020FEF73BFBD6
:102BC000594B0093022300227A210F20FEF7BAFB13
:102BD000524B00930223002293210F20FEF7B2FBF9
:102BE00056A300930923002273219120FEF7AAFB2C
:102BF00053A30093092300227321EB20FEF7A2FBCD
:102C00004549C8794849FFF769FF4349087A474968
:102C1000FFF764FF4049497A481C454900E04FE00E
:102C2000FFF75CFF43A1404805F04FFF07463F49CF
:102C300005F04BFF06463FA105F047FF05463C491E
:102C400005F043FF344948893E49FFF7DBFE364B28
:102C50000093022300227A214FF4AA70FEF772FB40
:102C60002E4B00930223002293214FF4AA70FEF70B
:102C700069FB344B00930923002273214FF4EB705E
:102C8000FEF760FB30480078C0EB00102F4901EBE5
:102C900040104369009303230022AF210F20FEF769
:102CA00051FB29480078C0EB0010284901EB401087
:102CB000836B009302230022CD210F20FEF742FBFD
:102CC000F8BDF8B50446002C7EDD2046FEF7F9F885
:102CD0001F4908791F49FFF701FF1D4948791E491F
:102CE000FFF7FCFE1A4988791C49FFF7F7FE1849DF
:102CF000C8791B49FFF7F2FE154933E06800002050
:102D00003C0000201A0700203E0000204000002068
:102D10004200002044000020A0050020AC06002056
:102D2000860000208B000020BB06002090000020C1
:102D3000810000203A0000002E00000044470000FF
:102D400030303100AE000020C0000020C400002060
:102D500088050020CA0600209A0000209F0000205D
:102D6000D9060020087AFF49FFF7B8FEFE49487AE5
:102D7000FE49FFF7B3FEAFF24401FD4805F0A5FEA2
:102D80000746F84905F0A1FE0646AFF2580105F0E6
:102D90009CFE0546F54905F098FEAFF26401F54842
:102DA00005F093FE0746F44905F08FFE0646AFF2A4
:102DB000780105F08AFE0546F04905F086FE4FF6DB
:102DC000FF70FEF738FA00E0AEE04FF4A57340F272
:102DD0006222F1210120FEF7B4FC0020FEF72BFA5D
:102DE000E34B009302230022F2210F20FEF7AAFA00
:102DF000E04B00930223002240F20B110F20FEF75C
:102E0000A1FAAFF2C803009309230022EB2191201D
:102E1000FEF798FAAFF2D803009309230022EB21C2
:102E20000846FEF78FFAD049C879D149FFF756FE18
:102E3000CD49087ACB49FFF751FECB49497A481D65
:102E4000CA49FFF74BFEAFF21411C94805F03DFE29
:102E50000746C44905F039FE0646AFF2281105F0D1
:102E600034FE0546C14905F030FEBF494889C449D2
:102E7000FFF7C8FDBE4B009302230022F2214FF45E
:102E8000AA70FEF75FFABB4B00930223002240F2C8
:102E90000B114FF4AA70FEF755FAB94B00930923B2
:102EA0000022EB214800FEF74DFAB6480078C0EB4F
:102EB0000010B54901EB4010436900930323002241
:102EC0004FF491710F20FEF73DFAA7490868AF490A
:102ED000FFF75AF8AB480078C0EB0010AA4A02EBA3
:102EE0004010D0F84811AA4805F0EFFD0646A74962
:102EF00005F0EBFD0546A3480078C0EB0010A24AA0
:102F000002EB4010D0F84C11284605F0DEFDA04B36
:102F10000093022300224FF4A0710F20FEF712FA53
:102F200032219B4805F0C5FDF8BDF8B50446002CDC
:102F30007EDD2046FDF7C5FF8B4908799549FFF7EF
:102F4000CDFD894948799449FFF7C8FD86498879BC
:102F50009249FFF7C3FD8449C8799149FFF7BEFD47
:102F60008149087A8F49FFF7B9FD7F49487A8E4930
:102F7000FFF7B4FDAFF24421894805F0A6FD0746EE
:102F8000884905F0A2FD0646AFF2582105F09DFDE7
:102F90000546854905F099FDAFF264217D4805F0AD
:102FA00094FD07467C4905F090FD0646AFF2782176
:102FB00005F08BFD0546794905F087FD4FF6FF705A
:102FC000FEF739F94FF4AF7340F262227821012005
:102FD000FEF7B7FB0020FEF72EF9714B009302239A
:102FE00000227A210F20FEF7ADF96A4B00930223ED
:102FF000002293210F20FEF7A5F9AFF2C023009322
:103000000923002273219120FEF79CF9AFF2D0230F
:103010000093092300227321EB20FEF793F9524914
:10302000C8795F49FFF75AFD4F49087A5D4900E0CA
:1030300076E0FFF753FD4C49497A481D5A49FFF79E
:103040004DFDAFF21031564805F03FFD074655499A
:1030500005F03BFD0646AFF2243105F036FD05468E
:10306000514905F032FD404948894549FFF7CAFCFE
:103070004B4B0093022300227A214FF4AA70FEF7F3
:1030800061F9444B00930223002293214FF4AA706C
:10309000FEF758F93A4B00930923002273214FF4AD
:1030A000EB70FEF74FF937480078C0EB0010364957
:1030B00001EB40104369009303230022AF210F204E
:1030C000FEF740F9284908683049FEF75DFF2D48B2
:1030D0000078C0EB00102C4A02EB4010D0F84811E9
:1030E0002B4805F0F2FC0646284905F0EEFC0546A3
:1030F00024480078C0EB0010234A02EB4010D0F8BF
:103100004C11284605F0E1FC214B009302230022DC
:10311000CD210F20FEF716F932211D4805F0C9FC1C
:10312000F8BDFEB50246144600200023002C00DA4C
:10313000524200BF0A2592FBF5F605FB16253035F5
:10314000EDB20DF800500A2592FBF5F2401C002A62
:10315000F0DC002C04DA2D270546401C0DF8057024
:10316000002523E0A4000020880500209500002011
:10317000D9060020CA0600209A0000209F000020E7
:10318000AE000020C0000020C4000020A9000020E4
:10319000E8060020AC060020860000208B000020FE
:1031A000BB06002090000020810000200DF8005098
:1031B000401E04E01DF80050CD545B1C401E00284A
:1031C000F8DA0025CD54FEBDF8B50446002C7EDDAE
:1031D000204605F04FFCFF490879FF49FFF77EFCC8
:1031E000FC494879FD49FFF779FCFA498879FC499F
:1031F000FFF774FCF749C879FA49FFF76FFCF54906
:10320000087AF949FFF76AFCF249487AF749FFF76B
:1032100065FCAFF2E041F34805F057FC0746F24980
:1032200005F053FC0646AFF2F44105F04EFC0546AE
:10323000EE4905F04AFCAFF20051E74805F045FCC5
:103240000746E64905F041FC0646AFF2145105F089
:103250003CFC0546E24905F038FC4FF6FF70FDF7EF
:10326000EAFF4FF4AF7340F2622278210120FEF7AB
:1032700068FA0020FDF7DFFFDA4B009302230022FB
:103280007A210F20FEF75EF8D34B00930223002231
:1032900093210F20FEF756F8AFF2605300930923F5
:1032A000002273219120FEF74DF8AFF26C5300938A
:1032B000092300227321EB20FEF744F8C549C879A1
:1032C000C849FFF70BFCC349087AC74900E058E03A
:1032D000FFF704FCBF49497A481CC449FFF7FEFBCD
:1032E000AFF2B051BF4805F0F0FB0746BE4905F00C
:1032F000ECFB0646AFF2C45105F0E7FB0546BB49BF
:1033000005F0E3FBB3494889B949FFF77BFBB54BAF
:103310000093022300227A214FF4AA70FEF712F8DC
:10332000AD4B00930223002293214FF4AA70FEF7C5
:1033300009F8AF4B00930923002273214FF4EB707F
:10334000FEF700F8AB480078C0EB0010AA4901EB8B
:1033500040104369009303230022AF210F20FDF7A3
:10336000F1FFA4480078C0EB0010A34901EB401026
:10337000D0F8BC31009302230022CD210F20FDF7AD
:10338000E1FFF8BD00B58BB000200A9009900890CD
:10339000079006900590049098488179407941EA19
:1033A00000200A909548017AC07941EA00200990EE
:1033B000924800880E2844F07C839048807A0890D8
:1033C0008E48C07A07900898012844F0798300203D
:1033D0008B4908708B4908700A98012807D1099811
:1033E000252804D1079810B90020874908700A9849
:1033F000012807D10998252804D10798012801D16F
:10340000814908700A98012804D10998052801D13A
:10341000012006907D48008800280DDD0A980128CB
:103420000AD10998112807D17948007820B979483C
:10343000007808B9022006900A9801280BD1099853
:10344000122808D17248007828B9724800780128FB
:1034500001D1032006900A9801280AD1099818285A
:1034600007D16B48007820B96A48007808B9042071
:1034700006900A9801280ED1099813280BD16448A8
:10348000007840B964480078002804DD614800787D
:1034900008B9052006900A98012804D109980A283D
:1034A00001D1062006900A9801280ED1099811280A
:1034B0000BD157480078012807D15648007820B929
:1034C0005648008808B1072006900A9801280CD1B8
:1034D0000998122809D14E480078012805D14D4895
:1034E0000078012801D1082006900A98012804D10B
:1034F0000998102801D1092006900A98012808D1BE
:103500000998112805D142480078022801D10A20E3
:1035100006900A98012802D109980B2810D00A9821
:1035200001280FD10998122802D00998152809D12D
:1035300037480078032805D136480078012801D1A2
:103540000B2006900A98012808D10998182805D15F
:103550002F480078032801D10C2006900A980128F2
:1035600008D10998132805D129480078032801D1EA
:103570000D2006900A98012811D10998112802D02F
:10358000099814280BD122480078032807D1224833
:10359000007820B91F48007808B90E2006900A98D4
:1035A000012844D10998112802D0099814283ED145
:1035B0001748007803283AD119480068322836D1D4
:1035C00014480078022832D11348007800282EDBF6
:1035D000114827E0B8050020AC0600208600002036
:1035E0008B000020BB0600209000002081000020FE
:1035F000AE000020C0000020C40000202E060020E5
:1036000060000020620000204A0000202C00002002
:10361000670000206C0000206D0000202E000020BC
:10362000680000200078042801DC0F2006900A982A
:10363000012814D10998112802D0099814280ED114
:10364000FF48007803280AD1FE480068052806D103
:10365000FD480078012802D1FC480078B0B10A98F2
:10366000012815D10998122802D0099815280FD1E0
:10367000F4480068B0F5FA7F0ADBF2480068B0F55C
:10368000FC7F05DCF0480078032801D11320069068
:10369000EF480078002813DD0A98012810D1099816
:1036A000112802D0099814280AD1E5480078032887
:1036B00006D1E6480078052802D1E3480078A0B199
:1036C0000A98012813D10998122802D009981528C0
:1036D0000DD1DC480068322809DBDA48006835285B
:1036E00005DCD9480078022801D114200690D8487A
:1036F0000078002813DD0A98012810D109981128B4
:1037000002D0099814280AD1CD480078032806D1A0
:10371000CE480078062802D1CB480078A0B10A989C
:10372000012813D10998122802D0099815280DD123
:10373000C44800683C2809DBC2480068442805DC0E
:10374000C1480078022801D1152006900A98012866
:1037500016D10998112802D00998142810D1B84818
:10376000007803280CD1B7480068062808D1B6486D
:103770000078012804D1B548007808B925200690C2
:103780000A98012817D10998112802D009981428FD
:1037900011D1AB48007803280DD1AA48006806284B
:1037A00009D1A9480078012805D1A8480078012846
:1037B00001D1162006900A98012817D109981128DE
:1037C00002D00998142811D19D48007803280DD102
:1037D0009C480068062809D19B480078012805D13B
:1037E0009A480078022801D1172006900A980128EB
:1037F00017D10998112802D00998142811D190489E
:10380000007803280DD18F480068062809D18E481A
:103810000078012805D18D480078032801D11820AF
:1038200006900A98012810D10998112802D0099809
:1038300014280AD182480078032806D183480078EA
:10384000012802D180480078A0B10A98012813D13C
:103850000998122802D0099815280DD179480068D6
:103860000A2809DB774800680C2805DC76480078D0
:10387000022801D1192006900A98012816D109982A
:10388000112802D00998142810D16D480078032817
:103890000CD16C480068012808D16B4800780128D9
:1038A00004D16A48007808B91A2006900A980128BD
:1038B00010D1099818280DD161480078032809D142
:1038C000604800680A2805D15F480078022801D1C5
:1038D0001B2006900A98012814D10998132811D1A9
:1038E0005748007803280DD1564800680A2809D1A6
:1038F00056480078002805DD53480078022801D199
:103900001C2006900A98012815D10998112802D088
:10391000099814280FD14A48007803280BD1494848
:103920000068062807D148480078012803D1474895
:103930000078042817D00A98012816D1099812286F
:1039400002D00998152810D13E480068B0F5207FB4
:103950000BDB3C48006840F28221884205DC3A4893
:103960000078032801D11D2006900A98012816D15D
:103970000998112802D00998142810D130480078ED
:1039800003280CD12F480068402808D12E48007821
:10399000022804D12D48007808B91E2006900A9804
:1039A000012810D1099814280DD125480078032842
:1039B00009D124480068B0F5207F04D1254800785B
:1039C00008B91F20069022480078002815DD0A98C3
:1039D000012812D10998112802D0099814280CD175
:1039E00017480078032808D118480078032804D124
:1039F0001548007808B9202006900A9801280FD1B0
:103A0000099814280CD10E480078032808D10D48D5
:103A10000068032804D10F48007808B921200690D7
:103A20000B480078002822DD0A9801281FD1099848
:103A3000112802D00998142819D1014800780BE008
:103A400067000020680000206C0000206D0000204E
:103A50006100002066000020032808D1FF4800789C
:103A6000022804D1FE48007808B922200690FD48BB
:103A70000078002815DD0A98012812D1099811282C
:103A800002D0099814280CD1F7480078032808D1EF
:103A9000F2480078042804D1F148007808B92320BE
:103AA0000690F0480078002815DD0A98012812D108
:103AB0000998112802D0099814280CD1EA480078F6
:103AC000032808D1E5480078072804D1E4480078A5
:103AD00008B9242006900A98012812D109981128C3
:103AE00002D0099814280CD1DF480078032808D1A7
:103AF000DE4800683C2804D1D848007808B9262060
:103B000006900A98012813D10998112802D0099823
:103B100014280DD1D4480078032809D1D34800686F
:103B20003C2805D1CD480078012801D127200690F6
:103B3000CC480078042815DA0A98012812D109988F
:103B4000112802D0099814280CD1C74800780328FE
:103B500008D1C2480078012804DDC148007808B9BE
:103B6000282006900A98012817D10998112802D018
:103B70000998142811D1BC48007803280DD1BB48FE
:103B80000068062809D1B6480078012805D1B34855
:103B90000078062801D1292006900A98012812D120
:103BA0000998112802D0099814280CD1AE48007841
:103BB000032808D1AD480068422804D1A7480078FE
:103BC00008B92A2006900A98012813D109981128CB
:103BD00002D0099814280DD1A3480078032809D1F0
:103BE000A2480068422805D19C480078012801D1EC
:103BF0002B2006900A98012817D10998112802D085
:103C00000998142811D19848007803280DD19748B5
:103C10000068012809D192480078012805D18F4811
:103C20000078012801D12C2006900A98012817D18C
:103C30000998112802D00998142811D18A480078CF
:103C400003280DD189480068402809D184480078AC
:103C5000022805D181480078012801D12D20069045
:103C60000A98012811D1099814280ED17E480078AD
:103C700003280AD17D480068A0F50071813904D17C
:103C80007B48007808B92E200690764800780028F6
:103C900013DD0A98012810D10998112802D009983B
:103CA00014280AD170480078032806D16B480078A0
:103CB000022802D16A480078A0B10A98012813D1DD
:103CC0000998122802D0099815280DD16748006874
:103CD000142809DB65480068192805DC604800786D
:103CE000022801D12F2006900A98012816D10998A0
:103CF000112802D00998142810D15B4800780328B5
:103D00000CD15A480068022808D15548007801288B
:103D100004D15248007808B9302006900A9801284A
:103D200013D10998112802D0099814280DD14E48B2
:103D30000078032809D14D480068142805D1474868
:103D40000078012801D1312006900A98012812D16B
:103D50000998112802D0099814280CD142480078FB
:103D6000032808D141480068142804D13B48007852
:103D700008B9322006900698332883F09886DFE849
:103D800010F033003500E7000A02110363041B053D
:103D90008E051006850608070907DA07390898080E
:103DA0004F09961E961E961E970A640B0F0C0E0D59
:103DB000EA0DB30E470FE20F7F10E31187122413B1
:103DC000B3134214B71409166B16CD162F17E51747
:103DD0005B18D118F3189019281AAF1A281BA21BC8
:103DE0003A1CB51C511DE61D03F062BE00201E49A1
:103DF00008701B49087002201E49087000201749EE
:103E000008701D480078FDF79CFD4FF6FF70FDF728
:103E100012FA482340F2F31201218320FDF791FCAE
:103E20004FF4BE7340F26B224A210020FDF789FC5B
:103E30000020FDF700FA0023162210218720FDF74D
:103E400006FB0E480078C0EB00100D4901EB401056
:103E50000368009307230022172113E06D00002060
:103E60006C00002061000020670000206800002036
:103E7000660000206E00002065000020C0000020C9
:103E8000C400002040F20F10FDF75CFAFF480078F4
:103E9000C0EB0010FE4901EB401043680093032380
:103EA000002255210F20FDF74DFAF8480078C0EBAD
:103EB0000010F74901EB40108368009303230022B0
:103EC00055218800FDF73EFAF0480078C0EB00105D
:103ED000EF4901EB4010C3680093032300225521F2
:103EE0004FF4EB70FDF72EFAEA480088EA490978AA
:103EF000884212DBE7480088FFF717F8E54800889A
:103F0000401E0390FEF7DDFEAF234FF416727321BF
:103F100040F2D110FDF7EEFB0FE0DE4800880128EB
:103F20000AD1FFF702F8AF234FF41672732140F263
:103F3000D110FDF7DFFB00E000BFD8480078FDF7A7
:103F40000DFDD6480078C0F10300D44908704BE756
:103F5000D3480078401CD2490870CE480088D14927
:103F60000978401A0390FCF7ACFFCC480078FDF7C5
:103F7000E8FC4FF6FF70FDF75EF9482340F2F312BC
:103F800001218320FDF7DDFB0020FDF754F900231C
:103F9000162210218720FDF75AFABC480078C0EBA2
:103FA0000010BB4901EB4010036900930723002276
:103FB0001721FA20FDF7C6F94FF6FF70FDF73BF920
:103FC0004FF4BE7340F26B224A210020FDF7B9FB8B
:103FD0000020FDF730F9AD480078C0EB0010AC4987
:103FE00001EB4010436900930323002255210F2069
:103FF000FDF7A8F9AC480068AC490390FDF7C4FF91
:10400000ABA1AE4804F061FD0290A0480078C0EB7F
:1040100000109F4901EB4010D0F848010146019083
:10402000029804F052FDA149039004F04EFDA34B09
:1040300000930223002273210F20FDF783F9322120
:104040009E4804F036FD91480078C0EB001090497E
:1040500001EB4010C36900930323002291210F203C
:10406000FDF770F996A3009302230022AF210F20E1
:10407000FDF768F994A3009302230022CD210F20BD
:10408000FDF760F993A3009302230022CD2178204D
:10409000FDF758F97D480078C0EB00107C4901EB32
:1040A0004010036A009302230022CD214FF48C704C
:1040B000FDF748F98BA3009302230022EB2178201F
:1040C000FDF740F971480078C0EB0010704901EB32
:1040D0004010436A009302230022EB214FF48C70BE
:1040E000FDF730F983A300930223002240F2091167
:1040F0007820FDF727F965480078C0EB0010644987
:1041000001EB4010836A00930223002240F2091160
:104110004FF48C70FDF716F97AA300930223002266
:1041200040F227117820FDF70DF958480078C0EBD0
:104130000010574901EB4010C36A0093022300228C
:1041400040F227114FF48C70FDF7FCF871A3009337
:104150000223002240F245117820FDF7F3F84B4886
:104160000078C0EB00104A4901EB4010036B00934C
:104170000223002240F245114FF48C70FDF7E2F863
:1041800046480078FDF7EAFB44480078C0F1030098
:104190004249087028E600206249087040480078CB
:1041A000401E3F4908703D480078FDF7CAFB4FF6B6
:1041B000FF70FDF740F8482340F2F31201218320FD
:1041C000FDF7BFFA4FF4BE7340F26B224A21002084
:1041D000FDF7B7FA0020FDF72EF800231622102174
:1041E0008720FDF734F929480078C0EB00102849F2
:1041F00001EB40100368009307230022172140F2CF
:104200000F10FDF79FF821480078C0EB00102049FF
:1042100001EB4010436800930323002255210F2037
:10422000FDF790F819480078C0EB0010184901EB31
:104230004010836800930323002255218800FDF776
:1042400081F812480078C0EB0010114901EB4010D2
:10425000C36800930323002255214FF4EB70FDF750
:1042600071F80C4800880C490978884261DB0948DC
:10427000008809490978401A801C0390FEF755FE12
:104280000448008804490978401A4DE0C000002025
:10429000C40000202C0000206E00002065000020DB
:1042A0006C0000206D00002088050020A90000207F
:1042B000444730303120202020000000E806002054
:1042C000454730303200000031372E30312E313644
:1042D0000000000031363A32383A34313A3033395E
:1042E0000000000031363A32383A34313A3333394B
:1042F0000000000031363A32383A34313A35313143
:104300000000000031363A32383A34363A30333928
:104310000000000031363A32383A34363A32373714
:104320000000000067000020401C0390FEF7C9FC5D
:104330000EE0FF480088FF490978884208DAFC4807
:104340000088FC490978401A801C0390FEF7EDFDB7
:10435000F7480088D8B1F8480078039000EBD07097
:1043600041100398B0EB410008D1AF234FF416720F
:10437000732140F2D110FDF7BDF908E040F2271398
:104380004FF41672EB2140F2D110FDF7B3F9EB4870
:104390000078FDF7E3FAE9480078C0F10300E74947
:1043A000087021E5E248008802287DD1E2480078C3
:1043B000F0BBE1480078401CDF490870DF48007816
:1043C000FDF7BFFA4FF6FF70FCF735FF482340F2C8
:1043D000F31201218320FDF7B4F94FF4BE7340F2CC
:1043E0006B224A210020FDF7ACF90020FCF723FFE7
:1043F0000023162210218720FDF729F8D0480078E5
:10440000C0EB0010CF4901EB401003680093072375
:104410000022172140F20F10FCF794FFC8480078E3
:10442000C0EB0010C74901EB40104368009300E067
:10443000C6E00323002255210F20FCF783FFC0486C
:104440000078C0EB0010BF4901EB40108368009377
:104450000323002255218800FCF774FFB848007838
:10446000C0EB0010B74901EB4010C3680093032371
:10447000002255214FF4EB70FCF764FF0220FEF799
:1044800054FD0120FEF71DFC40F227134FF4167275
:10449000EB2140F2D110FDF72DF9A8480078FDF787
:1044A0005DFAA648007800E004E0C0F10300A349EB
:1044B0000870C8E09E4801889F480078401C8142EF
:1044C0007EDD9D480078401C9B49087008460078B6
:1044D000039000EBD07041100398B0EB410004D181
:1044E00094480078801C9349087094480078FDF740
:1044F00028FA4FF6FF70FCF79EFE482340F2F312B5
:1045000001218320FDF71DF94FF4BE7340F26B22A9
:104510004A210020FDF715F90020FCF78CFE00234E
:10452000162210218720FCF792FF85480078C0EB07
:104530000010844901EB4010036800930723002218
:10454000172140F20F10FCF7FDFE7D480078C0EB0C
:1045500000107C4901EB40104368009303230022C4
:1045600055210F20FCF7EEFE75480078C0EB0010D7
:10457000744901EB40108368009303230022552106
:104580008800FCF7DFFE6E480078C0EB00106D4934
:1045900001EB4010C36800930323002255214FF420
:1045A000EB70FCF7CFFE62480088624909788842C8
:1045B00014DB5F4800885F490978401A801C00E0DE
:1045C00041E00390FEF7B1FC594800885949097849
:1045D000401A401C0390FEF774FB0EE0544800881C
:1045E00054490978884208DA5148008851490978C5
:1045F000401A801C0390FEF798FC4F480078039007
:1046000000EBD07041100398B0EB410008D1AF230C
:104610004FF41672732140F2D110FDF76BF808E0E9
:1046200040F227134FF41672EB2140F2D110FDF740
:1046300061F842480078FDF791F940480078C0F1F0
:1046400003003E49087082E43B480078401E3A4926
:10465000087008460078039000EBD0704110039872
:10466000B0EB410004D033480078801E3149087017
:1046700032480078FDF765F94FF6FF70FCF7DBFD77
:10468000482340F2F31201218320FDF75AF84FF43A
:10469000BE7340F26B224A210020FDF752F8002041
:1046A000FCF7C9FD0023162210218720FCF7CFFE5E
:1046B00023480078C0EB0010224901EB401003684A
:1046C000009307230022172140F20F10FCF73AFE57
:1046D0001B480078C0EB00101A4901EB40104368FA
:1046E00000930323002255210F20FCF72BFE1448D2
:1046F0000078C0EB0010134901EB40108368009371
:104700000323002255218800FCF71CFE0C4800788A
:10471000C0EB00100B4901EB4010C368009303236A
:10472000002255214FF4EB70FCF70CFE00480BE023
:104730002C0000206E0000206D000020650000208D
:10474000C0000020C40000200088FF490978401AFA
:10475000801C0390FEF7E9FBFC480088FA490978C1
:10476000401A401C0390FEF7ACFAF9480078039019
:1047700000EBD07041100398B0EB410009D040F23B
:1047800027134FF41672EB2140F2D110FCF7B2FF61
:1047900007E0AF234FF41672732140F2D110FCF7FB
:1047A000A9FFEC480078FDF7D9F8EA480078C0F195
:1047B0000300E8490870EDE40120E7490870002093
:1047C000E6490870E3480078FDF7BBF84FF6FF7044
:1047D000FCF731FD482340F2F31201218320FCF75E
:1047E000B0FF4FF4BE7340F26B224A210020FCF769
:1047F000A8FF0020FCF71FFD0023132217218F20A4
:10480000FCF725FED6480078C0EB0010D54901EB37
:104810004010436B009307230022172140F20F1032
:10482000FCF790FDCE480078C0EB0010CD4901EBBD
:104830004010436800930323002255210F20FCF70A
:1048400081FDC7480078C0EB0010C64901EB40105D
:10485000836800930323002255218800FCF772FD32
:10486000BF480078C0EB0010BE4901EB4010C368A0
:1048700000930323002255214FF4EB70FCF762FDF7
:10488000B9480088FEF748F9B2480078FDF766F8A5
:10489000B0480078C0F10300AE4908707AE4AF4830
:1048A0000078401CAD490870AA480078FDF749F827
:1048B0004FF6FF70FCF7BFFC482340F2F3120121D2
:1048C0008320FCF73EFF0020FCF7B5FC00231322F9
:1048D00017218F20FCF7BBFDA1480078C0EB00102A
:1048E000A04901EB4010036C00930723002217211D
:1048F000FA20FCF727FD4FF6FF70FCF79CFC4FF405
:10490000BE7340F26B224A210020FCF71AFF002000
:10491000FCF791FC92480078C0EB0010914901EB44
:104920004010836B00930323002255210F20FCF7D6
:1049300009FD8B480078C0EB00108A4901EB40105C
:10494000436C00930223002282214120FCF7FAFCF1
:1049500083480078C0EB0010824901EB4010836C63
:10496000009302230022A0214120FCF7EBFC7C48AD
:104970000078C0EB00107B4901EB4010C36C009342
:1049800002230022BE214120FCF7DCFC71480078A4
:10499000FCF7E4FF6F480078C0F103006D49087030
:1049A000FFE401206C4908706C480078401E6B4998
:1049B000087068480078FCF7C4FF4FF6FF70FCF7FA
:1049C0003AFC482340F2F31201218320FCF7B9FEA0
:1049D0004FF4BE7340F26B224A210020FCF7B1FE77
:1049E0000020FCF728FC0023132217218F20FCF75E
:1049F0002EFD5B480078C0EB00105A4901EB4010D7
:104A0000436B009307230022172140F20F10FCF79D
:104A100099FC53480078C0EB0010524901EB40105C
:104A2000436800930323002255210F20FCF78AFCE2
:104A30004B480078C0EB00104A4901EB40108368F6
:104A400000930323002255218800FCF77BFC444897
:104A50000078C0EB0010434901EB4010C36800939D
:104A60000323002255214FF4EB70FCF76BFC3E480A
:104A70000088FEF751F837480078FCF76FFF35489B
:104A80000078C0F10300334908708AE402203249FB
:104A9000087030480078FCF754FF4FF6FF70FCF7C1
:104AA000CAFB482340F2F31201218320FCF749FEA0
:104AB0004FF4BE7340F26B224A210020FCF741FE06
:104AC0000020FCF7B8FB0023142217218F20FCF7ED
:104AD000BEFC23480078C0EB0010224901EB4010D7
:104AE000036D009307230022172140F20F10FCF7FB
:104AF00029FC1B480078C0EB00101A4901EB40105C
:104B0000436800930323002255210F20FCF71AFC71
:104B100013480078C0EB0010124901EB4010836885
:104B200000930323002255218800FCF70BFC0C485E
:104B30000078C0EB00100B4901EB4010C3680093F4
:104B400003230022552111E06E0000202C000020DC
:104B50006D00002065000020670000206C00002030
:104B6000C0000020C40000202E0000204FF4EB7095
:104B7000FCF7E8FBFF480088FEF726FBFE480078BC
:104B8000FCF7ECFEFC480078C0F10300FA4908701D
:104B900007E406E40320F94908700020F84908708A
:104BA000F8490870401EF8490860F3480078FCF79F
:104BB000C8FE4FF6FF70FCF73EFB482340F2F312AD
:104BC00001218320FCF7BDFD4FF4BE7340F26B2240
:104BD0004A210020FCF7B5FD4FF4AF732C22782159
:104BE0000A20FCF7AEFD0020FCF725FB0023152270
:104BF00017218F20FCF72BFCE4480078C0EB001055
:104C0000E34901EB4010C36D0093072300221721F5
:104C100040F20F10FCF796FBDC480078C0EB001068
:104C2000DB4901EB4010036E009302230022782140
:104C30002D20FCF787FBD5480078C0EB0010D44945
:104C400001EB4010436E00930223002291212D209E
:104C5000FCF778FBCD480078C0EB0010CC4901EBA5
:104C60004010836E009302230022AA212D20FCF71E
:104C700069FBC6480078C0EB0010C54901EB401045
:104C8000C36E009302230022C3212D20FCF75AFBA0
:104C9000BE480078C0EB0010BD4901EB4010036F27
:104CA000009302230022DC212D20FCF74BFBB748A8
:104CB0000078C0EB0010B64901EB4010436F009341
:104CC00002230022F5212D20FCF73CFBAF480078A1
:104CD000C0EB0010AE4901EB4010836F009302233C
:104CE00000224FF487712D20FCF72CFBA748007899
:104CF000C0EB0010A64901EB4010C36F00930223E4
:104D0000002240F227112D20FCF71CFB7D20A14939
:104D1000088000230222084601881420FCF797FB34
:104D200095480078FCF71AFE93480078C0F103001C
:104D30009149087087E49348007808B908200490E6
:104D400091480068062801D1092004908E48006827
:104D5000012803D08C480068402801D1032004902A
:104D600089480068052801D104200490864800681D
:104D7000322801D105200490834800683C2807D0E0
:104D800081480068422803D07F480068142801D178
:104D900002200490049860B34FF6FF70FCF74BFAC2
:104DA0004FF4AF732C2278210A20FCF7CAFC049838
:104DB00000EBC00101EB001064307649098888429D
:104DC0000ADD744800881930724908806C48007800
:104DD000401C6B49087005E07D206E49088000206A
:104DE00067490870002302226A4801881420FCF7F2
:104DF0002EFB28E46348007808B908200490624834
:104E00000068062801D1092004905F480068012845
:104E100003D05D480068402801D1032004905A481F
:104E20000068052801D10420049057480068322802
:104E300001D105200490544800683C2807D052480E
:104E40000068422803D050480068142801D102208D
:104E50000490049860B34FF6FF70FCF7ECF94FF440
:104E6000AF732C2278210A20FCF76BFC494800889C
:104E70007D280ADD4748008819384649088040489F
:104E80000078401E3E4908700BE0049800EBC0011A
:104E900001EB001064303F4908800498401E3849F7
:104EA0000870002302223B4801881420FCF7CFFA47
:104EB00081E434480078401C3249087000203249AF
:104EC00008602D480078FCF73CFD4FF6FF70FCF7BA
:104ED000B2F9482340F2F31201218320FCF731FCA0
:104EE0004FF4BE7340F26B224A210020FCF729FCEC
:104EF0000020FCF7A0F90023152217218F20FCF7D2
:104F0000A6FA22480078C0EB0010214901EB4010BE
:104F1000C36D009307230022172140F20F10FCF706
:104F200011FA1A480078C0EB0010194901EB401043
:104F3000036E00930223002250210520FCF702FAA1
:104F40004FF490734FF4F072A821B420FCF7D2FB19
:104F5000E4234FF4F0721946B420FCF722FB0EA3B1
:104F6000009309230022AA21C820FCF7EBF9074887
:104F7000007817E030000020650000206700002066
:104F80006D0000206C00002068000020C0000020A0
:104F9000C4000020700000202A2A2A2A2A2A2A2A4D
:104FA00000000000C0EB0010FF4901EB4010D0F8FA
:104FB0008030009305230022F021C820FCF7C2F9BD
:104FC000FA480078C0EB0010F74901EB4010D0F828
:104FD00084300093052300224FF48771C820FCF72A
:104FE000B1F944F66920FCF726F940F2211340F2AA
:104FF000E112A721B320FCF77DFB4FF491734FF42E
:10500000F172A621B220FCF775FBE9480078FCF7A5
:10501000A5FCE7480078C0F10300E54908703DE4CD
:10502000E4480078401CE3490870E1480078FCF748
:1050300088FC4FF6FF70FCF7FEF8482340F2F312AD
:1050400001218320FCF77DFB4FF4BE7340F26B22FD
:105050004A210020FCF775FB0020FCF7ECF8002348
:10506000152217218F20FCF7F2F9D0480078C0EB09
:105070000010CD4901EB4010C36D009307230022BF
:10508000172140F20F10FCF75DF9CB480078052896
:1050900072D2DFE800F0031D37547200022003F0E3
:1050A000D1FB80B205904FF4FA70C4490860BF4844
:1050B0000078C0EB0010BC4901EB4010D0F88830FC
:1050C00000930223002250210520FCF73BF96FE0FA
:1050D000042003F0B7FB80B2059040F2F510B74909
:1050E0000860B2480078C0EB0010AF4901EB4010F7
:1050F000D0F88C3000930223002250210520FCF7C9
:1051000021F955E0062003F09DFB0A2190FBF1F008
:1051100080B205904FF4FB70A8490860A34800785E
:10512000C0EB0010A04901EB4010D0F89030009384
:105130000223002250210520FCF704F938E0082062
:1051400003F080FB0A2190FBF1F080B2059040F261
:10515000F7109A49086095480078C0EB0010924912
:1051600001EB4010D0F8943000930223002250212C
:105170000520FCF7E7F81BE019E00A2003F062FBCA
:1051800080B205904FF4FC708C4908608748007825
:10519000C0EB0010844901EB4010D0F89830009328
:1051A0000223002250210520FCF7CCF800E000BFCC
:1051B00000BF0020804908704FF490734FF4F072E4
:1051C000A821B420FCF796FAE4234FF4F0721946B4
:1051D000B420FCF7E6F97A490598FCF7D5FE784B40
:1051E000009309230022AA214FF48C70FCF7AAF83F
:1051F0006E480078C0EB00106B4901EB4010D0F80E
:105200008030009305230022F021C820FCF79AF893
:1052100066480078C0EB0010634901EB4010D0F8FD
:105220009C300093052300224FF48771C820FCF7BF
:1052300089F85E480078C0EB00105B4901EB401034
:10524000D0F8A030009307230022B4211420FCF7EB
:1052500079F856480078C0EB0010534901EB401034
:10526000D0F8A430009307230022F0211420FCF78B
:1052700069F844F66920FBF7DEFF40F2211340F2A3
:10528000E112A721B320FCF735FA4FF491734FF4E4
:10529000F172A621B220FCF72DFA45480078FCF700
:1052A0005DFB43480078C0F10300414908706FE49A
:1052B00040480078012804D13E480078401C3D4910
:1052C00008703C480078032804D13A480078401E12
:1052D0003849087000203849087032203749086082
:1052E00033480078FCF72DFB4FF6FF70FBF7A3FF68
:1052F000482340F2F31201218320FCF722FA4FF4F5
:10530000BE7340F26B224A210020FCF71AFA0020FB
:10531000FBF791FF0023152217218F20FCF797F848
:1053200022480078C0EB00101F4901EB4010C36D0C
:10533000009307230022172140F20F10FCF702F818
:105340001A480078C0EB0010174901EB4010D0F864
:10535000A83000930223002250210520FBF7F2FF22
:1053600012480078C0EB00100F4901EB4010D0F854
:10537000343100930223002278212D20FBF7E2FF35
:105380000A480078C0EB0010074901EB4010D0F844
:10539000383100930223002291212D20FBF7D2FF08
:1053A000024800780EE00000C4000020C000002089
:1053B000650000206C0000206D00002068000020C7
:1053C000B3000020C0EB0010FF4901EB4010D0F803
:1053D0003C31009302230022AA212D20FBF7B2FFCB
:1053E000FA480078C0EB0010F74901EB4010D0F804
:1053F0004031009302230022C3212D20FBF7A2FF9E
:10540000F2480078C0EB0010EF4901EB4010D0F8F3
:105410004431009302230022DC212D20FBF792FF70
:105420007D20EB49088000230222084601881420D1
:10543000FCF70DF8E7480078FCF790FAE5480078AB
:10544000C0F10300E349087074E4E348007820B930
:10545000E1480078401CE0490870DF4800780228E5
:1054600004D1DD480078401EDB4908700520DB4987
:1054700008600020DA490870D6480078FCF761FA25
:105480004FF6FF70FBF7D7FE482340F2F3120121DD
:105490008320FCF756F94FF4BE7340F26B224A2189
:1054A0000020FCF74EF90020FBF7C5FE0023152273
:1054B00017218F20FBF7CBFFC4480078C0EB00100A
:1054C000C14901EB4010C36D00930723002217214F
:1054D00040F20F10FBF736FFBC480078C0EB00101D
:1054E000B94901EB4010436F009302230022502181
:1054F0000520FBF727FFB5480078C0EB0010B24944
:1055000001EB4010D0F8A83000930223002278214C
:105510002D20FBF717FFAD480078C0EB0010AA491B
:1055200001EB4010D0F8AC3000930223002291210F
:105530002D20FBF707FFA5480078C0EB0010A2491B
:1055400001EB4010D0F8B030009302230022AA21D2
:105550002D20FBF7F7FE9D480078C0EB00109A491C
:1055600001EB4010D0F8B430009302230022C32195
:105570002D20FBF7E7FE7D209549088000230222BD
:10558000084601881420FBF762FF92480078FCF778
:10559000E5F990480078C0F103008E49087028E4CE
:1055A0008D48007820B98C480078401C8A490870E2
:1055B00089480078022804D187480078401E86492F
:1055C00008700620854908600020854908708148D8
:1055D0000078FCF7B6F94FF6FF70FBF72CFE482376
:1055E00040F2F31201218320FCF7ABF84FF4BE73B5
:1055F00040F26B224A210020FCF7A3F80020FBF7C1
:105600001AFE0023152217218F20FBF720FF6F4879
:105610000078C0EB00106C4901EB4010C36D0093A3
:1056200007230022172140F20F10FBF78BFE67487B
:105630000078C0EB0010644901EB4010D0F8B8309E
:1056400000930223002250210520FBF77BFE5F48D8
:105650000078C0EB00105C4901EB4010D0F8BC3082
:1056600000930223002278212D20FBF76BFE574880
:105670000078C0EB0010544901EB4010D0F8C03066
:1056800000930223002291212D20FBF75BFE4F485F
:105690000078C0EB00104C4901EB4010D0F8C4304A
:1056A000009302230022AA212D20FBF74BFE47483E
:1056B0000078C0EB0010444901EB4010D0F8C8302E
:1056C000009302230022C3212D20FBF73BFE3F481D
:1056D0000078C0EB00103C4901EB4010D0F8CC3012
:1056E000009302230022DC212D20FBF72BFE3748FC
:1056F0000078C0EB0010344901EB4010D0F8D030F6
:10570000009302230022F5212D20FBF71BFE2F48DA
:105710000078C0EB00102C4901EB4010D0F8D430D9
:105720000093022300224FF487712D20FBF70AFE1D
:1057300026480078C0EB0010234901EB4010D0F858
:10574000D83000930223002240F227112D20FBF7CE
:10575000F9FD1E480078C0EB00101B4901EB40101A
:10576000D0F8DC300093022300224FF4A0712D20EA
:10577000FBF7E8FD7D201649088000230222084639
:1057800001881420FBF763FE12480078FCF7E6F866
:1057900010480078C0F103000E4908703FE40E483D
:1057A0000078401C0C49087000200D4908703D200D
:1057B0000A490860FBF7ECFC0A4800780A490390A4
:1057C000FDF7AFFC074811E0C4000020C000002036
:1057D00070000020650000206C00002068000020A0
:1057E0006D0000204F000020AC0600204078F949F1
:1057F0000390FDF773F9F8488078F8490390FDF7B6
:105800006DF9F7A1F74803F060F9F249019003F050
:105810005CF9F3A1029003F058F9F049039003F00A
:1058200054F9F1480078FCF78CF84FF6FF70FBF75D
:1058300002FD4FF4BE7340F26B224A210020FBF7B9
:1058400080FF0020FBF7F7FCE8480078C0EB001071
:10585000E74901EB4010D0F8C0300093022300224A
:1058600050210520FBF76EFD4FF490734FF4F0725A
:10587000A821B420FBF73EFFE4234FF4F072194651
:10588000B420FBF78EFED74B009309230022AA21F8
:10589000C820FBF757FDD5480078C0EB0010D4496D
:1058A00001EB4010D0F8E030009305230022F021F6
:1058B000C820FBF747FDCD480078C0EB0010CC496D
:1058C00001EB4010D0F8E4300093052300224FF4A0
:1058D0008771C820FBF736FDC4480078C0EB001084
:1058E000C34901EB4010D0F8E830009307230022B1
:1058F000B4211420FBF726FDBC480078C0EB001053
:10590000BB4901EB4010D0F8EC3000930723002294
:10591000F0211420FBF716FD44F66920FBF78BFC01
:1059200040F2211340F2E112A721B320FBF7E2FE7F
:105930004FF491734FF4F172A621B220FBF7DAFE17
:10594000A9480078FCF70AF8A7480078C0F10300DE
:10595000A5490870ABE4A7480078401CA549087029
:105960000020A54908703E20A4490860FBF710FC00
:105970009948C078A2490390FDF7B0F8964800799D
:10598000A0490390FDF7AAF8934840799E490390F7
:10599000FDF7A4F89DA19A4803F097F89949019062
:1059A00003F093F899A1029003F08FF896490390C1
:1059B00003F08BF88C480078FBF7C3FF4FF6FF70BD
:1059C000FBF739FC4FF4BE7340F26B224A210020F2
:1059D000FBF7B7FE0020FBF72EFC84480078C0EBF5
:1059E0000010834901EB4010D0F8C430009302232B
:1059F000002250210520FBF7A5FC4FF490734FF4D3
:105A0000F072A821B420FBF775FEE4234FF4F07286
:105A10001946B420FBF7C5FD794B009309230022FA
:105A2000AA21C820FBF78EFC70480078C0EB00105C
:105A30006F4901EB4010D0F8E030009305230022BD
:105A4000F021C820FBF77EFC68480078C0EB00100E
:105A5000674901EB4010D0F8E430009305230022A1
:105A60004FF48771C820FBF76DFC60480078C0EBED
:105A700000105F4901EB4010D0F8E8300093072395
:105A80000022B4211420FBF75DFC58480078C0EBDD
:105A90000010574901EB4010D0F8EC300093072379
:105AA0000022F0211420FBF74DFC44F66920FBF79F
:105AB000C2FB40F2211340F2E112A721B320FBF711
:105AC00019FE4FF491734FF4F172A621B220FBF747
:105AD00011FE45480078FBF741FF43480078C0F1CC
